{
  "contractName": "Bicycle",
  "abi": [
    {
      "inputs": [
        {
          "internalType": "address",
          "name": "_owner_address",
          "type": "address"
        },
        {
          "internalType": "address",
          "name": "UNICOINaddress",
          "type": "address"
        }
      ],
      "stateMutability": "nonpayable",
      "type": "constructor"
    },
    {
      "inputs": [],
      "name": "BicycleInfo",
      "outputs": [
        {
          "internalType": "address",
          "name": "owner",
          "type": "address"
        },
        {
          "internalType": "bytes32",
          "name": "bicycleId",
          "type": "bytes32"
        }
      ],
      "stateMutability": "view",
      "type": "function"
    },
    {
      "inputs": [],
      "name": "fee",
      "outputs": [
        {
          "internalType": "uint256",
          "name": "",
          "type": "uint256"
        }
      ],
      "stateMutability": "view",
      "type": "function"
    },
    {
      "inputs": [],
      "name": "getBicycleID",
      "outputs": [
        {
          "internalType": "bytes32",
          "name": "",
          "type": "bytes32"
        }
      ],
      "stateMutability": "nonpayable",
      "type": "function"
    },
    {
      "inputs": [
        {
          "internalType": "uint256",
          "name": "_timeStamp",
          "type": "uint256"
        },
        {
          "internalType": "string",
          "name": "_location",
          "type": "string"
        },
        {
          "internalType": "address",
          "name": "_borrower",
          "type": "address"
        }
      ],
      "name": "openTransaction",
      "outputs": [],
      "stateMutability": "nonpayable",
      "type": "function"
    },
    {
      "inputs": [
        {
          "internalType": "uint256",
          "name": "_timeStamp",
          "type": "uint256"
        },
        {
          "internalType": "string",
          "name": "_location",
          "type": "string"
        }
      ],
      "name": "closeTransaction",
      "outputs": [],
      "stateMutability": "nonpayable",
      "type": "function"
    },
    {
      "inputs": [
        {
          "components": [
            {
              "internalType": "uint256",
              "name": "transactionID",
              "type": "uint256"
            },
            {
              "internalType": "contract DateTime",
              "name": "openTime",
              "type": "address"
            },
            {
              "internalType": "contract DateTime",
              "name": "closeTime",
              "type": "address"
            },
            {
              "internalType": "string",
              "name": "openLoc",
              "type": "string"
            },
            {
              "internalType": "string",
              "name": "closeLoc",
              "type": "string"
            },
            {
              "internalType": "uint256",
              "name": "fee_rate",
              "type": "uint256"
            },
            {
              "internalType": "uint256",
              "name": "totalFee",
              "type": "uint256"
            },
            {
              "internalType": "address",
              "name": "borrower",
              "type": "address"
            },
            {
              "internalType": "address",
              "name": "lender",
              "type": "address"
            }
          ],
          "internalType": "struct Bicycle.transaction",
          "name": "my_transaction",
          "type": "tuple"
        }
      ],
      "name": "getTotalFee",
      "outputs": [
        {
          "internalType": "uint256",
          "name": "",
          "type": "uint256"
        }
      ],
      "stateMutability": "nonpayable",
      "type": "function"
    }
  ],
  "bytecode": "0x608060405260008055600a6004556001600560006101000a81548160ff0219169083151502179055503480156200003557600080fd5b5060405162003c0138038062003c0183398181016040528101906200005b919062000130565b81600160000160006101000a81548173ffffffffffffffffffffffffffffffffffffffff021916908373ffffffffffffffffffffffffffffffffffffffff16021790555081604051602001620000b291906200018c565b60405160208183030381529060405280519060200120600180018190555080600560016101000a81548173ffffffffffffffffffffffffffffffffffffffff021916908373ffffffffffffffffffffffffffffffffffffffff16021790555050506200022c565b6000815190506200012a8162000212565b92915050565b600080604083850312156200014457600080fd5b6000620001548582860162000119565b9250506020620001678582860162000119565b9150509250929050565b620001866200018082620001a9565b620001dd565b82525050565b60006200019a828462000171565b60148201915081905092915050565b6000620001b682620001bd565b9050919050565b600073ffffffffffffffffffffffffffffffffffffffff82169050919050565b6000620001ea82620001f1565b9050919050565b6000620001fe8262000205565b9050919050565b60008160601b9050919050565b6200021d81620001a9565b81146200022957600080fd5b50565b6139c5806200023c6000396000f3fe608060405234801561001057600080fd5b50600436106100625760003560e01c80631a0ec969146100675780631e6b967814610086578063568c43b7146100a2578063b2536a1e146100d2578063ddca3f43146100ee578063ea487fe51461010c575b600080fd5b61006f61012a565b60405161007d929190611710565b60405180910390f35b6100a0600480360381019061009b9190611533565b61015c565b005b6100bc60048036038101906100b79190611475565b610570565b6040516100c9919061179e565b60405180910390f35b6100ec60048036038101906100e791906114df565b610830565b005b6100f66110aa565b604051610103919061179e565b60405180910390f35b6101146110b0565b6040516101219190611739565b60405180910390f35b60018060000160009054906101000a900473ffffffffffffffffffffffffffffffffffffffff16908060010154905082565b60011515600560009054906101000a900460ff161515146101b2576040517f08c379a00000000000000000000000000000000000000000000000000000000081526004016101a990611754565b60405180910390fd5b60006040516101c0906110bc565b604051809103906000f0801580156101dc573d6000803e3d6000fd5b5090508073ffffffffffffffffffffffffffffffffffffffff1663d04e48f1856040518263ffffffff1660e01b8152600401610218919061179e565b600060405180830381600087803b15801561023257600080fd5b505af1158015610246573d6000803e3d6000fd5b505050506000604051610258906110bc565b604051809103906000f080158015610274573d6000803e3d6000fd5b5090508073ffffffffffffffffffffffffffffffffffffffff1663d04e48f1866040518263ffffffff1660e01b81526004016102b0919061179e565b600060405180830381600087803b1580156102ca57600080fd5b505af11580156102de573d6000803e3d6000fd5b50505050600060405180610120016040528060005481526020018473ffffffffffffffffffffffffffffffffffffffff1681526020018373ffffffffffffffffffffffffffffffffffffffff168152602001868152602001868152602001600a8152602001600081526020018573ffffffffffffffffffffffffffffffffffffffff168152602001600160000160009054906101000a900473ffffffffffffffffffffffffffffffffffffffff1673ffffffffffffffffffffffffffffffffffffffff16815250905060016002018190806001815401808255809150506001900390600052602060002090600902016000909190919091506000820151816000015560208201518160010160006101000a81548173ffffffffffffffffffffffffffffffffffffffff021916908373ffffffffffffffffffffffffffffffffffffffff16021790555060408201518160020160006101000a81548173ffffffffffffffffffffffffffffffffffffffff021916908373ffffffffffffffffffffffffffffffffffffffff160217905550606082015181600301908051906020019061048a9291906110c9565b5060808201518160040190805190602001906104a79291906110c9565b5060a0820151816005015560c0820151816006015560e08201518160070160006101000a81548173ffffffffffffffffffffffffffffffffffffffff021916908373ffffffffffffffffffffffffffffffffffffffff1602179055506101008201518160080160006101000a81548173ffffffffffffffffffffffffffffffffffffffff021916908373ffffffffffffffffffffffffffffffffffffffff16021790555050506000600560006101000a81548160ff021916908315150217905550505050505050565b60008060405161057f906110bc565b604051809103906000f08015801561059b573d6000803e3d6000fd5b5090508073ffffffffffffffffffffffffffffffffffffffff1663d04e48f18273ffffffffffffffffffffffffffffffffffffffff16634bb9b47d866020015173ffffffffffffffffffffffffffffffffffffffff1663e44f21116040518163ffffffff1660e01b815260040160e060405180830381600087803b15801561062257600080fd5b505af1158015610636573d6000803e3d6000fd5b505050506040513d601f19601f8201168201806040525081019061065a919061144c565b876040015173ffffffffffffffffffffffffffffffffffffffff1663e44f21116040518163ffffffff1660e01b815260040160e060405180830381600087803b1580156106a657600080fd5b505af11580156106ba573d6000803e3d6000fd5b505050506040513d601f19601f820116820180604052508101906106de919061144c565b6040518363ffffffff1660e01b81526004016106fb929190611774565b602060405180830381600087803b15801561071557600080fd5b505af1158015610729573d6000803e3d6000fd5b505050506040513d601f19601f8201168201806040525081019061074d91906114b6565b6040518263ffffffff1660e01b8152600401610769919061179e565b600060405180830381600087803b15801561078357600080fd5b505af1158015610797573d6000803e3d6000fd5b505050506004548173ffffffffffffffffffffffffffffffffffffffff1663284343df6040518163ffffffff1660e01b8152600401602060405180830381600087803b1580156107e657600080fd5b505af11580156107fa573d6000803e3d6000fd5b505050506040513d601f19601f8201168201806040525081019061081e91906114b6565b6108289190611881565b915050919050565b60016002016000548154811061086f577f4e487b7100000000000000000000000000000000000000000000000000000000600052603260045260246000fd5b906000526020600020906009020160020160009054906101000a900473ffffffffffffffffffffffffffffffffffffffff1673ffffffffffffffffffffffffffffffffffffffff1663d04e48f1836040518263ffffffff1660e01b81526004016108d9919061179e565b600060405180830381600087803b1580156108f357600080fd5b505af1158015610907573d6000803e3d6000fd5b505050508060016002016000548154811061094b577f4e487b7100000000000000000000000000000000000000000000000000000000600052603260045260246000fd5b9060005260206000209060090201600401908051906020019061096f9291906110c9565b50610c6b6001600201600054815481106109b2577f4e487b7100000000000000000000000000000000000000000000000000000000600052603260045260246000fd5b906000526020600020906009020160405180610120016040529081600082015481526020016001820160009054906101000a900473ffffffffffffffffffffffffffffffffffffffff1673ffffffffffffffffffffffffffffffffffffffff1673ffffffffffffffffffffffffffffffffffffffff1681526020016002820160009054906101000a900473ffffffffffffffffffffffffffffffffffffffff1673ffffffffffffffffffffffffffffffffffffffff1673ffffffffffffffffffffffffffffffffffffffff168152602001600382018054610a9290611969565b80601f0160208091040260200160405190810160405280929190818152602001828054610abe90611969565b8015610b0b5780601f10610ae057610100808354040283529160200191610b0b565b820191906000526020600020905b815481529060010190602001808311610aee57829003601f168201915b50505050508152602001600482018054610b2490611969565b80601f0160208091040260200160405190810160405280929190818152602001828054610b5090611969565b8015610b9d5780601f10610b7257610100808354040283529160200191610b9d565b820191906000526020600020905b815481529060010190602001808311610b8057829003601f168201915b5050505050815260200160058201548152602001600682015481526020016007820160009054906101000a900473ffffffffffffffffffffffffffffffffffffffff1673ffffffffffffffffffffffffffffffffffffffff1673ffffffffffffffffffffffffffffffffffffffff1681526020016008820160009054906101000a900473ffffffffffffffffffffffffffffffffffffffff1673ffffffffffffffffffffffffffffffffffffffff1673ffffffffffffffffffffffffffffffffffffffff1681525050610570565b600160020160005481548110610caa577f4e487b7100000000000000000000000000000000000000000000000000000000600052603260045260246000fd5b9060005260206000209060090201600601819055506000600160020160005481548110610d00577f4e487b7100000000000000000000000000000000000000000000000000000000600052603260045260246000fd5b906000526020600020906009020160405180610120016040529081600082015481526020016001820160009054906101000a900473ffffffffffffffffffffffffffffffffffffffff1673ffffffffffffffffffffffffffffffffffffffff1673ffffffffffffffffffffffffffffffffffffffff1681526020016002820160009054906101000a900473ffffffffffffffffffffffffffffffffffffffff1673ffffffffffffffffffffffffffffffffffffffff1673ffffffffffffffffffffffffffffffffffffffff168152602001600382018054610de090611969565b80601f0160208091040260200160405190810160405280929190818152602001828054610e0c90611969565b8015610e595780601f10610e2e57610100808354040283529160200191610e59565b820191906000526020600020905b815481529060010190602001808311610e3c57829003601f168201915b50505050508152602001600482018054610e7290611969565b80601f0160208091040260200160405190810160405280929190818152602001828054610e9e90611969565b8015610eeb5780601f10610ec057610100808354040283529160200191610eeb565b820191906000526020600020905b815481529060010190602001808311610ece57829003601f168201915b5050505050815260200160058201548152602001600682015481526020016007820160009054906101000a900473ffffffffffffffffffffffffffffffffffffffff1673ffffffffffffffffffffffffffffffffffffffff1673ffffffffffffffffffffffffffffffffffffffff1681526020016008820160009054906101000a900473ffffffffffffffffffffffffffffffffffffffff1673ffffffffffffffffffffffffffffffffffffffff1673ffffffffffffffffffffffffffffffffffffffff16815250509050600560019054906101000a900473ffffffffffffffffffffffffffffffffffffffff1673ffffffffffffffffffffffffffffffffffffffff1663beabacc88260e001518361010001518460c001516040518463ffffffff1660e01b8152600401611022939291906116d9565b602060405180830381600087803b15801561103c57600080fd5b505af1158015611050573d6000803e3d6000fd5b505050506040513d601f19601f820116820180604052508101906110749190611423565b506001600054611084919061182b565b6000819055506001600560006101000a81548160ff021916908315150217905550505050565b60045481565b60006001800154905090565b611edd80611ab383390190565b8280546110d590611969565b90600052602060002090601f0160209004810192826110f7576000855561113e565b82601f1061111057805160ff191683800117855561113e565b8280016001018555821561113e579182015b8281111561113d578251825591602001919060010190611122565b5b50905061114b919061114f565b5090565b5b80821115611168576000816000905550600101611150565b5090565b600061117f61117a846117ea565b6117b9565b90508281526020810184848401111561119757600080fd5b6111a284828561195a565b509392505050565b6000813590506111b981611a28565b92915050565b6000815190506111ce81611a3f565b92915050565b6000813590506111e381611a56565b92915050565b600082601f8301126111fa57600080fd5b813561120a84826020860161116c565b91505092915050565b600060e0828403121561122557600080fd5b61122f60e06117b9565b9050600061123f848285016113cf565b60008301525060206112538482850161140e565b60208301525060406112678482850161140e565b604083015250606061127b8482850161140e565b606083015250608061128f8482850161140e565b60808301525060a06112a38482850161140e565b60a08301525060c06112b78482850161140e565b60c08301525092915050565b600061012082840312156112d657600080fd5b6112e16101206117b9565b905060006112f1848285016113e4565b6000830152506020611305848285016111d4565b6020830152506040611319848285016111d4565b604083015250606082013567ffffffffffffffff81111561133957600080fd5b611345848285016111e9565b606083015250608082013567ffffffffffffffff81111561136557600080fd5b611371848285016111e9565b60808301525060a0611385848285016113e4565b60a08301525060c0611399848285016113e4565b60c08301525060e06113ad848285016111aa565b60e0830152506101006113c2848285016111aa565b6101008301525092915050565b6000815190506113de81611a6d565b92915050565b6000813590506113f381611a84565b92915050565b60008151905061140881611a84565b92915050565b60008151905061141d81611a9b565b92915050565b60006020828403121561143557600080fd5b6000611443848285016111bf565b91505092915050565b600060e0828403121561145e57600080fd5b600061146c84828501611213565b91505092915050565b60006020828403121561148757600080fd5b600082013567ffffffffffffffff8111156114a157600080fd5b6114ad848285016112c3565b91505092915050565b6000602082840312156114c857600080fd5b60006114d6848285016113f9565b91505092915050565b600080604083850312156114f257600080fd5b6000611500858286016113e4565b925050602083013567ffffffffffffffff81111561151d57600080fd5b611529858286016111e9565b9150509250929050565b60008060006060848603121561154857600080fd5b6000611556868287016113e4565b935050602084013567ffffffffffffffff81111561157357600080fd5b61157f868287016111e9565b9250506040611590868287016111aa565b9150509250925092565b6115a3816118db565b82525050565b6115b2816118f9565b82525050565b60006115c560248361181a565b91507f596f752068617665206f6e6520756e66696e6973686564207472616e7361637460008301527f696f6e21000000000000000000000000000000000000000000000000000000006020830152604082019050919050565b60e08201600082015161163460008501826116ac565b50602082015161164760208501826116ca565b50604082015161165a60408501826116ca565b50606082015161166d60608501826116ca565b50608082015161168060808501826116ca565b5060a082015161169360a08501826116ca565b5060c08201516116a660c08501826116ca565b50505050565b6116b581611915565b82525050565b6116c481611943565b82525050565b6116d38161194d565b82525050565b60006060820190506116ee600083018661159a565b6116fb602083018561159a565b61170860408301846116bb565b949350505050565b6000604082019050611725600083018561159a565b61173260208301846115a9565b9392505050565b600060208201905061174e60008301846115a9565b92915050565b6000602082019050818103600083015261176d816115b8565b9050919050565b60006101c08201905061178a600083018561161e565b61179760e083018461161e565b9392505050565b60006020820190506117b360008301846116bb565b92915050565b6000604051905081810181811067ffffffffffffffff821117156117e0576117df6119f9565b5b8060405250919050565b600067ffffffffffffffff821115611805576118046119f9565b5b601f19601f8301169050602081019050919050565b600082825260208201905092915050565b600061183682611943565b915061184183611943565b9250827fffffffffffffffffffffffffffffffffffffffffffffffffffffffffffffffff038211156118765761187561199b565b5b828201905092915050565b600061188c82611943565b915061189783611943565b9250817fffffffffffffffffffffffffffffffffffffffffffffffffffffffffffffffff04831182151516156118d0576118cf61199b565b5b828202905092915050565b60006118e682611923565b9050919050565b60008115159050919050565b6000819050919050565b600061190e826118db565b9050919050565b600061ffff82169050919050565b600073ffffffffffffffffffffffffffffffffffffffff82169050919050565b6000819050919050565b600060ff82169050919050565b82818337600083830152505050565b6000600282049050600182168061198157607f821691505b60208210811415611995576119946119ca565b5b50919050565b7f4e487b7100000000000000000000000000000000000000000000000000000000600052601160045260246000fd5b7f4e487b7100000000000000000000000000000000000000000000000000000000600052602260045260246000fd5b7f4e487b7100000000000000000000000000000000000000000000000000000000600052604160045260246000fd5b611a31816118db565b8114611a3c57600080fd5b50565b611a48816118ed565b8114611a5357600080fd5b50565b611a5f81611903565b8114611a6a57600080fd5b50565b611a7681611915565b8114611a8157600080fd5b50565b611a8d81611943565b8114611a9857600080fd5b50565b611aa48161194d565b8114611aaf57600080fd5b5056fe608060405234801561001057600080fd5b50611ebd806100206000396000f3fe608060405234801561001057600080fd5b506004361061014d5760003560e01c80638c8d98a0116100c3578063b238ad0e1161007c578063b238ad0e14610464578063c986da5514610494578063d04e48f1146104c4578063e44f2111146104e0578063f4b8ef31146104fe578063fa93f883146105225761014d565b80638c8d98a0146103445780639054bdec1461037457806392d66313146103a4578063a324ad24146103d4578063a6f0e57714610404578063b1999937146104345761014d565b80635133ae24116101155780635133ae241461021e57806362ba96871461025457806365c72840146102845780637d44d284146102b45780637f791833146102e45780638aa001fc146103145761014d565b8063284343df146101525780633e239e1a146101705780634a39ad1d146101a05780634ac1ad78146101be5780634bb9b47d146101ee575b600080fd5b61015a610552565b6040516101679190611ae9565b60405180910390f35b61018a600480360381019061018591906118dc565b61055c565b6040516101979190611b04565b60405180910390f35b6101a8610589565b6040516101b59190611ae9565b60405180910390f35b6101d860048036038101906101d391906118dc565b61058f565b6040516101e59190611b04565b60405180910390f35b610208600480360381019061020391906116c4565b6105bf565b6040516102159190611ae9565b60405180910390f35b610238600480360381019061023391906118dc565b61063e565b60405161024b9796959493929190611a7a565b60405180910390f35b61026e600480360381019061026991906117dc565b6106dc565b60405161027b9190611ae9565b60405180910390f35b61029e600480360381019061029991906118dc565b6106f8565b6040516102ab9190611b04565b60405180910390f35b6102ce60048036038101906102c991906116c4565b61070e565b6040516102db9190611a44565b60405180910390f35b6102fe60048036038101906102f99190611779565b61079b565b60405161030b9190611ae9565b60405180910390f35b61032e600480360381019061032991906118dc565b6107b6565b60405161033b9190611b04565b60405180910390f35b61035e6004803603810190610359919061172a565b6107cc565b60405161036b9190611ae9565b60405180910390f35b61038e60048036038101906103899190611853565b6107e7565b60405161039b9190611ae9565b60405180910390f35b6103be60048036038101906103b991906118dc565b610d66565b6040516103cb9190611a5f565b60405180910390f35b6103ee60048036038101906103e991906118dc565b610e7d565b6040516103fb9190611b04565b60405180910390f35b61041e60048036038101906104199190611701565b610e93565b60405161042b9190611a29565b60405180910390f35b61044e600480360381019061044991906118dc565b610f02565b60405161045b9190611ae9565b60405180910390f35b61047e60048036038101906104799190611905565b610f56565b60405161048b9190611b04565b60405180910390f35b6104ae60048036038101906104a991906118dc565b611022565b6040516104bb9190611a44565b60405180910390f35b6104de60048036038101906104d991906118dc565b6110b8565b005b6104e86111b9565b6040516104f59190611a44565b60405180910390f35b6105066112a1565b6040516105199796959493929190611a7a565b60405180910390f35b61053c600480360381019061053791906118dc565b61132d565b6040516105499190611b04565b60405180910390f35b6000600454905090565b60006018603c808461056e9190611ba6565b6105789190611ba6565b6105829190611d84565b9050919050565b60045481565b60006007600462015180846105a49190611ba6565b6105ae9190611b50565b6105b89190611d84565b9050919050565b600082826105e9826000015183602001518460400151856060015186608001518760a001516107e7565b600081905550610615816000015182602001518360400151846060015185608001518660a001516107e7565b60018190555060005460015461062b9190611c65565b6002819055506002549250505092915050565b60056020528060005260406000206000915090508060000160009054906101000a900461ffff16908060000160029054906101000a900460ff16908060000160039054906101000a900460ff16908060000160049054906101000a900460ff16908060000160059054906101000a900460ff16908060000160069054906101000a900460ff16908060000160079054906101000a900460ff16905087565b60006106ed868686868660006107e7565b905095945050505050565b60006107038261134e565b604001519050919050565b61071661155f565b828261073e826000015183602001518460400151856060015186608001518760a001516107e7565b60008190555061076a816000015182602001518360400151846060015185608001518660a001516107e7565b6001819055506000546001546107809190611c65565b600281905550610791600254611022565b9250505092915050565b60006107ac858585856000806107e7565b9050949350505050565b6000603c826107c59190611d84565b9050919050565b60006107de84848460008060006107e7565b90509392505050565b6000806107b290505b8761ffff168161ffff16101561084b5761080981610e93565b15610825576301e285008261081e9190611b50565b9150610838565b6301e13380826108359190611b50565b91505b808061084390611cfe565b9150506107f0565b6108536115b2565b601f816000600c811061088f577f4e487b7100000000000000000000000000000000000000000000000000000000600052603260045260246000fd5b602002019060ff16908160ff16815250506108a989610e93565b1561090057601d816001600c81106108ea577f4e487b7100000000000000000000000000000000000000000000000000000000600052603260045260246000fd5b602002019060ff16908160ff168152505061094e565b601c816001600c811061093c577f4e487b7100000000000000000000000000000000000000000000000000000000600052603260045260246000fd5b602002019060ff16908160ff16815250505b601f816002600c811061098a577f4e487b7100000000000000000000000000000000000000000000000000000000600052603260045260246000fd5b602002019060ff16908160ff1681525050601e816003600c81106109d7577f4e487b7100000000000000000000000000000000000000000000000000000000600052603260045260246000fd5b602002019060ff16908160ff1681525050601f816004600c8110610a24577f4e487b7100000000000000000000000000000000000000000000000000000000600052603260045260246000fd5b602002019060ff16908160ff1681525050601e816005600c8110610a71577f4e487b7100000000000000000000000000000000000000000000000000000000600052603260045260246000fd5b602002019060ff16908160ff1681525050601f816006600c8110610abe577f4e487b7100000000000000000000000000000000000000000000000000000000600052603260045260246000fd5b602002019060ff16908160ff1681525050601f816007600c8110610b0b577f4e487b7100000000000000000000000000000000000000000000000000000000600052603260045260246000fd5b602002019060ff16908160ff1681525050601e816008600c8110610b58577f4e487b7100000000000000000000000000000000000000000000000000000000600052603260045260246000fd5b602002019060ff16908160ff1681525050601f816009600c8110610ba5577f4e487b7100000000000000000000000000000000000000000000000000000000600052603260045260246000fd5b602002019060ff16908160ff1681525050601e81600a600c8110610bf2577f4e487b7100000000000000000000000000000000000000000000000000000000600052603260045260246000fd5b602002019060ff16908160ff1681525050601f81600b600c8110610c3f577f4e487b7100000000000000000000000000000000000000000000000000000000600052603260045260246000fd5b602002019060ff16908160ff1681525050600191505b8760ff168261ffff161015610ce35780600183610c729190611c31565b61ffff16600c8110610cad577f4e487b7100000000000000000000000000000000000000000000000000000000600052603260045260246000fd5b602002015160ff1662015180610cc39190611bd7565b83610cce9190611b50565b92508180610cdb90611cfe565b925050610c55565b600187610cf09190611c99565b60ff1662015180610d019190611bd7565b83610d0c9190611b50565b92508560ff16610e10610d1f9190611bd7565b83610d2a9190611b50565b92508460ff16603c610d3c9190611bd7565b83610d479190611b50565b92508360ff1683610d589190611b50565b925050509695505050505050565b600080600090506000806301e1338085610d809190611ba6565b6107b261ffff16610d919190611b50565b9150610da26107b261ffff16610f02565b610daf8361ffff16610f02565b610db99190611c65565b9050806301e28500610dcb9190611bd7565b83610dd69190611b50565b9250806107b283610de79190611c31565b61ffff16610df59190611c65565b6301e13380610e049190611bd7565b83610e0f9190611b50565b92505b84831115610e7257610e2f600183610e2a9190611c31565b610e93565b15610e4b576301e2850083610e449190611c65565b9250610e5e565b6301e1338083610e5b9190611c65565b92505b600182610e6b9190611c31565b9150610e12565b819350505050919050565b6000610e888261134e565b602001519050919050565b600080600483610ea39190611d53565b61ffff1614610eb55760009050610efd565b6000606483610ec49190611d53565b61ffff1614610ed65760019050610efd565b600061019083610ee69190611d53565b61ffff1614610ef85760009050610efd565b600190505b919050565b6000600182610f119190611c65565b915061019082610f219190611ba6565b606483610f2e9190611ba6565b600484610f3b9190611ba6565b610f459190611c65565b610f4f9190611b50565b9050919050565b600060018360ff161480610f6d575060038360ff16145b80610f7b575060058360ff16145b80610f89575060078360ff16145b80610f97575060088360ff16145b80610fa55750600a8360ff16145b80610fb35750600c8360ff16145b15610fc157601f905061101c565b60048360ff161480610fd6575060068360ff16145b80610fe4575060098360ff16145b80610ff25750600b8360ff16145b1561100057601e905061101c565b61100982610e93565b1561101757601d905061101c565b601c90505b92915050565b61102a61155f565b60006040518060e0016040528061104085610d66565b61ffff16815260200161105285610e7d565b60ff168152602001611063856106f8565b60ff1681526020016110748561055c565b60ff1681526020016110858561132d565b60ff168152602001611096856107b6565b60ff1681526020016110a78561058f565b60ff16815250905080915050919050565b6110c181611022565b600360008201518160000160006101000a81548161ffff021916908361ffff16021790555060208201518160000160026101000a81548160ff021916908360ff16021790555060408201518160000160036101000a81548160ff021916908360ff16021790555060608201518160000160046101000a81548160ff021916908360ff16021790555060808201518160000160056101000a81548160ff021916908360ff16021790555060a08201518160000160066101000a81548160ff021916908360ff16021790555060c08201518160000160076101000a81548160ff021916908360ff1602179055509050508060048190555050565b6111c161155f565b60036040518060e00160405290816000820160009054906101000a900461ffff1661ffff1661ffff1681526020016000820160029054906101000a900460ff1660ff1660ff1681526020016000820160039054906101000a900460ff1660ff1660ff1681526020016000820160049054906101000a900460ff1660ff1660ff1681526020016000820160059054906101000a900460ff1660ff1660ff1681526020016000820160069054906101000a900460ff1660ff1660ff1681526020016000820160079054906101000a900460ff1660ff1660ff1681525050905090565b60038060000160009054906101000a900461ffff16908060000160029054906101000a900460ff16908060000160039054906101000a900460ff16908060000160049054906101000a900460ff16908060000160059054906101000a900460ff16908060000160069054906101000a900460ff16908060000160079054906101000a900460ff16905087565b6000603c808361133d9190611ba6565b6113479190611d84565b9050919050565b61135661155f565b6000808061136385610d66565b846000019061ffff16908161ffff16815250506113856107b261ffff16610f02565b611396856000015161ffff16610f02565b6113a09190611c65565b9150816301e285006113b29190611bd7565b836113bd9190611b50565b9250816107b285600001516113d29190611c31565b61ffff166113e09190611c65565b6301e133806113ef9190611bd7565b836113fa9190611b50565b92506000600191505b600c8260ff161161147a5761141c828660000151610f56565b60ff166201518061142d9190611bd7565b905085848261143c9190611b50565b11156114595781856020019060ff16908160ff168152505061147a565b80846114659190611b50565b9350818061147290611d29565b925050611403565b600191505b61149185602001518660000151610f56565b60ff168260ff16116114ee578584620151806114ad9190611b50565b11156114ca5781856040019060ff16908160ff16815250506114ee565b62015180846114d99190611b50565b935081806114e690611d29565b92505061147f565b6114f78661055c565b856060019060ff16908160ff16815250506115118661132d565b856080019060ff16908160ff168152505061152b866107b6565b8560a0019060ff16908160ff16815250506115458661058f565b8560c0019060ff16908160ff168152505050505050919050565b6040518060e00160405280600061ffff168152602001600060ff168152602001600060ff168152602001600060ff168152602001600060ff168152602001600060ff168152602001600060ff1681525090565b604051806101800160405280600c90602082028036833780820191505090505090565b600060e082840312156115e757600080fd5b6115f160e0611b1f565b9050600061160184828501611685565b6000830152506020611615848285016116af565b6020830152506040611629848285016116af565b604083015250606061163d848285016116af565b6060830152506080611651848285016116af565b60808301525060a0611665848285016116af565b60a08301525060c0611679848285016116af565b60c08301525092915050565b60008135905061169481611e42565b92915050565b6000813590506116a981611e59565b92915050565b6000813590506116be81611e70565b92915050565b6000806101c083850312156116d857600080fd5b60006116e6858286016115d5565b92505060e06116f7858286016115d5565b9150509250929050565b60006020828403121561171357600080fd5b600061172184828501611685565b91505092915050565b60008060006060848603121561173f57600080fd5b600061174d86828701611685565b935050602061175e868287016116af565b925050604061176f868287016116af565b9150509250925092565b6000806000806080858703121561178f57600080fd5b600061179d87828801611685565b94505060206117ae878288016116af565b93505060406117bf878288016116af565b92505060606117d0878288016116af565b91505092959194509250565b600080600080600060a086880312156117f457600080fd5b600061180288828901611685565b9550506020611813888289016116af565b9450506040611824888289016116af565b9350506060611835888289016116af565b9250506080611846888289016116af565b9150509295509295909350565b60008060008060008060c0878903121561186c57600080fd5b600061187a89828a01611685565b965050602061188b89828a016116af565b955050604061189c89828a016116af565b94505060606118ad89828a016116af565b93505060806118be89828a016116af565b92505060a06118cf89828a016116af565b9150509295509295509295565b6000602082840312156118ee57600080fd5b60006118fc8482850161169a565b91505092915050565b6000806040838503121561191857600080fd5b6000611926858286016116af565b925050602061193785828601611685565b9150509250929050565b61194a81611ccd565b82525050565b60e08201600082015161196660008501826119de565b5060208201516119796020850182611a0b565b50604082015161198c6040850182611a0b565b50606082015161199f6060850182611a0b565b5060808201516119b26080850182611a0b565b5060a08201516119c560a0850182611a0b565b5060c08201516119d860c0850182611a0b565b50505050565b6119e781611cd9565b82525050565b6119f681611cd9565b82525050565b611a0581611ce7565b82525050565b611a1481611cf1565b82525050565b611a2381611cf1565b82525050565b6000602082019050611a3e6000830184611941565b92915050565b600060e082019050611a596000830184611950565b92915050565b6000602082019050611a7460008301846119ed565b92915050565b600060e082019050611a8f600083018a6119ed565b611a9c6020830189611a1a565b611aa96040830188611a1a565b611ab66060830187611a1a565b611ac36080830186611a1a565b611ad060a0830185611a1a565b611add60c0830184611a1a565b98975050505050505050565b6000602082019050611afe60008301846119fc565b92915050565b6000602082019050611b196000830184611a1a565b92915050565b6000604051905081810181811067ffffffffffffffff82111715611b4657611b45611e13565b5b8060405250919050565b6000611b5b82611ce7565b9150611b6683611ce7565b9250827fffffffffffffffffffffffffffffffffffffffffffffffffffffffffffffffff03821115611b9b57611b9a611db5565b5b828201905092915050565b6000611bb182611ce7565b9150611bbc83611ce7565b925082611bcc57611bcb611de4565b5b828204905092915050565b6000611be282611ce7565b9150611bed83611ce7565b9250817fffffffffffffffffffffffffffffffffffffffffffffffffffffffffffffffff0483118215151615611c2657611c25611db5565b5b828202905092915050565b6000611c3c82611cd9565b9150611c4783611cd9565b925082821015611c5a57611c59611db5565b5b828203905092915050565b6000611c7082611ce7565b9150611c7b83611ce7565b925082821015611c8e57611c8d611db5565b5b828203905092915050565b6000611ca482611cf1565b9150611caf83611cf1565b925082821015611cc257611cc1611db5565b5b828203905092915050565b60008115159050919050565b600061ffff82169050919050565b6000819050919050565b600060ff82169050919050565b6000611d0982611cd9565b915061ffff821415611d1e57611d1d611db5565b5b600182019050919050565b6000611d3482611cf1565b915060ff821415611d4857611d47611db5565b5b600182019050919050565b6000611d5e82611cd9565b9150611d6983611cd9565b925082611d7957611d78611de4565b5b828206905092915050565b6000611d8f82611ce7565b9150611d9a83611ce7565b925082611daa57611da9611de4565b5b828206905092915050565b7f4e487b7100000000000000000000000000000000000000000000000000000000600052601160045260246000fd5b7f4e487b7100000000000000000000000000000000000000000000000000000000600052601260045260246000fd5b7f4e487b7100000000000000000000000000000000000000000000000000000000600052604160045260246000fd5b611e4b81611cd9565b8114611e5657600080fd5b50565b611e6281611ce7565b8114611e6d57600080fd5b50565b611e7981611cf1565b8114611e8457600080fd5b5056fea264697066735822122087858e6b0358db4a500d6a76f699c2001274df2f2ffc2fe64ea99dfa66a51e2764736f6c63430008000033a26469706673582212208429c203d1f6763ea412ed82527b5ab85e7c341b9881be0d3a508f69055a95d764736f6c63430008000033",
  "immutableReferences": {},
  "source": "pragma solidity ^0.8.0;\r\n\r\n//import \"./User.sol\";\r\nimport \"./Datetime.sol\";\r\nimport \"./UnicInterface.sol\";\r\n\r\ncontract Bicycle{\r\n\r\n    //using Datetime for Datetime;\r\n    uint256 private transactionCounter = 0;\r\n    abstractBicycleInfo public BicycleInfo;\r\n    uint256 public fee = 10;\r\n    \r\n    bool AllPreviousTransactionsClosed = true; \r\n    \r\n    UNICOIN unicoinInBicycle;\r\n    \r\n    constructor(address _owner_address, address UNICOINaddress) {\r\n        BicycleInfo.owner = _owner_address;\r\n        BicycleInfo.bicycleId = keccak256(abi.encodePacked(_owner_address));\r\n        unicoinInBicycle = UNICOIN(UNICOINaddress);\r\n    }\r\n    \r\n    struct transaction{\r\n        uint256 transactionID;\r\n        DateTime openTime;\r\n        DateTime closeTime;\r\n        string openLoc;\r\n        string closeLoc; \r\n        uint256 fee_rate;\r\n        uint totalFee;\r\n        address borrower;\r\n        address lender;\r\n    }\r\n    \r\n    struct abstractBicycleInfo{\r\n        address owner;\r\n        bytes32 bicycleId;\r\n        transaction[] transactionHistory;\r\n    }\r\n    \r\n    function getBicycleID() public returns (bytes32){\r\n        return BicycleInfo.bicycleId;\r\n    }\r\n    \r\n    \r\n    function openTransaction(uint256 _timeStamp, string memory _location, address _borrower) public{\r\n        require(AllPreviousTransactionsClosed == true, \"You have one unfinished transaction!\");\r\n        DateTime openTime = new DateTime();\r\n        openTime.setDate(_timeStamp);\r\n        \r\n        DateTime closeTime = new DateTime();\r\n        closeTime.setDate(_timeStamp);\r\n        transaction memory new_transaction = transaction(transactionCounter, openTime, closeTime,\r\n        _location, _location, 10, 0, _borrower, BicycleInfo.owner);\r\n        BicycleInfo.transactionHistory.push(new_transaction);\r\n        AllPreviousTransactionsClosed = false;\r\n    }\r\n    \r\n    function closeTransaction(uint256 _timeStamp, string memory _location) public{\r\n        BicycleInfo.transactionHistory[transactionCounter].closeTime.setDate(_timeStamp);\r\n        BicycleInfo.transactionHistory[transactionCounter].closeLoc = _location;\r\n        BicycleInfo.transactionHistory[transactionCounter].totalFee = getTotalFee(BicycleInfo.transactionHistory[transactionCounter]);\r\n        transaction memory my_transaction = BicycleInfo.transactionHistory[transactionCounter];\r\n        UNICOIN(unicoinInBicycle).transfer(my_transaction.borrower, my_transaction.lender, my_transaction.totalFee);\r\n        transactionCounter = transactionCounter + 1;\r\n        AllPreviousTransactionsClosed = true;\r\n    }\r\n    \r\n    function getTotalFee(transaction memory my_transaction) public returns (uint){\r\n        DateTime differenceTime = new DateTime();\r\n        differenceTime.\r\n            setDate(\r\n                    differenceTime.getDifferenceinTimeStamp(\r\n                        my_transaction.openTime.getMyDatetime(),\r\n                        my_transaction.closeTime.getMyDatetime()\r\n                )\r\n            );\r\n        return differenceTime.getMytimestamp()*fee;\r\n    }\r\n    \r\n}",
  "sourcePath": "C:/Users/Dell/Desktop/Olzhas/Summer2021/UNICOIN/contracts/Bicycle.sol",
  "compiler": {
    "name": "solc",
    "version": "0.8.0+commit.c7dfd78e.Emscripten.clang"
  },
  "schemaVersion": "3.4.1",
  "updatedAt": "2021-07-10T08:45:23.233Z",
  "devdoc": {
    "kind": "dev",
    "methods": {},
    "version": 1
  },
  "userdoc": {
    "kind": "user",
    "methods": {},
    "version": 1
  }
}