{
  "contractName": "Bicycle",
  "abi": [
    {
      "inputs": [
        {
          "internalType": "address",
          "name": "_owner_address",
          "type": "address"
        },
        {
          "internalType": "address",
          "name": "UNICOINaddress",
          "type": "address"
        },
        {
          "internalType": "uint256",
          "name": "_fee",
          "type": "uint256"
        }
      ],
      "stateMutability": "nonpayable",
      "type": "constructor"
    },
    {
      "inputs": [],
      "name": "BicycleInfo",
      "outputs": [
        {
          "internalType": "address",
          "name": "owner",
          "type": "address"
        },
        {
          "internalType": "bytes32",
          "name": "bicycleId",
          "type": "bytes32"
        }
      ],
      "stateMutability": "view",
      "type": "function"
    },
    {
      "inputs": [],
      "name": "fee",
      "outputs": [
        {
          "internalType": "uint256",
          "name": "",
          "type": "uint256"
        }
      ],
      "stateMutability": "view",
      "type": "function"
    },
    {
      "inputs": [],
      "name": "getBicycleID",
      "outputs": [
        {
          "internalType": "bytes32",
          "name": "",
          "type": "bytes32"
        }
      ],
      "stateMutability": "nonpayable",
      "type": "function"
    },
    {
      "inputs": [
        {
          "internalType": "uint256",
          "name": "_latitude",
          "type": "uint256"
        },
        {
          "internalType": "uint256",
          "name": "_longitude",
          "type": "uint256"
        },
        {
          "internalType": "uint256",
          "name": "_timeStamp",
          "type": "uint256"
        },
        {
          "internalType": "address",
          "name": "_borrower",
          "type": "address"
        }
      ],
      "name": "openTransaction",
      "outputs": [],
      "stateMutability": "nonpayable",
      "type": "function"
    },
    {
      "inputs": [
        {
          "internalType": "uint256",
          "name": "_latitude",
          "type": "uint256"
        },
        {
          "internalType": "uint256",
          "name": "_longitude",
          "type": "uint256"
        },
        {
          "internalType": "uint256",
          "name": "_timeStamp",
          "type": "uint256"
        }
      ],
      "name": "closeTransaction",
      "outputs": [
        {
          "internalType": "uint256",
          "name": "",
          "type": "uint256"
        },
        {
          "internalType": "uint256",
          "name": "",
          "type": "uint256"
        },
        {
          "internalType": "uint256",
          "name": "",
          "type": "uint256"
        },
        {
          "internalType": "uint256",
          "name": "",
          "type": "uint256"
        },
        {
          "internalType": "uint256",
          "name": "",
          "type": "uint256"
        }
      ],
      "stateMutability": "nonpayable",
      "type": "function"
    },
    {
      "inputs": [],
      "name": "getCloseTransactionDetails",
      "outputs": [
        {
          "internalType": "uint256",
          "name": "",
          "type": "uint256"
        },
        {
          "internalType": "uint256",
          "name": "",
          "type": "uint256"
        },
        {
          "internalType": "uint256",
          "name": "",
          "type": "uint256"
        },
        {
          "internalType": "uint256",
          "name": "",
          "type": "uint256"
        },
        {
          "internalType": "address",
          "name": "",
          "type": "address"
        },
        {
          "internalType": "address",
          "name": "",
          "type": "address"
        }
      ],
      "stateMutability": "nonpayable",
      "type": "function"
    },
    {
      "inputs": [
        {
          "components": [
            {
              "internalType": "uint256",
              "name": "transactionID",
              "type": "uint256"
            },
            {
              "internalType": "uint256",
              "name": "Openlatitude",
              "type": "uint256"
            },
            {
              "internalType": "uint256",
              "name": "Openlongitude",
              "type": "uint256"
            },
            {
              "internalType": "uint256",
              "name": "Closelatitude",
              "type": "uint256"
            },
            {
              "internalType": "uint256",
              "name": "Closelongitude",
              "type": "uint256"
            },
            {
              "internalType": "contract DateTime",
              "name": "openTime",
              "type": "address"
            },
            {
              "internalType": "contract DateTime",
              "name": "closeTime",
              "type": "address"
            },
            {
              "internalType": "uint256",
              "name": "fee_rate",
              "type": "uint256"
            },
            {
              "internalType": "uint256",
              "name": "totalFee",
              "type": "uint256"
            },
            {
              "internalType": "address",
              "name": "borrower",
              "type": "address"
            },
            {
              "internalType": "address",
              "name": "lender",
              "type": "address"
            }
          ],
          "internalType": "struct Bicycle.transaction",
          "name": "my_transaction",
          "type": "tuple"
        }
      ],
      "name": "getTotalFee",
      "outputs": [
        {
          "internalType": "uint256",
          "name": "",
          "type": "uint256"
        }
      ],
      "stateMutability": "nonpayable",
      "type": "function"
    }
  ],
  "bytecode": "0x6080604052600080556001600560006101000a81548160ff0219169083151502179055503480156200003057600080fd5b5060405162003d3f38038062003d3f83398181016040528101906200005691906200014a565b82600160000160006101000a81548173ffffffffffffffffffffffffffffffffffffffff021916908373ffffffffffffffffffffffffffffffffffffffff16021790555082604051602001620000ad9190620001bb565b60405160208183030381529060405280519060200120600180018190555081600560016101000a81548173ffffffffffffffffffffffffffffffffffffffff021916908373ffffffffffffffffffffffffffffffffffffffff160217905550806004819055505050506200027f565b6000815190506200012d816200024b565b92915050565b600081519050620001448162000265565b92915050565b6000806000606084860312156200016057600080fd5b600062000170868287016200011c565b935050602062000183868287016200011c565b9250506040620001968682870162000133565b9150509250925092565b620001b5620001af82620001d8565b62000216565b82525050565b6000620001c98284620001a0565b60148201915081905092915050565b6000620001e582620001ec565b9050919050565b600073ffffffffffffffffffffffffffffffffffffffff82169050919050565b6000819050919050565b600062000223826200022a565b9050919050565b600062000237826200023e565b9050919050565b60008160601b9050919050565b6200025681620001d8565b81146200026257600080fd5b50565b62000270816200020c565b81146200027c57600080fd5b50565b613ab0806200028f6000396000f3fe608060405234801561001057600080fd5b506004361061007d5760003560e01c8063c38843ad1161005b578063c38843ad146100e0578063ddca3f4314610110578063df942ba91461012e578063ea487fe5146101625761007d565b80631a0ec969146100825780636958d32b146100a1578063bdc7f4c2146100c4575b600080fd5b61008a610180565b6040516100989291906117e7565b60405180910390f35b6100a96101b2565b6040516100bb96959493929190611890565b60405180910390f35b6100de60048036038101906100d9919061160e565b610370565b005b6100fa60048036038101906100f5919061156c565b61078a565b6040516101079190611875565b60405180910390f35b610118610a4a565b6040516101259190611875565b60405180910390f35b610148600480360381019061014391906115bf565b610a50565b6040516101599594939291906118f1565b60405180910390f35b61016a6112b6565b6040516101779190611810565b60405180910390f35b60018060000160009054906101000a900473ffffffffffffffffffffffffffffffffffffffff16908060010154905082565b600080600080600080600660050160009054906101000a900473ffffffffffffffffffffffffffffffffffffffff1673ffffffffffffffffffffffffffffffffffffffff1663284343df6040518163ffffffff1660e01b8152600401602060405180830381600087803b15801561022857600080fd5b505af115801561023c573d6000803e3d6000fd5b505050506040513d601f19601f820116820180604052508101906102609190611596565b6006800160009054906101000a900473ffffffffffffffffffffffffffffffffffffffff1673ffffffffffffffffffffffffffffffffffffffff1663284343df6040518163ffffffff1660e01b8152600401602060405180830381600087803b1580156102cc57600080fd5b505af11580156102e0573d6000803e3d6000fd5b505050506040513d601f19601f820116820180604052508101906103049190611596565b600660070154600660080154600660090160009054906101000a900473ffffffffffffffffffffffffffffffffffffffff166006600a0160009054906101000a900473ffffffffffffffffffffffffffffffffffffffff16955095509550955095509550909192939495565b60006006905060011515600560009054906101000a900460ff161515146103cc576040517f08c379a00000000000000000000000000000000000000000000000000000000081526004016103c39061182b565b60405180910390fd5b60006040516103da906112c2565b604051809103906000f0801580156103f6573d6000803e3d6000fd5b5090508073ffffffffffffffffffffffffffffffffffffffff1663d04e48f1856040518263ffffffff1660e01b81526004016104329190611875565b600060405180830381600087803b15801561044c57600080fd5b505af1158015610460573d6000803e3d6000fd5b505050506000604051610472906112c2565b604051809103906000f08015801561048e573d6000803e3d6000fd5b5090508073ffffffffffffffffffffffffffffffffffffffff1663d04e48f1866040518263ffffffff1660e01b81526004016104ca9190611875565b600060405180830381600087803b1580156104e457600080fd5b505af11580156104f8573d6000803e3d6000fd5b505050506000604051806101600160405280600054815260200189815260200188815260200160008152602001600081526020018473ffffffffffffffffffffffffffffffffffffffff1681526020018373ffffffffffffffffffffffffffffffffffffffff168152602001600a8152602001600081526020018673ffffffffffffffffffffffffffffffffffffffff168152602001600160000160009054906101000a900473ffffffffffffffffffffffffffffffffffffffff1673ffffffffffffffffffffffffffffffffffffffff16815250905060016002018190806001815401808255809150506001900390600052602060002090600b0201600090919091909150600082015181600001556020820151816001015560408201518160020155606082015181600301556080820151816004015560a08201518160050160006101000a81548173ffffffffffffffffffffffffffffffffffffffff021916908373ffffffffffffffffffffffffffffffffffffffff16021790555060c08201518160060160006101000a81548173ffffffffffffffffffffffffffffffffffffffff021916908373ffffffffffffffffffffffffffffffffffffffff16021790555060e0820151816007015561010082015181600801556101208201518160090160006101000a81548173ffffffffffffffffffffffffffffffffffffffff021916908373ffffffffffffffffffffffffffffffffffffffff16021790555061014082015181600a0160006101000a81548173ffffffffffffffffffffffffffffffffffffffff021916908373ffffffffffffffffffffffffffffffffffffffff16021790555050506000600560006101000a81548160ff0219169083151502179055505050505050505050565b600080604051610799906112c2565b604051809103906000f0801580156107b5573d6000803e3d6000fd5b5090508073ffffffffffffffffffffffffffffffffffffffff1663d04e48f18273ffffffffffffffffffffffffffffffffffffffff16634bb9b47d8660a0015173ffffffffffffffffffffffffffffffffffffffff1663e44f21116040518163ffffffff1660e01b815260040160e060405180830381600087803b15801561083c57600080fd5b505af1158015610850573d6000803e3d6000fd5b505050506040513d601f19601f820116820180604052508101906108749190611543565b8760c0015173ffffffffffffffffffffffffffffffffffffffff1663e44f21116040518163ffffffff1660e01b815260040160e060405180830381600087803b1580156108c057600080fd5b505af11580156108d4573d6000803e3d6000fd5b505050506040513d601f19601f820116820180604052508101906108f89190611543565b6040518363ffffffff1660e01b815260040161091592919061184b565b602060405180830381600087803b15801561092f57600080fd5b505af1158015610943573d6000803e3d6000fd5b505050506040513d601f19601f820116820180604052508101906109679190611596565b6040518263ffffffff1660e01b81526004016109839190611875565b600060405180830381600087803b15801561099d57600080fd5b505af11580156109b1573d6000803e3d6000fd5b505050506004548173ffffffffffffffffffffffffffffffffffffffff1663284343df6040518163ffffffff1660e01b8152600401602060405180830381600087803b158015610a0057600080fd5b505af1158015610a14573d6000803e3d6000fd5b505050506040513d601f19601f82011682018060405250810190610a389190611596565b610a4291906119dc565b915050919050565b60045481565b6000806000806000600160020160005481548110610a97577f4e487b7100000000000000000000000000000000000000000000000000000000600052603260045260246000fd5b90600052602060002090600b020160060160009054906101000a900473ffffffffffffffffffffffffffffffffffffffff1673ffffffffffffffffffffffffffffffffffffffff1663d04e48f1876040518263ffffffff1660e01b8152600401610b019190611875565b600060405180830381600087803b158015610b1b57600080fd5b505af1158015610b2f573d6000803e3d6000fd5b50505050610d32600160020160005481548110610b75577f4e487b7100000000000000000000000000000000000000000000000000000000600052603260045260246000fd5b90600052602060002090600b02016040518061016001604052908160008201548152602001600182015481526020016002820154815260200160038201548152602001600482015481526020016005820160009054906101000a900473ffffffffffffffffffffffffffffffffffffffff1673ffffffffffffffffffffffffffffffffffffffff1673ffffffffffffffffffffffffffffffffffffffff1681526020016006820160009054906101000a900473ffffffffffffffffffffffffffffffffffffffff1673ffffffffffffffffffffffffffffffffffffffff1673ffffffffffffffffffffffffffffffffffffffff16815260200160078201548152602001600882015481526020016009820160009054906101000a900473ffffffffffffffffffffffffffffffffffffffff1673ffffffffffffffffffffffffffffffffffffffff1673ffffffffffffffffffffffffffffffffffffffff168152602001600a820160009054906101000a900473ffffffffffffffffffffffffffffffffffffffff1673ffffffffffffffffffffffffffffffffffffffff1673ffffffffffffffffffffffffffffffffffffffff168152505061078a565b600160020160005481548110610d71577f4e487b7100000000000000000000000000000000000000000000000000000000600052603260045260246000fd5b90600052602060002090600b02016008018190555087600160020160005481548110610dc6577f4e487b7100000000000000000000000000000000000000000000000000000000600052603260045260246000fd5b90600052602060002090600b02016003018190555086600160020160005481548110610e1b577f4e487b7100000000000000000000000000000000000000000000000000000000600052603260045260246000fd5b90600052602060002090600b0201600401819055506000600160020160005481548110610e71577f4e487b7100000000000000000000000000000000000000000000000000000000600052603260045260246000fd5b90600052602060002090600b02016040518061016001604052908160008201548152602001600182015481526020016002820154815260200160038201548152602001600482015481526020016005820160009054906101000a900473ffffffffffffffffffffffffffffffffffffffff1673ffffffffffffffffffffffffffffffffffffffff1673ffffffffffffffffffffffffffffffffffffffff1681526020016006820160009054906101000a900473ffffffffffffffffffffffffffffffffffffffff1673ffffffffffffffffffffffffffffffffffffffff1673ffffffffffffffffffffffffffffffffffffffff16815260200160078201548152602001600882015481526020016009820160009054906101000a900473ffffffffffffffffffffffffffffffffffffffff1673ffffffffffffffffffffffffffffffffffffffff1673ffffffffffffffffffffffffffffffffffffffff168152602001600a820160009054906101000a900473ffffffffffffffffffffffffffffffffffffffff1673ffffffffffffffffffffffffffffffffffffffff1673ffffffffffffffffffffffffffffffffffffffff16815250509050806006600082015181600001556020820151816001015560408201518160020155606082015181600301556080820151816004015560a08201518160050160006101000a81548173ffffffffffffffffffffffffffffffffffffffff021916908373ffffffffffffffffffffffffffffffffffffffff16021790555060c08201518160060160006101000a81548173ffffffffffffffffffffffffffffffffffffffff021916908373ffffffffffffffffffffffffffffffffffffffff16021790555060e0820151816007015561010082015181600801556101208201518160090160006101000a81548173ffffffffffffffffffffffffffffffffffffffff021916908373ffffffffffffffffffffffffffffffffffffffff16021790555061014082015181600a0160006101000a81548173ffffffffffffffffffffffffffffffffffffffff021916908373ffffffffffffffffffffffffffffffffffffffff160217905550905050600560019054906101000a900473ffffffffffffffffffffffffffffffffffffffff1673ffffffffffffffffffffffffffffffffffffffff1663beabacc88261012001518361014001518461010001516040518463ffffffff1660e01b8152600401611204939291906117b0565b602060405180830381600087803b15801561121e57600080fd5b505af1158015611232573d6000803e3d6000fd5b505050506040513d601f19601f82011682018060405250810190611256919061151a565b5060016000546112669190611986565b6000819055506001600560006101000a81548160ff021916908315150217905550806000015181602001518260400151836060015184608001519550955095509550955050939792965093509350565b60006001800154905090565b611edd80611b9e83390190565b6000813590506112de81611b13565b92915050565b6000815190506112f381611b2a565b92915050565b60008135905061130881611b41565b92915050565b600060e0828403121561132057600080fd5b61132a60e0611944565b9050600061133a848285016114c6565b600083015250602061134e84828501611505565b602083015250604061136284828501611505565b604083015250606061137684828501611505565b606083015250608061138a84828501611505565b60808301525060a061139e84828501611505565b60a08301525060c06113b284828501611505565b60c08301525092915050565b600061016082840312156113d157600080fd5b6113dc610160611944565b905060006113ec848285016114db565b6000830152506020611400848285016114db565b6020830152506040611414848285016114db565b6040830152506060611428848285016114db565b606083015250608061143c848285016114db565b60808301525060a0611450848285016112f9565b60a08301525060c0611464848285016112f9565b60c08301525060e0611478848285016114db565b60e08301525061010061148d848285016114db565b610100830152506101206114a3848285016112cf565b610120830152506101406114b9848285016112cf565b6101408301525092915050565b6000815190506114d581611b58565b92915050565b6000813590506114ea81611b6f565b92915050565b6000815190506114ff81611b6f565b92915050565b60008151905061151481611b86565b92915050565b60006020828403121561152c57600080fd5b600061153a848285016112e4565b91505092915050565b600060e0828403121561155557600080fd5b60006115638482850161130e565b91505092915050565b6000610160828403121561157f57600080fd5b600061158d848285016113be565b91505092915050565b6000602082840312156115a857600080fd5b60006115b6848285016114f0565b91505092915050565b6000806000606084860312156115d457600080fd5b60006115e2868287016114db565b93505060206115f3868287016114db565b9250506040611604868287016114db565b9150509250925092565b6000806000806080858703121561162457600080fd5b6000611632878288016114db565b9450506020611643878288016114db565b9350506040611654878288016114db565b9250506060611665878288016112cf565b91505092959194509250565b61167a81611a36565b82525050565b61168981611a54565b82525050565b600061169c602483611975565b91507f596f752068617665206f6e6520756e66696e6973686564207472616e7361637460008301527f696f6e21000000000000000000000000000000000000000000000000000000006020830152604082019050919050565b60e08201600082015161170b6000850182611783565b50602082015161171e60208501826117a1565b50604082015161173160408501826117a1565b50606082015161174460608501826117a1565b50608082015161175760808501826117a1565b5060a082015161176a60a08501826117a1565b5060c082015161177d60c08501826117a1565b50505050565b61178c81611a70565b82525050565b61179b81611a9e565b82525050565b6117aa81611aa8565b82525050565b60006060820190506117c56000830186611671565b6117d26020830185611671565b6117df6040830184611792565b949350505050565b60006040820190506117fc6000830185611671565b6118096020830184611680565b9392505050565b60006020820190506118256000830184611680565b92915050565b600060208201905081810360008301526118448161168f565b9050919050565b60006101c08201905061186160008301856116f5565b61186e60e08301846116f5565b9392505050565b600060208201905061188a6000830184611792565b92915050565b600060c0820190506118a56000830189611792565b6118b26020830188611792565b6118bf6040830187611792565b6118cc6060830186611792565b6118d96080830185611671565b6118e660a0830184611671565b979650505050505050565b600060a0820190506119066000830188611792565b6119136020830187611792565b6119206040830186611792565b61192d6060830185611792565b61193a6080830184611792565b9695505050505050565b6000604051905081810181811067ffffffffffffffff8211171561196b5761196a611ae4565b5b8060405250919050565b600082825260208201905092915050565b600061199182611a9e565b915061199c83611a9e565b9250827fffffffffffffffffffffffffffffffffffffffffffffffffffffffffffffffff038211156119d1576119d0611ab5565b5b828201905092915050565b60006119e782611a9e565b91506119f283611a9e565b9250817fffffffffffffffffffffffffffffffffffffffffffffffffffffffffffffffff0483118215151615611a2b57611a2a611ab5565b5b828202905092915050565b6000611a4182611a7e565b9050919050565b60008115159050919050565b6000819050919050565b6000611a6982611a36565b9050919050565b600061ffff82169050919050565b600073ffffffffffffffffffffffffffffffffffffffff82169050919050565b6000819050919050565b600060ff82169050919050565b7f4e487b7100000000000000000000000000000000000000000000000000000000600052601160045260246000fd5b7f4e487b7100000000000000000000000000000000000000000000000000000000600052604160045260246000fd5b611b1c81611a36565b8114611b2757600080fd5b50565b611b3381611a48565b8114611b3e57600080fd5b50565b611b4a81611a5e565b8114611b5557600080fd5b50565b611b6181611a70565b8114611b6c57600080fd5b50565b611b7881611a9e565b8114611b8357600080fd5b50565b611b8f81611aa8565b8114611b9a57600080fd5b5056fe608060405234801561001057600080fd5b50611ebd806100206000396000f3fe608060405234801561001057600080fd5b506004361061014d5760003560e01c80638c8d98a0116100c3578063b238ad0e1161007c578063b238ad0e14610464578063c986da5514610494578063d04e48f1146104c4578063e44f2111146104e0578063f4b8ef31146104fe578063fa93f883146105225761014d565b80638c8d98a0146103445780639054bdec1461037457806392d66313146103a4578063a324ad24146103d4578063a6f0e57714610404578063b1999937146104345761014d565b80635133ae24116101155780635133ae241461021e57806362ba96871461025457806365c72840146102845780637d44d284146102b45780637f791833146102e45780638aa001fc146103145761014d565b8063284343df146101525780633e239e1a146101705780634a39ad1d146101a05780634ac1ad78146101be5780634bb9b47d146101ee575b600080fd5b61015a610552565b6040516101679190611ae9565b60405180910390f35b61018a600480360381019061018591906118dc565b61055c565b6040516101979190611b04565b60405180910390f35b6101a8610589565b6040516101b59190611ae9565b60405180910390f35b6101d860048036038101906101d391906118dc565b61058f565b6040516101e59190611b04565b60405180910390f35b610208600480360381019061020391906116c4565b6105bf565b6040516102159190611ae9565b60405180910390f35b610238600480360381019061023391906118dc565b61063e565b60405161024b9796959493929190611a7a565b60405180910390f35b61026e600480360381019061026991906117dc565b6106dc565b60405161027b9190611ae9565b60405180910390f35b61029e600480360381019061029991906118dc565b6106f8565b6040516102ab9190611b04565b60405180910390f35b6102ce60048036038101906102c991906116c4565b61070e565b6040516102db9190611a44565b60405180910390f35b6102fe60048036038101906102f99190611779565b61079b565b60405161030b9190611ae9565b60405180910390f35b61032e600480360381019061032991906118dc565b6107b6565b60405161033b9190611b04565b60405180910390f35b61035e6004803603810190610359919061172a565b6107cc565b60405161036b9190611ae9565b60405180910390f35b61038e60048036038101906103899190611853565b6107e7565b60405161039b9190611ae9565b60405180910390f35b6103be60048036038101906103b991906118dc565b610d66565b6040516103cb9190611a5f565b60405180910390f35b6103ee60048036038101906103e991906118dc565b610e7d565b6040516103fb9190611b04565b60405180910390f35b61041e60048036038101906104199190611701565b610e93565b60405161042b9190611a29565b60405180910390f35b61044e600480360381019061044991906118dc565b610f02565b60405161045b9190611ae9565b60405180910390f35b61047e60048036038101906104799190611905565b610f56565b60405161048b9190611b04565b60405180910390f35b6104ae60048036038101906104a991906118dc565b611022565b6040516104bb9190611a44565b60405180910390f35b6104de60048036038101906104d991906118dc565b6110b8565b005b6104e86111b9565b6040516104f59190611a44565b60405180910390f35b6105066112a1565b6040516105199796959493929190611a7a565b60405180910390f35b61053c600480360381019061053791906118dc565b61132d565b6040516105499190611b04565b60405180910390f35b6000600454905090565b60006018603c808461056e9190611ba6565b6105789190611ba6565b6105829190611d84565b9050919050565b60045481565b60006007600462015180846105a49190611ba6565b6105ae9190611b50565b6105b89190611d84565b9050919050565b600082826105e9826000015183602001518460400151856060015186608001518760a001516107e7565b600081905550610615816000015182602001518360400151846060015185608001518660a001516107e7565b60018190555060005460015461062b9190611c65565b6002819055506002549250505092915050565b60056020528060005260406000206000915090508060000160009054906101000a900461ffff16908060000160029054906101000a900460ff16908060000160039054906101000a900460ff16908060000160049054906101000a900460ff16908060000160059054906101000a900460ff16908060000160069054906101000a900460ff16908060000160079054906101000a900460ff16905087565b60006106ed868686868660006107e7565b905095945050505050565b60006107038261134e565b604001519050919050565b61071661155f565b828261073e826000015183602001518460400151856060015186608001518760a001516107e7565b60008190555061076a816000015182602001518360400151846060015185608001518660a001516107e7565b6001819055506000546001546107809190611c65565b600281905550610791600254611022565b9250505092915050565b60006107ac858585856000806107e7565b9050949350505050565b6000603c826107c59190611d84565b9050919050565b60006107de84848460008060006107e7565b90509392505050565b6000806107b290505b8761ffff168161ffff16101561084b5761080981610e93565b15610825576301e285008261081e9190611b50565b9150610838565b6301e13380826108359190611b50565b91505b808061084390611cfe565b9150506107f0565b6108536115b2565b601f816000600c811061088f577f4e487b7100000000000000000000000000000000000000000000000000000000600052603260045260246000fd5b602002019060ff16908160ff16815250506108a989610e93565b1561090057601d816001600c81106108ea577f4e487b7100000000000000000000000000000000000000000000000000000000600052603260045260246000fd5b602002019060ff16908160ff168152505061094e565b601c816001600c811061093c577f4e487b7100000000000000000000000000000000000000000000000000000000600052603260045260246000fd5b602002019060ff16908160ff16815250505b601f816002600c811061098a577f4e487b7100000000000000000000000000000000000000000000000000000000600052603260045260246000fd5b602002019060ff16908160ff1681525050601e816003600c81106109d7577f4e487b7100000000000000000000000000000000000000000000000000000000600052603260045260246000fd5b602002019060ff16908160ff1681525050601f816004600c8110610a24577f4e487b7100000000000000000000000000000000000000000000000000000000600052603260045260246000fd5b602002019060ff16908160ff1681525050601e816005600c8110610a71577f4e487b7100000000000000000000000000000000000000000000000000000000600052603260045260246000fd5b602002019060ff16908160ff1681525050601f816006600c8110610abe577f4e487b7100000000000000000000000000000000000000000000000000000000600052603260045260246000fd5b602002019060ff16908160ff1681525050601f816007600c8110610b0b577f4e487b7100000000000000000000000000000000000000000000000000000000600052603260045260246000fd5b602002019060ff16908160ff1681525050601e816008600c8110610b58577f4e487b7100000000000000000000000000000000000000000000000000000000600052603260045260246000fd5b602002019060ff16908160ff1681525050601f816009600c8110610ba5577f4e487b7100000000000000000000000000000000000000000000000000000000600052603260045260246000fd5b602002019060ff16908160ff1681525050601e81600a600c8110610bf2577f4e487b7100000000000000000000000000000000000000000000000000000000600052603260045260246000fd5b602002019060ff16908160ff1681525050601f81600b600c8110610c3f577f4e487b7100000000000000000000000000000000000000000000000000000000600052603260045260246000fd5b602002019060ff16908160ff1681525050600191505b8760ff168261ffff161015610ce35780600183610c729190611c31565b61ffff16600c8110610cad577f4e487b7100000000000000000000000000000000000000000000000000000000600052603260045260246000fd5b602002015160ff1662015180610cc39190611bd7565b83610cce9190611b50565b92508180610cdb90611cfe565b925050610c55565b600187610cf09190611c99565b60ff1662015180610d019190611bd7565b83610d0c9190611b50565b92508560ff16610e10610d1f9190611bd7565b83610d2a9190611b50565b92508460ff16603c610d3c9190611bd7565b83610d479190611b50565b92508360ff1683610d589190611b50565b925050509695505050505050565b600080600090506000806301e1338085610d809190611ba6565b6107b261ffff16610d919190611b50565b9150610da26107b261ffff16610f02565b610daf8361ffff16610f02565b610db99190611c65565b9050806301e28500610dcb9190611bd7565b83610dd69190611b50565b9250806107b283610de79190611c31565b61ffff16610df59190611c65565b6301e13380610e049190611bd7565b83610e0f9190611b50565b92505b84831115610e7257610e2f600183610e2a9190611c31565b610e93565b15610e4b576301e2850083610e449190611c65565b9250610e5e565b6301e1338083610e5b9190611c65565b92505b600182610e6b9190611c31565b9150610e12565b819350505050919050565b6000610e888261134e565b602001519050919050565b600080600483610ea39190611d53565b61ffff1614610eb55760009050610efd565b6000606483610ec49190611d53565b61ffff1614610ed65760019050610efd565b600061019083610ee69190611d53565b61ffff1614610ef85760009050610efd565b600190505b919050565b6000600182610f119190611c65565b915061019082610f219190611ba6565b606483610f2e9190611ba6565b600484610f3b9190611ba6565b610f459190611c65565b610f4f9190611b50565b9050919050565b600060018360ff161480610f6d575060038360ff16145b80610f7b575060058360ff16145b80610f89575060078360ff16145b80610f97575060088360ff16145b80610fa55750600a8360ff16145b80610fb35750600c8360ff16145b15610fc157601f905061101c565b60048360ff161480610fd6575060068360ff16145b80610fe4575060098360ff16145b80610ff25750600b8360ff16145b1561100057601e905061101c565b61100982610e93565b1561101757601d905061101c565b601c90505b92915050565b61102a61155f565b60006040518060e0016040528061104085610d66565b61ffff16815260200161105285610e7d565b60ff168152602001611063856106f8565b60ff1681526020016110748561055c565b60ff1681526020016110858561132d565b60ff168152602001611096856107b6565b60ff1681526020016110a78561058f565b60ff16815250905080915050919050565b6110c181611022565b600360008201518160000160006101000a81548161ffff021916908361ffff16021790555060208201518160000160026101000a81548160ff021916908360ff16021790555060408201518160000160036101000a81548160ff021916908360ff16021790555060608201518160000160046101000a81548160ff021916908360ff16021790555060808201518160000160056101000a81548160ff021916908360ff16021790555060a08201518160000160066101000a81548160ff021916908360ff16021790555060c08201518160000160076101000a81548160ff021916908360ff1602179055509050508060048190555050565b6111c161155f565b60036040518060e00160405290816000820160009054906101000a900461ffff1661ffff1661ffff1681526020016000820160029054906101000a900460ff1660ff1660ff1681526020016000820160039054906101000a900460ff1660ff1660ff1681526020016000820160049054906101000a900460ff1660ff1660ff1681526020016000820160059054906101000a900460ff1660ff1660ff1681526020016000820160069054906101000a900460ff1660ff1660ff1681526020016000820160079054906101000a900460ff1660ff1660ff1681525050905090565b60038060000160009054906101000a900461ffff16908060000160029054906101000a900460ff16908060000160039054906101000a900460ff16908060000160049054906101000a900460ff16908060000160059054906101000a900460ff16908060000160069054906101000a900460ff16908060000160079054906101000a900460ff16905087565b6000603c808361133d9190611ba6565b6113479190611d84565b9050919050565b61135661155f565b6000808061136385610d66565b846000019061ffff16908161ffff16815250506113856107b261ffff16610f02565b611396856000015161ffff16610f02565b6113a09190611c65565b9150816301e285006113b29190611bd7565b836113bd9190611b50565b9250816107b285600001516113d29190611c31565b61ffff166113e09190611c65565b6301e133806113ef9190611bd7565b836113fa9190611b50565b92506000600191505b600c8260ff161161147a5761141c828660000151610f56565b60ff166201518061142d9190611bd7565b905085848261143c9190611b50565b11156114595781856020019060ff16908160ff168152505061147a565b80846114659190611b50565b9350818061147290611d29565b925050611403565b600191505b61149185602001518660000151610f56565b60ff168260ff16116114ee578584620151806114ad9190611b50565b11156114ca5781856040019060ff16908160ff16815250506114ee565b62015180846114d99190611b50565b935081806114e690611d29565b92505061147f565b6114f78661055c565b856060019060ff16908160ff16815250506115118661132d565b856080019060ff16908160ff168152505061152b866107b6565b8560a0019060ff16908160ff16815250506115458661058f565b8560c0019060ff16908160ff168152505050505050919050565b6040518060e00160405280600061ffff168152602001600060ff168152602001600060ff168152602001600060ff168152602001600060ff168152602001600060ff168152602001600060ff1681525090565b604051806101800160405280600c90602082028036833780820191505090505090565b600060e082840312156115e757600080fd5b6115f160e0611b1f565b9050600061160184828501611685565b6000830152506020611615848285016116af565b6020830152506040611629848285016116af565b604083015250606061163d848285016116af565b6060830152506080611651848285016116af565b60808301525060a0611665848285016116af565b60a08301525060c0611679848285016116af565b60c08301525092915050565b60008135905061169481611e42565b92915050565b6000813590506116a981611e59565b92915050565b6000813590506116be81611e70565b92915050565b6000806101c083850312156116d857600080fd5b60006116e6858286016115d5565b92505060e06116f7858286016115d5565b9150509250929050565b60006020828403121561171357600080fd5b600061172184828501611685565b91505092915050565b60008060006060848603121561173f57600080fd5b600061174d86828701611685565b935050602061175e868287016116af565b925050604061176f868287016116af565b9150509250925092565b6000806000806080858703121561178f57600080fd5b600061179d87828801611685565b94505060206117ae878288016116af565b93505060406117bf878288016116af565b92505060606117d0878288016116af565b91505092959194509250565b600080600080600060a086880312156117f457600080fd5b600061180288828901611685565b9550506020611813888289016116af565b9450506040611824888289016116af565b9350506060611835888289016116af565b9250506080611846888289016116af565b9150509295509295909350565b60008060008060008060c0878903121561186c57600080fd5b600061187a89828a01611685565b965050602061188b89828a016116af565b955050604061189c89828a016116af565b94505060606118ad89828a016116af565b93505060806118be89828a016116af565b92505060a06118cf89828a016116af565b9150509295509295509295565b6000602082840312156118ee57600080fd5b60006118fc8482850161169a565b91505092915050565b6000806040838503121561191857600080fd5b6000611926858286016116af565b925050602061193785828601611685565b9150509250929050565b61194a81611ccd565b82525050565b60e08201600082015161196660008501826119de565b5060208201516119796020850182611a0b565b50604082015161198c6040850182611a0b565b50606082015161199f6060850182611a0b565b5060808201516119b26080850182611a0b565b5060a08201516119c560a0850182611a0b565b5060c08201516119d860c0850182611a0b565b50505050565b6119e781611cd9565b82525050565b6119f681611cd9565b82525050565b611a0581611ce7565b82525050565b611a1481611cf1565b82525050565b611a2381611cf1565b82525050565b6000602082019050611a3e6000830184611941565b92915050565b600060e082019050611a596000830184611950565b92915050565b6000602082019050611a7460008301846119ed565b92915050565b600060e082019050611a8f600083018a6119ed565b611a9c6020830189611a1a565b611aa96040830188611a1a565b611ab66060830187611a1a565b611ac36080830186611a1a565b611ad060a0830185611a1a565b611add60c0830184611a1a565b98975050505050505050565b6000602082019050611afe60008301846119fc565b92915050565b6000602082019050611b196000830184611a1a565b92915050565b6000604051905081810181811067ffffffffffffffff82111715611b4657611b45611e13565b5b8060405250919050565b6000611b5b82611ce7565b9150611b6683611ce7565b9250827fffffffffffffffffffffffffffffffffffffffffffffffffffffffffffffffff03821115611b9b57611b9a611db5565b5b828201905092915050565b6000611bb182611ce7565b9150611bbc83611ce7565b925082611bcc57611bcb611de4565b5b828204905092915050565b6000611be282611ce7565b9150611bed83611ce7565b9250817fffffffffffffffffffffffffffffffffffffffffffffffffffffffffffffffff0483118215151615611c2657611c25611db5565b5b828202905092915050565b6000611c3c82611cd9565b9150611c4783611cd9565b925082821015611c5a57611c59611db5565b5b828203905092915050565b6000611c7082611ce7565b9150611c7b83611ce7565b925082821015611c8e57611c8d611db5565b5b828203905092915050565b6000611ca482611cf1565b9150611caf83611cf1565b925082821015611cc257611cc1611db5565b5b828203905092915050565b60008115159050919050565b600061ffff82169050919050565b6000819050919050565b600060ff82169050919050565b6000611d0982611cd9565b915061ffff821415611d1e57611d1d611db5565b5b600182019050919050565b6000611d3482611cf1565b915060ff821415611d4857611d47611db5565b5b600182019050919050565b6000611d5e82611cd9565b9150611d6983611cd9565b925082611d7957611d78611de4565b5b828206905092915050565b6000611d8f82611ce7565b9150611d9a83611ce7565b925082611daa57611da9611de4565b5b828206905092915050565b7f4e487b7100000000000000000000000000000000000000000000000000000000600052601160045260246000fd5b7f4e487b7100000000000000000000000000000000000000000000000000000000600052601260045260246000fd5b7f4e487b7100000000000000000000000000000000000000000000000000000000600052604160045260246000fd5b611e4b81611cd9565b8114611e5657600080fd5b50565b611e6281611ce7565b8114611e6d57600080fd5b50565b611e7981611cf1565b8114611e8457600080fd5b5056fea26469706673582212204c0500fb73bb6ac1724b3536be94a805e1fcb27f327744318759517e223aee8d64736f6c63430008000033a2646970667358221220437e1ad118cf7e9ff007c1680098c1a3e37edb42a081c7f6c8f21ea2e7bd7f7d64736f6c63430008000033",
  "immutableReferences": {},
  "source": "pragma solidity ^0.8.0;\r\n\r\n//import \"./User.sol\";\r\nimport \"./Datetime.sol\";\r\nimport \"./UnicInterface.sol\";\r\n\r\ncontract Bicycle{\r\n\r\n    //using Datetime for Datetime;\r\n    uint256 private transactionCounter = 0;\r\n    abstractBicycleInfo public BicycleInfo;\r\n    uint256 public fee;\r\n    \r\n    bool AllPreviousTransactionsClosed = true; \r\n    \r\n    UNICOIN unicoinInBicycle;\r\n    \r\n    constructor(address _owner_address, address UNICOINaddress, uint256 _fee) {\r\n        BicycleInfo.owner = _owner_address;\r\n        BicycleInfo.bicycleId = keccak256(abi.encodePacked(_owner_address));\r\n        unicoinInBicycle = UNICOIN(UNICOINaddress);\r\n        fee = _fee;\r\n    }\r\n    \r\n    struct transaction{\r\n        uint256 transactionID;\r\n        \r\n        uint256 Openlatitude;\r\n        uint256 Openlongitude;\r\n        \r\n        uint256 Closelatitude;\r\n        uint256 Closelongitude;\r\n        \r\n        DateTime openTime;\r\n        DateTime closeTime;\r\n        uint256 fee_rate;\r\n        uint totalFee;\r\n        address borrower;\r\n        address lender;\r\n    }\r\n    \r\n    struct abstractBicycleInfo{\r\n        address owner;\r\n        bytes32 bicycleId;\r\n        transaction[] transactionHistory;\r\n    }\r\n    \r\n    function getBicycleID() public returns (bytes32){\r\n        return BicycleInfo.bicycleId;\r\n    }\r\n    \r\n    \r\n    function openTransaction(uint256 _latitude, uint256 _longitude, uint256 _timeStamp, address _borrower) public{\r\n        // Handling longitude and latitude\r\n        uint256 decimals = 6;\r\n        require(AllPreviousTransactionsClosed == true, \"You have one unfinished transaction!\");\r\n        DateTime openTime = new DateTime();\r\n        openTime.setDate(_timeStamp);\r\n        \r\n        DateTime closeTime = new DateTime();\r\n        closeTime.setDate(_timeStamp);\r\n        transaction memory new_transaction = transaction(transactionCounter, _latitude, _longitude, 0, 0, openTime, closeTime, 10, 0, _borrower, BicycleInfo.owner);\r\n        BicycleInfo.transactionHistory.push(new_transaction);\r\n        AllPreviousTransactionsClosed = false;\r\n    }\r\n    \r\n    transaction forClosure;\r\n    function closeTransaction(uint256 _latitude, uint256 _longitude, uint256 _timeStamp) public returns (uint256, uint256, uint256, uint256, uint256){\r\n        BicycleInfo.transactionHistory[transactionCounter].closeTime.setDate(_timeStamp);\r\n        BicycleInfo.transactionHistory[transactionCounter].totalFee = getTotalFee(BicycleInfo.transactionHistory[transactionCounter]);\r\n        \r\n        // Handling longitude and latitude\r\n        BicycleInfo.transactionHistory[transactionCounter].Closelatitude = _latitude;\r\n        BicycleInfo.transactionHistory[transactionCounter].Closelongitude = _longitude;\r\n        \r\n        transaction memory my_transaction = BicycleInfo.transactionHistory[transactionCounter];\r\n        forClosure = my_transaction;\r\n        \r\n        UNICOIN(unicoinInBicycle).transfer(my_transaction.borrower, my_transaction.lender, my_transaction.totalFee);\r\n        \r\n        transactionCounter = transactionCounter + 1;\r\n        AllPreviousTransactionsClosed = true;\r\n        return (my_transaction.transactionID, my_transaction.Openlatitude, my_transaction.Openlongitude, my_transaction.Closelatitude, my_transaction.Closelongitude);\r\n    }\r\n    \r\n    function getCloseTransactionDetails() public returns (uint256, uint256, uint256, uint, address, address) {\r\n        return (forClosure.openTime.getMytimestamp(), forClosure.closeTime.getMytimestamp(), forClosure.fee_rate, forClosure.totalFee, forClosure.borrower, forClosure.lender);\r\n    }\r\n    function getTotalFee(transaction memory my_transaction) public returns (uint){\r\n        DateTime differenceTime = new DateTime();\r\n        differenceTime.\r\n            setDate(\r\n                    differenceTime.getDifferenceinTimeStamp(\r\n                        my_transaction.openTime.getMyDatetime(),\r\n                        my_transaction.closeTime.getMyDatetime()\r\n                )\r\n            );\r\n        return differenceTime.getMytimestamp()*fee;\r\n    }\r\n    \r\n}",
  "sourcePath": "C:\\Users\\Dell\\Desktop\\Olzhas\\Summer2021\\UNICOIN\\contracts\\Bicycle.sol",
  "compiler": {
    "name": "solc",
    "version": "0.8.0+commit.c7dfd78e.Emscripten.clang"
  },
  "schemaVersion": "3.4.2",
  "updatedAt": "2021-07-25T08:40:59.730Z",
  "devdoc": {
    "kind": "dev",
    "methods": {},
    "version": 1
  },
  "userdoc": {
    "kind": "user",
    "methods": {},
    "version": 1
  }
}