{
  "contractName": "bicycle",
  "abi": [
    {
      "inputs": [],
      "stateMutability": "nonpayable",
      "type": "constructor"
    },
    {
      "inputs": [],
      "name": "BicycleInfo",
      "outputs": [
        {
          "internalType": "address",
          "name": "owner",
          "type": "address"
        },
        {
          "internalType": "uint256",
          "name": "bicycleId",
          "type": "uint256"
        }
      ],
      "stateMutability": "view",
      "type": "function"
    },
    {
      "inputs": [
        {
          "internalType": "uint256",
          "name": "_timeStamp",
          "type": "uint256"
        },
        {
          "internalType": "string",
          "name": "_location",
          "type": "string"
        }
      ],
      "name": "openTransaction",
      "outputs": [],
      "stateMutability": "nonpayable",
      "type": "function"
    },
    {
      "inputs": [
        {
          "internalType": "uint256",
          "name": "_timeStamp",
          "type": "uint256"
        },
        {
          "internalType": "string",
          "name": "_location",
          "type": "string"
        }
      ],
      "name": "closeTransaction",
      "outputs": [],
      "stateMutability": "nonpayable",
      "type": "function"
    }
  ],
  "bytecode": "0x60806040526000805534801561001457600080fd5b506120e5806100246000396000f3fe608060405234801561001057600080fd5b50600436106100415760003560e01c80631a0ec96914610046578063b2536a1e14610065578063cadf02b814610081575b600080fd5b61004e61009d565b60405161005c929190610636565b60405180910390f35b61007f600480360381019061007a91906105bc565b6100cf565b005b61009b600480360381019061009691906105bc565b6101df565b005b60018060000160009054906101000a900473ffffffffffffffffffffffffffffffffffffffff16908060010154905082565b600160020160016000546100e39190610726565b815481106100f4576100f3610866565b5b906000526020600020906005020160020160009054906101000a900473ffffffffffffffffffffffffffffffffffffffff1673ffffffffffffffffffffffffffffffffffffffff1663d04e48f1836040518263ffffffff1660e01b815260040161015e919061065f565b600060405180830381600087803b15801561017857600080fd5b505af115801561018c573d6000803e3d6000fd5b5050505080600160020160016000546101a59190610726565b815481106101b6576101b5610866565b5b906000526020600020906005020160040190805190602001906101da929190610487565b505050565b60006040516101ed9061050d565b604051809103906000f080158015610209573d6000803e3d6000fd5b5090508073ffffffffffffffffffffffffffffffffffffffff1663d04e48f1846040518263ffffffff1660e01b8152600401610245919061065f565b600060405180830381600087803b15801561025f57600080fd5b505af1158015610273573d6000803e3d6000fd5b5050505060006040516102859061050d565b604051809103906000f0801580156102a1573d6000803e3d6000fd5b5090508073ffffffffffffffffffffffffffffffffffffffff1663d04e48f1856040518263ffffffff1660e01b81526004016102dd919061065f565b600060405180830381600087803b1580156102f757600080fd5b505af115801561030b573d6000803e3d6000fd5b5050505060006040518060a0016040528060005481526020018473ffffffffffffffffffffffffffffffffffffffff1681526020018373ffffffffffffffffffffffffffffffffffffffff16815260200185815260200185815250905060016002018190806001815401808255809150506001900390600052602060002090600502016000909190919091506000820151816000015560208201518160010160006101000a81548173ffffffffffffffffffffffffffffffffffffffff021916908373ffffffffffffffffffffffffffffffffffffffff16021790555060408201518160020160006101000a81548173ffffffffffffffffffffffffffffffffffffffff021916908373ffffffffffffffffffffffffffffffffffffffff160217905550606082015181600301908051906020019061044b929190610487565b506080820151816004019080519060200190610468929190610487565b505050600160005461047a91906106d0565b6000819055505050505050565b828054610493906107a5565b90600052602060002090601f0160209004810192826104b557600085556104fc565b82601f106104ce57805160ff19168380011785556104fc565b828001600101855582156104fc579182015b828111156104fb5782518255916020019190600101906104e0565b5b509050610509919061051a565b5090565b6117af8061090183390190565b5b8082111561053357600081600090555060010161051b565b5090565b600061054a6105458461069f565b61067a565b905082815260208101848484011115610566576105656108c9565b5b610571848285610796565b509392505050565b600082601f83011261058e5761058d6108c4565b5b813561059e848260208601610537565b91505092915050565b6000813590506105b6816108e9565b92915050565b600080604083850312156105d3576105d26108d3565b5b60006105e1858286016105a7565b925050602083013567ffffffffffffffff811115610602576106016108ce565b5b61060e85828601610579565b9150509250929050565b6106218161075a565b82525050565b6106308161078c565b82525050565b600060408201905061064b6000830185610618565b6106586020830184610627565b9392505050565b60006020820190506106746000830184610627565b92915050565b6000610684610695565b905061069082826107d7565b919050565b6000604051905090565b600067ffffffffffffffff8211156106ba576106b9610895565b5b6106c3826108d8565b9050602081019050919050565b60006106db8261078c565b91506106e68361078c565b9250827fffffffffffffffffffffffffffffffffffffffffffffffffffffffffffffffff0382111561071b5761071a610808565b5b828201905092915050565b60006107318261078c565b915061073c8361078c565b92508282101561074f5761074e610808565b5b828203905092915050565b60006107658261076c565b9050919050565b600073ffffffffffffffffffffffffffffffffffffffff82169050919050565b6000819050919050565b82818337600083830152505050565b600060028204905060018216806107bd57607f821691505b602082108114156107d1576107d0610837565b5b50919050565b6107e0826108d8565b810181811067ffffffffffffffff821117156107ff576107fe610895565b5b80604052505050565b7f4e487b7100000000000000000000000000000000000000000000000000000000600052601160045260246000fd5b7f4e487b7100000000000000000000000000000000000000000000000000000000600052602260045260246000fd5b7f4e487b7100000000000000000000000000000000000000000000000000000000600052603260045260246000fd5b7f4e487b7100000000000000000000000000000000000000000000000000000000600052604160045260246000fd5b600080fd5b600080fd5b600080fd5b600080fd5b6000601f19601f8301169050919050565b6108f28161078c565b81146108fd57600080fd5b5056fe608060405234801561001057600080fd5b5061178f806100206000396000f3fe608060405234801561001057600080fd5b506004361061010b5760003560e01c80638c8d98a0116100a2578063a6f0e57711610071578063a6f0e5771461034a578063b19999371461037a578063b238ad0e146103aa578063d04e48f1146103da578063fa93f883146103f65761010b565b80638c8d98a01461028a5780639054bdec146102ba57806392d66313146102ea578063a324ad241461031a5761010b565b8063655d225f116100de578063655d225f146101d657806365c72840146101fa5780637f7918331461022a5780638aa001fc1461025a5761010b565b80633e239e1a146101105780634ac1ad78146101405780635133ae241461017057806362ba9687146101a6575b600080fd5b61012a60048036038101906101259190611299565b610426565b6040516101379190611402565b60405180910390f35b61015a60048036038101906101559190611299565b610453565b6040516101679190611402565b60405180910390f35b61018a60048036038101906101859190611299565b610483565b60405161019d9796959493929190611378565b60405180910390f35b6101c060048036038101906101bb9190611191565b610521565b6040516101cd91906113e7565b60405180910390f35b6101de61053d565b6040516101f19796959493929190611378565b60405180910390f35b610214600480360381019061020f9190611299565b6105c9565b6040516102219190611402565b60405180910390f35b610244600480360381019061023f919061112a565b6105df565b60405161025191906113e7565b60405180910390f35b610274600480360381019061026f9190611299565b6105fa565b6040516102819190611402565b60405180910390f35b6102a4600480360381019061029f91906110d7565b610610565b6040516102b191906113e7565b60405180910390f35b6102d460048036038101906102cf919061120c565b61062b565b6040516102e191906113e7565b60405180910390f35b61030460048036038101906102ff9190611299565b610996565b604051610311919061135d565b60405180910390f35b610334600480360381019061032f9190611299565b610aad565b6040516103419190611402565b60405180910390f35b610364600480360381019061035f91906110aa565b610ac3565b6040516103719190611342565b60405180910390f35b610394600480360381019061038f9190611299565b610b32565b6040516103a191906113e7565b60405180910390f35b6103c460048036038101906103bf91906112c6565b610b86565b6040516103d19190611402565b60405180910390f35b6103f460048036038101906103ef9190611299565b610c52565b005b610410600480360381019061040b9190611299565b610dc3565b60405161041d9190611402565b60405180910390f35b60006018603c80846104389190611473565b6104429190611473565b61044c9190611651565b9050919050565b60006007600462015180846104689190611473565b610472919061141d565b61047c9190611651565b9050919050565b60016020528060005260406000206000915090508060000160009054906101000a900461ffff16908060000160029054906101000a900460ff16908060000160039054906101000a900460ff16908060000160049054906101000a900460ff16908060000160059054906101000a900460ff16908060000160069054906101000a900460ff16908060000160079054906101000a900460ff16905087565b60006105328686868686600061062b565b905095945050505050565b60008060000160009054906101000a900461ffff16908060000160029054906101000a900460ff16908060000160039054906101000a900460ff16908060000160049054906101000a900460ff16908060000160059054906101000a900460ff16908060000160069054906101000a900460ff16908060000160079054906101000a900460ff16905087565b60006105d482610de4565b604001519050919050565b60006105f08585858560008061062b565b9050949350505050565b6000603c826106099190611651565b9050919050565b6000610622848484600080600061062b565b90509392505050565b6000806107b290505b8761ffff168161ffff16101561068f5761064d81610ac3565b15610669576301e2850082610662919061141d565b915061067c565b6301e1338082610679919061141d565b91505b8080610687906115cb565b915050610634565b610697610ff5565b601f816000600c81106106ad576106ac6116e0565b5b602002019060ff16908160ff16815250506106c789610ac3565b156106f857601d816001600c81106106e2576106e16116e0565b5b602002019060ff16908160ff1681525050610720565b601c816001600c811061070e5761070d6116e0565b5b602002019060ff16908160ff16815250505b601f816002600c8110610736576107356116e0565b5b602002019060ff16908160ff1681525050601e816003600c811061075d5761075c6116e0565b5b602002019060ff16908160ff1681525050601f816004600c8110610784576107836116e0565b5b602002019060ff16908160ff1681525050601e816005600c81106107ab576107aa6116e0565b5b602002019060ff16908160ff1681525050601f816006600c81106107d2576107d16116e0565b5b602002019060ff16908160ff1681525050601f816007600c81106107f9576107f86116e0565b5b602002019060ff16908160ff1681525050601e816008600c81106108205761081f6116e0565b5b602002019060ff16908160ff1681525050601f816009600c8110610847576108466116e0565b5b602002019060ff16908160ff1681525050601e81600a600c811061086e5761086d6116e0565b5b602002019060ff16908160ff1681525050601f81600b600c8110610895576108946116e0565b5b602002019060ff16908160ff1681525050600191505b8760ff168261ffff16101561091357806001836108c891906114fe565b61ffff16600c81106108dd576108dc6116e0565b5b602002015160ff16620151806108f391906114a4565b836108fe919061141d565b9250818061090b906115cb565b9250506108ab565b6001876109209190611566565b60ff166201518061093191906114a4565b8361093c919061141d565b92508560ff16610e1061094f91906114a4565b8361095a919061141d565b92508460ff16603c61096c91906114a4565b83610977919061141d565b92508360ff1683610988919061141d565b925050509695505050505050565b600080600090506000806301e13380856109b09190611473565b6107b261ffff166109c1919061141d565b91506109d26107b261ffff16610b32565b6109df8361ffff16610b32565b6109e99190611532565b9050806301e285006109fb91906114a4565b83610a06919061141d565b9250806107b283610a1791906114fe565b61ffff16610a259190611532565b6301e13380610a3491906114a4565b83610a3f919061141d565b92505b84831115610aa257610a5f600183610a5a91906114fe565b610ac3565b15610a7b576301e2850083610a749190611532565b9250610a8e565b6301e1338083610a8b9190611532565b92505b600182610a9b91906114fe565b9150610a42565b819350505050919050565b6000610ab882610de4565b602001519050919050565b600080600483610ad39190611620565b61ffff1614610ae55760009050610b2d565b6000606483610af49190611620565b61ffff1614610b065760019050610b2d565b600061019083610b169190611620565b61ffff1614610b285760009050610b2d565b600190505b919050565b6000600182610b419190611532565b915061019082610b519190611473565b606483610b5e9190611473565b600484610b6b9190611473565b610b759190611532565b610b7f919061141d565b9050919050565b600060018360ff161480610b9d575060038360ff16145b80610bab575060058360ff16145b80610bb9575060078360ff16145b80610bc7575060088360ff16145b80610bd55750600a8360ff16145b80610be35750600c8360ff16145b15610bf157601f9050610c4c565b60048360ff161480610c06575060068360ff16145b80610c14575060098360ff16145b80610c225750600b8360ff16145b15610c3057601e9050610c4c565b610c3982610ac3565b15610c4757601d9050610c4c565b601c90505b92915050565b6040518060e00160405280610c6683610996565b61ffff168152602001610c7883610aad565b60ff168152602001610c89836105c9565b60ff168152602001610c9a83610426565b60ff168152602001610cab83610dc3565b60ff168152602001610cbc836105fa565b60ff168152602001610ccd83610453565b60ff168152506000808201518160000160006101000a81548161ffff021916908361ffff16021790555060208201518160000160026101000a81548160ff021916908360ff16021790555060408201518160000160036101000a81548160ff021916908360ff16021790555060608201518160000160046101000a81548160ff021916908360ff16021790555060808201518160000160056101000a81548160ff021916908360ff16021790555060a08201518160000160066101000a81548160ff021916908360ff16021790555060c08201518160000160076101000a81548160ff021916908360ff16021790555090505050565b6000603c8083610dd39190611473565b610ddd9190611651565b9050919050565b610dec611018565b60008080610df985610996565b846000019061ffff16908161ffff1681525050610e1b6107b261ffff16610b32565b610e2c856000015161ffff16610b32565b610e369190611532565b9150816301e28500610e4891906114a4565b83610e53919061141d565b9250816107b28560000151610e6891906114fe565b61ffff16610e769190611532565b6301e13380610e8591906114a4565b83610e90919061141d565b92506000600191505b600c8260ff1611610f1057610eb2828660000151610b86565b60ff1662015180610ec391906114a4565b9050858482610ed2919061141d565b1115610eef5781856020019060ff16908160ff1681525050610f10565b8084610efb919061141d565b93508180610f08906115f6565b925050610e99565b600191505b610f2785602001518660000151610b86565b60ff168260ff1611610f8457858462015180610f43919061141d565b1115610f605781856040019060ff16908160ff1681525050610f84565b6201518084610f6f919061141d565b93508180610f7c906115f6565b925050610f15565b610f8d86610426565b856060019060ff16908160ff1681525050610fa786610dc3565b856080019060ff16908160ff1681525050610fc1866105fa565b8560a0019060ff16908160ff1681525050610fdb86610453565b8560c0019060ff16908160ff168152505050505050919050565b604051806101800160405280600c90602082028036833780820191505090505090565b6040518060e00160405280600061ffff168152602001600060ff168152602001600060ff168152602001600060ff168152602001600060ff168152602001600060ff168152602001600060ff1681525090565b60008135905061107a81611714565b92915050565b60008135905061108f8161172b565b92915050565b6000813590506110a481611742565b92915050565b6000602082840312156110c0576110bf61170f565b5b60006110ce8482850161106b565b91505092915050565b6000806000606084860312156110f0576110ef61170f565b5b60006110fe8682870161106b565b935050602061110f86828701611095565b925050604061112086828701611095565b9150509250925092565b600080600080608085870312156111445761114361170f565b5b60006111528782880161106b565b945050602061116387828801611095565b935050604061117487828801611095565b925050606061118587828801611095565b91505092959194509250565b600080600080600060a086880312156111ad576111ac61170f565b5b60006111bb8882890161106b565b95505060206111cc88828901611095565b94505060406111dd88828901611095565b93505060606111ee88828901611095565b92505060806111ff88828901611095565b9150509295509295909350565b60008060008060008060c087890312156112295761122861170f565b5b600061123789828a0161106b565b965050602061124889828a01611095565b955050604061125989828a01611095565b945050606061126a89828a01611095565b935050608061127b89828a01611095565b92505060a061128c89828a01611095565b9150509295509295509295565b6000602082840312156112af576112ae61170f565b5b60006112bd84828501611080565b91505092915050565b600080604083850312156112dd576112dc61170f565b5b60006112eb85828601611095565b92505060206112fc8582860161106b565b9150509250929050565b61130f8161159a565b82525050565b61131e816115a6565b82525050565b61132d816115b4565b82525050565b61133c816115be565b82525050565b60006020820190506113576000830184611306565b92915050565b60006020820190506113726000830184611315565b92915050565b600060e08201905061138d600083018a611315565b61139a6020830189611333565b6113a76040830188611333565b6113b46060830187611333565b6113c16080830186611333565b6113ce60a0830185611333565b6113db60c0830184611333565b98975050505050505050565b60006020820190506113fc6000830184611324565b92915050565b60006020820190506114176000830184611333565b92915050565b6000611428826115b4565b9150611433836115b4565b9250827fffffffffffffffffffffffffffffffffffffffffffffffffffffffffffffffff0382111561146857611467611682565b5b828201905092915050565b600061147e826115b4565b9150611489836115b4565b925082611499576114986116b1565b5b828204905092915050565b60006114af826115b4565b91506114ba836115b4565b9250817fffffffffffffffffffffffffffffffffffffffffffffffffffffffffffffffff04831182151516156114f3576114f2611682565b5b828202905092915050565b6000611509826115a6565b9150611514836115a6565b92508282101561152757611526611682565b5b828203905092915050565b600061153d826115b4565b9150611548836115b4565b92508282101561155b5761155a611682565b5b828203905092915050565b6000611571826115be565b915061157c836115be565b92508282101561158f5761158e611682565b5b828203905092915050565b60008115159050919050565b600061ffff82169050919050565b6000819050919050565b600060ff82169050919050565b60006115d6826115a6565b915061ffff8214156115eb576115ea611682565b5b600182019050919050565b6000611601826115be565b915060ff82141561161557611614611682565b5b600182019050919050565b600061162b826115a6565b9150611636836115a6565b925082611646576116456116b1565b5b828206905092915050565b600061165c826115b4565b9150611667836115b4565b925082611677576116766116b1565b5b828206905092915050565b7f4e487b7100000000000000000000000000000000000000000000000000000000600052601160045260246000fd5b7f4e487b7100000000000000000000000000000000000000000000000000000000600052601260045260246000fd5b7f4e487b7100000000000000000000000000000000000000000000000000000000600052603260045260246000fd5b600080fd5b61171d816115a6565b811461172857600080fd5b50565b611734816115b4565b811461173f57600080fd5b50565b61174b816115be565b811461175657600080fd5b5056fea2646970667358221220d0ccac7ab78c245d2f95bdf0744c6027ebebd17eabbd67ad5ce5eb7aed184ddd64736f6c63430008060033a2646970667358221220fe45dbdb18c3c0e6b29dae730e705f6cd93569a967ecf6d998b28da8bcd90cef64736f6c63430008060033",
  "immutableReferences": {},
  "source": "pragma solidity ^0.8.0;\r\n\r\nimport \"./MyUser.sol\";\r\nimport \"./UNICOIN.sol\";\r\nimport \"./DateTime.sol\";\r\n\r\ncontract bicycle{\r\n    //using Datetime for Datetime;\r\n    uint256 private transactionCounter = 0;\r\n    \r\n    constructor() {\r\n        \r\n    }\r\n    \r\n    struct transaction{\r\n        uint256 transactionID;\r\n        DateTime openTime;\r\n        DateTime closeTime;\r\n        string openLoc;\r\n        string closeLoc; \r\n    }\r\n    \r\n    struct abstractBicycleInfo{\r\n        address owner;\r\n        uint256 bicycleId;\r\n        transaction[] transactionHistory;\r\n    }\r\n    abstractBicycleInfo public BicycleInfo;\r\n    \r\n    \r\n    function openTransaction(uint256 _timeStamp, string memory _location) public{\r\n        DateTime openTime = new DateTime();\r\n        openTime.setDate(_timeStamp);\r\n        \r\n        DateTime closeTime = new DateTime();\r\n        closeTime.setDate(_timeStamp);\r\n        transaction memory new_transaction = transaction(transactionCounter, openTime, closeTime,\r\n        _location, _location);\r\n        BicycleInfo.transactionHistory.push(new_transaction);\r\n        transactionCounter = transactionCounter + 1;\r\n    }\r\n    \r\n    function closeTransaction(uint256 _timeStamp, string memory _location) public{\r\n        BicycleInfo.transactionHistory[transactionCounter-1].closeTime.setDate(_timeStamp);\r\n        BicycleInfo.transactionHistory[transactionCounter-1].closeLoc = _location;\r\n    }\r\n}",
  "sourcePath": "/mnt/c/Users/Dell/Desktop/Olzhas/Summer2021/UNICOIN/contracts/bicycle.sol",
  "compiler": {
    "name": "solc",
    "version": "0.8.6+commit.11564f7e.Emscripten.clang"
  },
  "schemaVersion": "3.3.4",
  "updatedAt": "2021-07-07T04:43:43.367Z",
  "devdoc": {
    "kind": "dev",
    "methods": {},
    "version": 1
  },
  "userdoc": {
    "kind": "user",
    "methods": {},
    "version": 1
  }
}