{
  "contractName": "DateTime",
  "abi": [
    {
      "inputs": [],
      "name": "Mydatetime",
      "outputs": [
        {
          "internalType": "uint16",
          "name": "year",
          "type": "uint16"
        },
        {
          "internalType": "uint8",
          "name": "month",
          "type": "uint8"
        },
        {
          "internalType": "uint8",
          "name": "day",
          "type": "uint8"
        },
        {
          "internalType": "uint8",
          "name": "hour",
          "type": "uint8"
        },
        {
          "internalType": "uint8",
          "name": "minute",
          "type": "uint8"
        },
        {
          "internalType": "uint8",
          "name": "second",
          "type": "uint8"
        },
        {
          "internalType": "uint8",
          "name": "weekday",
          "type": "uint8"
        }
      ],
      "stateMutability": "view",
      "type": "function"
    },
    {
      "inputs": [],
      "name": "Mytimestamp",
      "outputs": [
        {
          "internalType": "uint256",
          "name": "",
          "type": "uint256"
        }
      ],
      "stateMutability": "view",
      "type": "function"
    },
    {
      "inputs": [
        {
          "internalType": "uint256",
          "name": "",
          "type": "uint256"
        }
      ],
      "name": "dates",
      "outputs": [
        {
          "internalType": "uint16",
          "name": "year",
          "type": "uint16"
        },
        {
          "internalType": "uint8",
          "name": "month",
          "type": "uint8"
        },
        {
          "internalType": "uint8",
          "name": "day",
          "type": "uint8"
        },
        {
          "internalType": "uint8",
          "name": "hour",
          "type": "uint8"
        },
        {
          "internalType": "uint8",
          "name": "minute",
          "type": "uint8"
        },
        {
          "internalType": "uint8",
          "name": "second",
          "type": "uint8"
        },
        {
          "internalType": "uint8",
          "name": "weekday",
          "type": "uint8"
        }
      ],
      "stateMutability": "view",
      "type": "function"
    },
    {
      "inputs": [
        {
          "internalType": "uint256",
          "name": "_timeStamp",
          "type": "uint256"
        }
      ],
      "name": "setDate",
      "outputs": [],
      "stateMutability": "nonpayable",
      "type": "function"
    },
    {
      "inputs": [
        {
          "internalType": "uint256",
          "name": "_timeStamp",
          "type": "uint256"
        }
      ],
      "name": "toDateTime",
      "outputs": [
        {
          "components": [
            {
              "internalType": "uint16",
              "name": "year",
              "type": "uint16"
            },
            {
              "internalType": "uint8",
              "name": "month",
              "type": "uint8"
            },
            {
              "internalType": "uint8",
              "name": "day",
              "type": "uint8"
            },
            {
              "internalType": "uint8",
              "name": "hour",
              "type": "uint8"
            },
            {
              "internalType": "uint8",
              "name": "minute",
              "type": "uint8"
            },
            {
              "internalType": "uint8",
              "name": "second",
              "type": "uint8"
            },
            {
              "internalType": "uint8",
              "name": "weekday",
              "type": "uint8"
            }
          ],
          "internalType": "struct DateTime._DateTime",
          "name": "",
          "type": "tuple"
        }
      ],
      "stateMutability": "nonpayable",
      "type": "function"
    },
    {
      "inputs": [
        {
          "components": [
            {
              "internalType": "uint16",
              "name": "year",
              "type": "uint16"
            },
            {
              "internalType": "uint8",
              "name": "month",
              "type": "uint8"
            },
            {
              "internalType": "uint8",
              "name": "day",
              "type": "uint8"
            },
            {
              "internalType": "uint8",
              "name": "hour",
              "type": "uint8"
            },
            {
              "internalType": "uint8",
              "name": "minute",
              "type": "uint8"
            },
            {
              "internalType": "uint8",
              "name": "second",
              "type": "uint8"
            },
            {
              "internalType": "uint8",
              "name": "weekday",
              "type": "uint8"
            }
          ],
          "internalType": "struct DateTime._DateTime",
          "name": "x",
          "type": "tuple"
        },
        {
          "components": [
            {
              "internalType": "uint16",
              "name": "year",
              "type": "uint16"
            },
            {
              "internalType": "uint8",
              "name": "month",
              "type": "uint8"
            },
            {
              "internalType": "uint8",
              "name": "day",
              "type": "uint8"
            },
            {
              "internalType": "uint8",
              "name": "hour",
              "type": "uint8"
            },
            {
              "internalType": "uint8",
              "name": "minute",
              "type": "uint8"
            },
            {
              "internalType": "uint8",
              "name": "second",
              "type": "uint8"
            },
            {
              "internalType": "uint8",
              "name": "weekday",
              "type": "uint8"
            }
          ],
          "internalType": "struct DateTime._DateTime",
          "name": "y",
          "type": "tuple"
        }
      ],
      "name": "getDifferenceinDateTime",
      "outputs": [
        {
          "components": [
            {
              "internalType": "uint16",
              "name": "year",
              "type": "uint16"
            },
            {
              "internalType": "uint8",
              "name": "month",
              "type": "uint8"
            },
            {
              "internalType": "uint8",
              "name": "day",
              "type": "uint8"
            },
            {
              "internalType": "uint8",
              "name": "hour",
              "type": "uint8"
            },
            {
              "internalType": "uint8",
              "name": "minute",
              "type": "uint8"
            },
            {
              "internalType": "uint8",
              "name": "second",
              "type": "uint8"
            },
            {
              "internalType": "uint8",
              "name": "weekday",
              "type": "uint8"
            }
          ],
          "internalType": "struct DateTime._DateTime",
          "name": "",
          "type": "tuple"
        }
      ],
      "stateMutability": "nonpayable",
      "type": "function"
    },
    {
      "inputs": [
        {
          "components": [
            {
              "internalType": "uint16",
              "name": "year",
              "type": "uint16"
            },
            {
              "internalType": "uint8",
              "name": "month",
              "type": "uint8"
            },
            {
              "internalType": "uint8",
              "name": "day",
              "type": "uint8"
            },
            {
              "internalType": "uint8",
              "name": "hour",
              "type": "uint8"
            },
            {
              "internalType": "uint8",
              "name": "minute",
              "type": "uint8"
            },
            {
              "internalType": "uint8",
              "name": "second",
              "type": "uint8"
            },
            {
              "internalType": "uint8",
              "name": "weekday",
              "type": "uint8"
            }
          ],
          "internalType": "struct DateTime._DateTime",
          "name": "x",
          "type": "tuple"
        },
        {
          "components": [
            {
              "internalType": "uint16",
              "name": "year",
              "type": "uint16"
            },
            {
              "internalType": "uint8",
              "name": "month",
              "type": "uint8"
            },
            {
              "internalType": "uint8",
              "name": "day",
              "type": "uint8"
            },
            {
              "internalType": "uint8",
              "name": "hour",
              "type": "uint8"
            },
            {
              "internalType": "uint8",
              "name": "minute",
              "type": "uint8"
            },
            {
              "internalType": "uint8",
              "name": "second",
              "type": "uint8"
            },
            {
              "internalType": "uint8",
              "name": "weekday",
              "type": "uint8"
            }
          ],
          "internalType": "struct DateTime._DateTime",
          "name": "y",
          "type": "tuple"
        }
      ],
      "name": "getDifferenceinTimeStamp",
      "outputs": [
        {
          "internalType": "uint256",
          "name": "",
          "type": "uint256"
        }
      ],
      "stateMutability": "nonpayable",
      "type": "function"
    },
    {
      "inputs": [],
      "name": "getMyDatetime",
      "outputs": [
        {
          "components": [
            {
              "internalType": "uint16",
              "name": "year",
              "type": "uint16"
            },
            {
              "internalType": "uint8",
              "name": "month",
              "type": "uint8"
            },
            {
              "internalType": "uint8",
              "name": "day",
              "type": "uint8"
            },
            {
              "internalType": "uint8",
              "name": "hour",
              "type": "uint8"
            },
            {
              "internalType": "uint8",
              "name": "minute",
              "type": "uint8"
            },
            {
              "internalType": "uint8",
              "name": "second",
              "type": "uint8"
            },
            {
              "internalType": "uint8",
              "name": "weekday",
              "type": "uint8"
            }
          ],
          "internalType": "struct DateTime._DateTime",
          "name": "",
          "type": "tuple"
        }
      ],
      "stateMutability": "nonpayable",
      "type": "function"
    },
    {
      "inputs": [],
      "name": "getMytimestamp",
      "outputs": [
        {
          "internalType": "uint256",
          "name": "",
          "type": "uint256"
        }
      ],
      "stateMutability": "nonpayable",
      "type": "function"
    },
    {
      "inputs": [
        {
          "internalType": "uint16",
          "name": "year",
          "type": "uint16"
        }
      ],
      "name": "isLeapYear",
      "outputs": [
        {
          "internalType": "bool",
          "name": "",
          "type": "bool"
        }
      ],
      "stateMutability": "pure",
      "type": "function"
    },
    {
      "inputs": [
        {
          "internalType": "uint256",
          "name": "year",
          "type": "uint256"
        }
      ],
      "name": "leapYearsBefore",
      "outputs": [
        {
          "internalType": "uint256",
          "name": "",
          "type": "uint256"
        }
      ],
      "stateMutability": "pure",
      "type": "function"
    },
    {
      "inputs": [
        {
          "internalType": "uint8",
          "name": "month",
          "type": "uint8"
        },
        {
          "internalType": "uint16",
          "name": "year",
          "type": "uint16"
        }
      ],
      "name": "getDaysInMonth",
      "outputs": [
        {
          "internalType": "uint8",
          "name": "",
          "type": "uint8"
        }
      ],
      "stateMutability": "pure",
      "type": "function"
    },
    {
      "inputs": [
        {
          "internalType": "uint256",
          "name": "timestamp",
          "type": "uint256"
        }
      ],
      "name": "getYear",
      "outputs": [
        {
          "internalType": "uint16",
          "name": "",
          "type": "uint16"
        }
      ],
      "stateMutability": "pure",
      "type": "function"
    },
    {
      "inputs": [
        {
          "internalType": "uint256",
          "name": "timestamp",
          "type": "uint256"
        }
      ],
      "name": "getMonth",
      "outputs": [
        {
          "internalType": "uint8",
          "name": "",
          "type": "uint8"
        }
      ],
      "stateMutability": "nonpayable",
      "type": "function"
    },
    {
      "inputs": [
        {
          "internalType": "uint256",
          "name": "timestamp",
          "type": "uint256"
        }
      ],
      "name": "getDay",
      "outputs": [
        {
          "internalType": "uint8",
          "name": "",
          "type": "uint8"
        }
      ],
      "stateMutability": "nonpayable",
      "type": "function"
    },
    {
      "inputs": [
        {
          "internalType": "uint256",
          "name": "timestamp",
          "type": "uint256"
        }
      ],
      "name": "getHour",
      "outputs": [
        {
          "internalType": "uint8",
          "name": "",
          "type": "uint8"
        }
      ],
      "stateMutability": "pure",
      "type": "function"
    },
    {
      "inputs": [
        {
          "internalType": "uint256",
          "name": "timestamp",
          "type": "uint256"
        }
      ],
      "name": "getMinute",
      "outputs": [
        {
          "internalType": "uint8",
          "name": "",
          "type": "uint8"
        }
      ],
      "stateMutability": "pure",
      "type": "function"
    },
    {
      "inputs": [
        {
          "internalType": "uint256",
          "name": "timestamp",
          "type": "uint256"
        }
      ],
      "name": "getSecond",
      "outputs": [
        {
          "internalType": "uint8",
          "name": "",
          "type": "uint8"
        }
      ],
      "stateMutability": "pure",
      "type": "function"
    },
    {
      "inputs": [
        {
          "internalType": "uint256",
          "name": "timestamp",
          "type": "uint256"
        }
      ],
      "name": "getWeekday",
      "outputs": [
        {
          "internalType": "uint8",
          "name": "",
          "type": "uint8"
        }
      ],
      "stateMutability": "pure",
      "type": "function"
    },
    {
      "inputs": [
        {
          "internalType": "uint16",
          "name": "year",
          "type": "uint16"
        },
        {
          "internalType": "uint8",
          "name": "month",
          "type": "uint8"
        },
        {
          "internalType": "uint8",
          "name": "day",
          "type": "uint8"
        },
        {
          "internalType": "uint8",
          "name": "hour",
          "type": "uint8"
        },
        {
          "internalType": "uint8",
          "name": "minute",
          "type": "uint8"
        }
      ],
      "name": "toTimestamp",
      "outputs": [
        {
          "internalType": "uint256",
          "name": "timestamp",
          "type": "uint256"
        }
      ],
      "stateMutability": "pure",
      "type": "function"
    },
    {
      "inputs": [
        {
          "internalType": "uint16",
          "name": "year",
          "type": "uint16"
        },
        {
          "internalType": "uint8",
          "name": "month",
          "type": "uint8"
        },
        {
          "internalType": "uint8",
          "name": "day",
          "type": "uint8"
        },
        {
          "internalType": "uint8",
          "name": "hour",
          "type": "uint8"
        }
      ],
      "name": "toTimestamp",
      "outputs": [
        {
          "internalType": "uint256",
          "name": "timestamp",
          "type": "uint256"
        }
      ],
      "stateMutability": "pure",
      "type": "function"
    },
    {
      "inputs": [
        {
          "internalType": "uint16",
          "name": "year",
          "type": "uint16"
        },
        {
          "internalType": "uint8",
          "name": "month",
          "type": "uint8"
        },
        {
          "internalType": "uint8",
          "name": "day",
          "type": "uint8"
        }
      ],
      "name": "toTimestamp",
      "outputs": [
        {
          "internalType": "uint256",
          "name": "timestamp",
          "type": "uint256"
        }
      ],
      "stateMutability": "pure",
      "type": "function"
    },
    {
      "inputs": [
        {
          "internalType": "uint16",
          "name": "year",
          "type": "uint16"
        },
        {
          "internalType": "uint8",
          "name": "month",
          "type": "uint8"
        },
        {
          "internalType": "uint8",
          "name": "day",
          "type": "uint8"
        },
        {
          "internalType": "uint8",
          "name": "hour",
          "type": "uint8"
        },
        {
          "internalType": "uint8",
          "name": "minute",
          "type": "uint8"
        },
        {
          "internalType": "uint8",
          "name": "second",
          "type": "uint8"
        }
      ],
      "name": "toTimestamp",
      "outputs": [
        {
          "internalType": "uint256",
          "name": "timestamp",
          "type": "uint256"
        }
      ],
      "stateMutability": "pure",
      "type": "function"
    }
  ],
  "bytecode": "0x608060405234801561001057600080fd5b50611ebd806100206000396000f3fe608060405234801561001057600080fd5b506004361061014d5760003560e01c80638c8d98a0116100c3578063b238ad0e1161007c578063b238ad0e14610464578063c986da5514610494578063d04e48f1146104c4578063e44f2111146104e0578063f4b8ef31146104fe578063fa93f883146105225761014d565b80638c8d98a0146103445780639054bdec1461037457806392d66313146103a4578063a324ad24146103d4578063a6f0e57714610404578063b1999937146104345761014d565b80635133ae24116101155780635133ae241461021e57806362ba96871461025457806365c72840146102845780637d44d284146102b45780637f791833146102e45780638aa001fc146103145761014d565b8063284343df146101525780633e239e1a146101705780634a39ad1d146101a05780634ac1ad78146101be5780634bb9b47d146101ee575b600080fd5b61015a610552565b6040516101679190611ae9565b60405180910390f35b61018a600480360381019061018591906118dc565b61055c565b6040516101979190611b04565b60405180910390f35b6101a8610589565b6040516101b59190611ae9565b60405180910390f35b6101d860048036038101906101d391906118dc565b61058f565b6040516101e59190611b04565b60405180910390f35b610208600480360381019061020391906116c4565b6105bf565b6040516102159190611ae9565b60405180910390f35b610238600480360381019061023391906118dc565b61063e565b60405161024b9796959493929190611a7a565b60405180910390f35b61026e600480360381019061026991906117dc565b6106dc565b60405161027b9190611ae9565b60405180910390f35b61029e600480360381019061029991906118dc565b6106f8565b6040516102ab9190611b04565b60405180910390f35b6102ce60048036038101906102c991906116c4565b61070e565b6040516102db9190611a44565b60405180910390f35b6102fe60048036038101906102f99190611779565b61079b565b60405161030b9190611ae9565b60405180910390f35b61032e600480360381019061032991906118dc565b6107b6565b60405161033b9190611b04565b60405180910390f35b61035e6004803603810190610359919061172a565b6107cc565b60405161036b9190611ae9565b60405180910390f35b61038e60048036038101906103899190611853565b6107e7565b60405161039b9190611ae9565b60405180910390f35b6103be60048036038101906103b991906118dc565b610d66565b6040516103cb9190611a5f565b60405180910390f35b6103ee60048036038101906103e991906118dc565b610e7d565b6040516103fb9190611b04565b60405180910390f35b61041e60048036038101906104199190611701565b610e93565b60405161042b9190611a29565b60405180910390f35b61044e600480360381019061044991906118dc565b610f02565b60405161045b9190611ae9565b60405180910390f35b61047e60048036038101906104799190611905565b610f56565b60405161048b9190611b04565b60405180910390f35b6104ae60048036038101906104a991906118dc565b611022565b6040516104bb9190611a44565b60405180910390f35b6104de60048036038101906104d991906118dc565b6110b8565b005b6104e86111b9565b6040516104f59190611a44565b60405180910390f35b6105066112a1565b6040516105199796959493929190611a7a565b60405180910390f35b61053c600480360381019061053791906118dc565b61132d565b6040516105499190611b04565b60405180910390f35b6000600454905090565b60006018603c808461056e9190611ba6565b6105789190611ba6565b6105829190611d84565b9050919050565b60045481565b60006007600462015180846105a49190611ba6565b6105ae9190611b50565b6105b89190611d84565b9050919050565b600082826105e9826000015183602001518460400151856060015186608001518760a001516107e7565b600081905550610615816000015182602001518360400151846060015185608001518660a001516107e7565b60018190555060005460015461062b9190611c65565b6002819055506002549250505092915050565b60056020528060005260406000206000915090508060000160009054906101000a900461ffff16908060000160029054906101000a900460ff16908060000160039054906101000a900460ff16908060000160049054906101000a900460ff16908060000160059054906101000a900460ff16908060000160069054906101000a900460ff16908060000160079054906101000a900460ff16905087565b60006106ed868686868660006107e7565b905095945050505050565b60006107038261134e565b604001519050919050565b61071661155f565b828261073e826000015183602001518460400151856060015186608001518760a001516107e7565b60008190555061076a816000015182602001518360400151846060015185608001518660a001516107e7565b6001819055506000546001546107809190611c65565b600281905550610791600254611022565b9250505092915050565b60006107ac858585856000806107e7565b9050949350505050565b6000603c826107c59190611d84565b9050919050565b60006107de84848460008060006107e7565b90509392505050565b6000806107b290505b8761ffff168161ffff16101561084b5761080981610e93565b15610825576301e285008261081e9190611b50565b9150610838565b6301e13380826108359190611b50565b91505b808061084390611cfe565b9150506107f0565b6108536115b2565b601f816000600c811061088f577f4e487b7100000000000000000000000000000000000000000000000000000000600052603260045260246000fd5b602002019060ff16908160ff16815250506108a989610e93565b1561090057601d816001600c81106108ea577f4e487b7100000000000000000000000000000000000000000000000000000000600052603260045260246000fd5b602002019060ff16908160ff168152505061094e565b601c816001600c811061093c577f4e487b7100000000000000000000000000000000000000000000000000000000600052603260045260246000fd5b602002019060ff16908160ff16815250505b601f816002600c811061098a577f4e487b7100000000000000000000000000000000000000000000000000000000600052603260045260246000fd5b602002019060ff16908160ff1681525050601e816003600c81106109d7577f4e487b7100000000000000000000000000000000000000000000000000000000600052603260045260246000fd5b602002019060ff16908160ff1681525050601f816004600c8110610a24577f4e487b7100000000000000000000000000000000000000000000000000000000600052603260045260246000fd5b602002019060ff16908160ff1681525050601e816005600c8110610a71577f4e487b7100000000000000000000000000000000000000000000000000000000600052603260045260246000fd5b602002019060ff16908160ff1681525050601f816006600c8110610abe577f4e487b7100000000000000000000000000000000000000000000000000000000600052603260045260246000fd5b602002019060ff16908160ff1681525050601f816007600c8110610b0b577f4e487b7100000000000000000000000000000000000000000000000000000000600052603260045260246000fd5b602002019060ff16908160ff1681525050601e816008600c8110610b58577f4e487b7100000000000000000000000000000000000000000000000000000000600052603260045260246000fd5b602002019060ff16908160ff1681525050601f816009600c8110610ba5577f4e487b7100000000000000000000000000000000000000000000000000000000600052603260045260246000fd5b602002019060ff16908160ff1681525050601e81600a600c8110610bf2577f4e487b7100000000000000000000000000000000000000000000000000000000600052603260045260246000fd5b602002019060ff16908160ff1681525050601f81600b600c8110610c3f577f4e487b7100000000000000000000000000000000000000000000000000000000600052603260045260246000fd5b602002019060ff16908160ff1681525050600191505b8760ff168261ffff161015610ce35780600183610c729190611c31565b61ffff16600c8110610cad577f4e487b7100000000000000000000000000000000000000000000000000000000600052603260045260246000fd5b602002015160ff1662015180610cc39190611bd7565b83610cce9190611b50565b92508180610cdb90611cfe565b925050610c55565b600187610cf09190611c99565b60ff1662015180610d019190611bd7565b83610d0c9190611b50565b92508560ff16610e10610d1f9190611bd7565b83610d2a9190611b50565b92508460ff16603c610d3c9190611bd7565b83610d479190611b50565b92508360ff1683610d589190611b50565b925050509695505050505050565b600080600090506000806301e1338085610d809190611ba6565b6107b261ffff16610d919190611b50565b9150610da26107b261ffff16610f02565b610daf8361ffff16610f02565b610db99190611c65565b9050806301e28500610dcb9190611bd7565b83610dd69190611b50565b9250806107b283610de79190611c31565b61ffff16610df59190611c65565b6301e13380610e049190611bd7565b83610e0f9190611b50565b92505b84831115610e7257610e2f600183610e2a9190611c31565b610e93565b15610e4b576301e2850083610e449190611c65565b9250610e5e565b6301e1338083610e5b9190611c65565b92505b600182610e6b9190611c31565b9150610e12565b819350505050919050565b6000610e888261134e565b602001519050919050565b600080600483610ea39190611d53565b61ffff1614610eb55760009050610efd565b6000606483610ec49190611d53565b61ffff1614610ed65760019050610efd565b600061019083610ee69190611d53565b61ffff1614610ef85760009050610efd565b600190505b919050565b6000600182610f119190611c65565b915061019082610f219190611ba6565b606483610f2e9190611ba6565b600484610f3b9190611ba6565b610f459190611c65565b610f4f9190611b50565b9050919050565b600060018360ff161480610f6d575060038360ff16145b80610f7b575060058360ff16145b80610f89575060078360ff16145b80610f97575060088360ff16145b80610fa55750600a8360ff16145b80610fb35750600c8360ff16145b15610fc157601f905061101c565b60048360ff161480610fd6575060068360ff16145b80610fe4575060098360ff16145b80610ff25750600b8360ff16145b1561100057601e905061101c565b61100982610e93565b1561101757601d905061101c565b601c90505b92915050565b61102a61155f565b60006040518060e0016040528061104085610d66565b61ffff16815260200161105285610e7d565b60ff168152602001611063856106f8565b60ff1681526020016110748561055c565b60ff1681526020016110858561132d565b60ff168152602001611096856107b6565b60ff1681526020016110a78561058f565b60ff16815250905080915050919050565b6110c181611022565b600360008201518160000160006101000a81548161ffff021916908361ffff16021790555060208201518160000160026101000a81548160ff021916908360ff16021790555060408201518160000160036101000a81548160ff021916908360ff16021790555060608201518160000160046101000a81548160ff021916908360ff16021790555060808201518160000160056101000a81548160ff021916908360ff16021790555060a08201518160000160066101000a81548160ff021916908360ff16021790555060c08201518160000160076101000a81548160ff021916908360ff1602179055509050508060048190555050565b6111c161155f565b60036040518060e00160405290816000820160009054906101000a900461ffff1661ffff1661ffff1681526020016000820160029054906101000a900460ff1660ff1660ff1681526020016000820160039054906101000a900460ff1660ff1660ff1681526020016000820160049054906101000a900460ff1660ff1660ff1681526020016000820160059054906101000a900460ff1660ff1660ff1681526020016000820160069054906101000a900460ff1660ff1660ff1681526020016000820160079054906101000a900460ff1660ff1660ff1681525050905090565b60038060000160009054906101000a900461ffff16908060000160029054906101000a900460ff16908060000160039054906101000a900460ff16908060000160049054906101000a900460ff16908060000160059054906101000a900460ff16908060000160069054906101000a900460ff16908060000160079054906101000a900460ff16905087565b6000603c808361133d9190611ba6565b6113479190611d84565b9050919050565b61135661155f565b6000808061136385610d66565b846000019061ffff16908161ffff16815250506113856107b261ffff16610f02565b611396856000015161ffff16610f02565b6113a09190611c65565b9150816301e285006113b29190611bd7565b836113bd9190611b50565b9250816107b285600001516113d29190611c31565b61ffff166113e09190611c65565b6301e133806113ef9190611bd7565b836113fa9190611b50565b92506000600191505b600c8260ff161161147a5761141c828660000151610f56565b60ff166201518061142d9190611bd7565b905085848261143c9190611b50565b11156114595781856020019060ff16908160ff168152505061147a565b80846114659190611b50565b9350818061147290611d29565b925050611403565b600191505b61149185602001518660000151610f56565b60ff168260ff16116114ee578584620151806114ad9190611b50565b11156114ca5781856040019060ff16908160ff16815250506114ee565b62015180846114d99190611b50565b935081806114e690611d29565b92505061147f565b6114f78661055c565b856060019060ff16908160ff16815250506115118661132d565b856080019060ff16908160ff168152505061152b866107b6565b8560a0019060ff16908160ff16815250506115458661058f565b8560c0019060ff16908160ff168152505050505050919050565b6040518060e00160405280600061ffff168152602001600060ff168152602001600060ff168152602001600060ff168152602001600060ff168152602001600060ff168152602001600060ff1681525090565b604051806101800160405280600c90602082028036833780820191505090505090565b600060e082840312156115e757600080fd5b6115f160e0611b1f565b9050600061160184828501611685565b6000830152506020611615848285016116af565b6020830152506040611629848285016116af565b604083015250606061163d848285016116af565b6060830152506080611651848285016116af565b60808301525060a0611665848285016116af565b60a08301525060c0611679848285016116af565b60c08301525092915050565b60008135905061169481611e42565b92915050565b6000813590506116a981611e59565b92915050565b6000813590506116be81611e70565b92915050565b6000806101c083850312156116d857600080fd5b60006116e6858286016115d5565b92505060e06116f7858286016115d5565b9150509250929050565b60006020828403121561171357600080fd5b600061172184828501611685565b91505092915050565b60008060006060848603121561173f57600080fd5b600061174d86828701611685565b935050602061175e868287016116af565b925050604061176f868287016116af565b9150509250925092565b6000806000806080858703121561178f57600080fd5b600061179d87828801611685565b94505060206117ae878288016116af565b93505060406117bf878288016116af565b92505060606117d0878288016116af565b91505092959194509250565b600080600080600060a086880312156117f457600080fd5b600061180288828901611685565b9550506020611813888289016116af565b9450506040611824888289016116af565b9350506060611835888289016116af565b9250506080611846888289016116af565b9150509295509295909350565b60008060008060008060c0878903121561186c57600080fd5b600061187a89828a01611685565b965050602061188b89828a016116af565b955050604061189c89828a016116af565b94505060606118ad89828a016116af565b93505060806118be89828a016116af565b92505060a06118cf89828a016116af565b9150509295509295509295565b6000602082840312156118ee57600080fd5b60006118fc8482850161169a565b91505092915050565b6000806040838503121561191857600080fd5b6000611926858286016116af565b925050602061193785828601611685565b9150509250929050565b61194a81611ccd565b82525050565b60e08201600082015161196660008501826119de565b5060208201516119796020850182611a0b565b50604082015161198c6040850182611a0b565b50606082015161199f6060850182611a0b565b5060808201516119b26080850182611a0b565b5060a08201516119c560a0850182611a0b565b5060c08201516119d860c0850182611a0b565b50505050565b6119e781611cd9565b82525050565b6119f681611cd9565b82525050565b611a0581611ce7565b82525050565b611a1481611cf1565b82525050565b611a2381611cf1565b82525050565b6000602082019050611a3e6000830184611941565b92915050565b600060e082019050611a596000830184611950565b92915050565b6000602082019050611a7460008301846119ed565b92915050565b600060e082019050611a8f600083018a6119ed565b611a9c6020830189611a1a565b611aa96040830188611a1a565b611ab66060830187611a1a565b611ac36080830186611a1a565b611ad060a0830185611a1a565b611add60c0830184611a1a565b98975050505050505050565b6000602082019050611afe60008301846119fc565b92915050565b6000602082019050611b196000830184611a1a565b92915050565b6000604051905081810181811067ffffffffffffffff82111715611b4657611b45611e13565b5b8060405250919050565b6000611b5b82611ce7565b9150611b6683611ce7565b9250827fffffffffffffffffffffffffffffffffffffffffffffffffffffffffffffffff03821115611b9b57611b9a611db5565b5b828201905092915050565b6000611bb182611ce7565b9150611bbc83611ce7565b925082611bcc57611bcb611de4565b5b828204905092915050565b6000611be282611ce7565b9150611bed83611ce7565b9250817fffffffffffffffffffffffffffffffffffffffffffffffffffffffffffffffff0483118215151615611c2657611c25611db5565b5b828202905092915050565b6000611c3c82611cd9565b9150611c4783611cd9565b925082821015611c5a57611c59611db5565b5b828203905092915050565b6000611c7082611ce7565b9150611c7b83611ce7565b925082821015611c8e57611c8d611db5565b5b828203905092915050565b6000611ca482611cf1565b9150611caf83611cf1565b925082821015611cc257611cc1611db5565b5b828203905092915050565b60008115159050919050565b600061ffff82169050919050565b6000819050919050565b600060ff82169050919050565b6000611d0982611cd9565b915061ffff821415611d1e57611d1d611db5565b5b600182019050919050565b6000611d3482611cf1565b915060ff821415611d4857611d47611db5565b5b600182019050919050565b6000611d5e82611cd9565b9150611d6983611cd9565b925082611d7957611d78611de4565b5b828206905092915050565b6000611d8f82611ce7565b9150611d9a83611ce7565b925082611daa57611da9611de4565b5b828206905092915050565b7f4e487b7100000000000000000000000000000000000000000000000000000000600052601160045260246000fd5b7f4e487b7100000000000000000000000000000000000000000000000000000000600052601260045260246000fd5b7f4e487b7100000000000000000000000000000000000000000000000000000000600052604160045260246000fd5b611e4b81611cd9565b8114611e5657600080fd5b50565b611e6281611ce7565b8114611e6d57600080fd5b50565b611e7981611cf1565b8114611e8457600080fd5b5056fea26469706673582212204c0500fb73bb6ac1724b3536be94a805e1fcb27f327744318759517e223aee8d64736f6c63430008000033",
  "immutableReferences": {},
  "source": "pragma solidity ^0.8.0;\r\n\r\ncontract DateTime {\r\n\r\n\r\n\r\n        struct _DateTime {\r\n                uint16 year;\r\n                uint8 month;\r\n                uint8 day;\r\n                uint8 hour;\r\n                uint8 minute;\r\n                uint8 second;\r\n                uint8 weekday;\r\n        }\r\n        \r\n        function setDate(uint _timeStamp) public {\r\n                Mydatetime = toDateTime(_timeStamp);\r\n                Mytimestamp = _timeStamp;\r\n                \r\n        }\r\n        \r\n        function toDateTime(uint _timeStamp) public returns (_DateTime memory) {\r\n                _DateTime memory to_return = _DateTime({\r\n                    year: getYear(_timeStamp),\r\n                    month: getMonth(_timeStamp),\r\n                    day: getDay(_timeStamp),\r\n                    hour: getHour(_timeStamp),\r\n                    minute: getMinute(_timeStamp),\r\n                    second: getSecond(_timeStamp),\r\n                    weekday: getWeekday(_timeStamp)\r\n                });\r\n                return to_return;\r\n        }\r\n\r\n\r\n        uint internal first;\r\n        uint internal second;\r\n        uint internal difference;\r\n        modifier differences(_DateTime memory x, _DateTime memory y){\r\n                first = toTimestamp(x.year, x.month, x.day, x.hour, x.minute, x.second);\r\n                second = toTimestamp(y.year, y.month, y.day, y.hour, y.minute, y.second);\r\n                difference = second - first; \r\n                _;\r\n        }\r\n\r\n        function getDifferenceinDateTime(_DateTime memory x, _DateTime memory y) public differences(x, y) returns (_DateTime memory){\r\n                return toDateTime(difference);\r\n        }\r\n        \r\n        \r\n        function getDifferenceinTimeStamp(_DateTime memory x, _DateTime memory y) public differences(x, y) returns (uint){\r\n                return difference;\r\n        }\r\n        \r\n        \r\n        _DateTime public Mydatetime;\r\n        uint256 public Mytimestamp;\r\n        \r\n        function getMyDatetime() public returns (_DateTime memory){\r\n            return Mydatetime;\r\n        }\r\n        \r\n        function getMytimestamp() public returns (uint256){\r\n            return Mytimestamp;\r\n        }\r\n        \r\n        mapping (uint => _DateTime) public dates;\r\n\r\n        uint constant DAY_IN_SECONDS = 86400;\r\n        uint constant YEAR_IN_SECONDS = 31536000;\r\n        uint constant LEAP_YEAR_IN_SECONDS = 31622400;\r\n        \r\n        uint constant HOUR_IN_SECONDS = 3600;\r\n        uint constant MINUTE_IN_SECONDS = 60;\r\n        \r\n        uint16 constant ORIGIN_YEAR = 1970;\r\n\r\n        function isLeapYear(uint16 year) public pure returns (bool) {\r\n                if (year % 4 != 0) {\r\n                        return false;\r\n                }\r\n                if (year % 100 != 0) {\r\n                        return true;\r\n                }\r\n                if (year % 400 != 0) {\r\n                        return false;\r\n                }\r\n                return true;\r\n        }\r\n\r\n        function leapYearsBefore(uint year) public pure returns (uint) {\r\n                year -= 1;\r\n                return year / 4 - year / 100 + year / 400;\r\n        }\r\n\r\n        function getDaysInMonth(uint8 month, uint16 year) public pure returns (uint8) {\r\n                if (month == 1 || month == 3 || month == 5 || month == 7 || month == 8 || month == 10 || month == 12) {\r\n                        return 31;\r\n                }\r\n                else if (month == 4 || month == 6 || month == 9 || month == 11) {\r\n                        return 30;\r\n                }\r\n                else if (isLeapYear(year)) {\r\n                        return 29;\r\n                }\r\n                else {\r\n                        return 28;\r\n                }\r\n        }\r\n\r\n        function parseTimestamp(uint timestamp) internal returns (_DateTime memory dt) {\r\n                uint secondsAccountedFor = 0;\r\n                uint buf;\r\n                uint8 i;\r\n\r\n                // Year\r\n                dt.year = getYear(timestamp);\r\n                buf = leapYearsBefore(dt.year) - leapYearsBefore(ORIGIN_YEAR);\r\n\r\n                secondsAccountedFor += LEAP_YEAR_IN_SECONDS * buf;\r\n                secondsAccountedFor += YEAR_IN_SECONDS * (dt.year - ORIGIN_YEAR - buf);\r\n\r\n                // Month\r\n                uint secondsInMonth;\r\n                for (i = 1; i <= 12; i++) {\r\n                        secondsInMonth = DAY_IN_SECONDS * getDaysInMonth(i, dt.year);\r\n                        if (secondsInMonth + secondsAccountedFor > timestamp) {\r\n                                dt.month = i;\r\n                                break;\r\n                        }\r\n                        secondsAccountedFor += secondsInMonth;\r\n                }\r\n\r\n                // Day\r\n                for (i = 1; i <= getDaysInMonth(dt.month, dt.year); i++) {\r\n                        if (DAY_IN_SECONDS + secondsAccountedFor > timestamp) {\r\n                                dt.day = i;\r\n                                break;\r\n                        }\r\n                        secondsAccountedFor += DAY_IN_SECONDS;\r\n                }\r\n\r\n                // Hour\r\n                dt.hour = getHour(timestamp);\r\n\r\n                // Minute\r\n                dt.minute = getMinute(timestamp);\r\n\r\n                // Second\r\n                dt.second = getSecond(timestamp);\r\n\r\n                // Day of week.\r\n                dt.weekday = getWeekday(timestamp);\r\n        }\r\n        \r\n\r\n        function getYear(uint timestamp) public pure returns (uint16) {\r\n                uint secondsAccountedFor = 0;\r\n                uint16 year;\r\n                uint numLeapYears;\r\n\r\n                // Year\r\n                year = uint16(ORIGIN_YEAR + timestamp / YEAR_IN_SECONDS);\r\n                numLeapYears = leapYearsBefore(year) - leapYearsBefore(ORIGIN_YEAR);\r\n\r\n                secondsAccountedFor += LEAP_YEAR_IN_SECONDS * numLeapYears;\r\n                secondsAccountedFor += YEAR_IN_SECONDS * (year - ORIGIN_YEAR - numLeapYears);\r\n\r\n                while (secondsAccountedFor > timestamp) {\r\n                        if (isLeapYear(uint16(year - 1))) {\r\n                                secondsAccountedFor -= LEAP_YEAR_IN_SECONDS;\r\n                        }\r\n                        else {\r\n                                secondsAccountedFor -= YEAR_IN_SECONDS;\r\n                        }\r\n                        year -= 1;\r\n                }\r\n                return year;\r\n        }\r\n\r\n        function getMonth(uint timestamp) public returns (uint8) {\r\n                return parseTimestamp(timestamp).month;\r\n        }\r\n\r\n        function getDay(uint timestamp) public returns (uint8) {\r\n                return parseTimestamp(timestamp).day;\r\n        }\r\n\r\n        function getHour(uint timestamp) public pure returns (uint8) {\r\n                return uint8((timestamp / 60 / 60) % 24);\r\n        }\r\n\r\n        function getMinute(uint timestamp) public pure returns (uint8) {\r\n                return uint8((timestamp / 60) % 60);\r\n        }\r\n\r\n        function getSecond(uint timestamp) public pure returns (uint8) {\r\n                return uint8(timestamp % 60);\r\n        }\r\n\r\n        function getWeekday(uint timestamp) public pure returns (uint8) {\r\n                return uint8((timestamp / DAY_IN_SECONDS + 4) % 7);\r\n        }\r\n\r\n        function toTimestamp(uint16 year, uint8 month, uint8 day) public pure returns (uint timestamp) {\r\n                return toTimestamp(year, month, day, 0, 0, 0);\r\n        }\r\n\r\n        function toTimestamp(uint16 year, uint8 month, uint8 day, uint8 hour) public pure returns (uint timestamp) {\r\n                return toTimestamp(year, month, day, hour, 0, 0);\r\n        }\r\n\r\n        function toTimestamp(uint16 year, uint8 month, uint8 day, uint8 hour, uint8 minute) public pure returns (uint timestamp) {\r\n                return toTimestamp(year, month, day, hour, minute, 0);\r\n        }\r\n\r\n        function toTimestamp(uint16 year, uint8 month, uint8 day, uint8 hour, uint8 minute, uint8 second) public pure returns (uint timestamp) {\r\n                uint16 i;\r\n\r\n                // Year\r\n                for (i = ORIGIN_YEAR; i < year; i++) {\r\n                        if (isLeapYear(i)) {\r\n                                timestamp += LEAP_YEAR_IN_SECONDS;\r\n                        }\r\n                        else {\r\n                                timestamp += YEAR_IN_SECONDS;\r\n                        }\r\n                }\r\n\r\n                // Month\r\n                uint8[12] memory monthDayCounts;\r\n                monthDayCounts[0] = 31;\r\n                if (isLeapYear(year)) {\r\n                        monthDayCounts[1] = 29;\r\n                }\r\n                else {\r\n                        monthDayCounts[1] = 28;\r\n                }\r\n                monthDayCounts[2] = 31;\r\n                monthDayCounts[3] = 30;\r\n                monthDayCounts[4] = 31;\r\n                monthDayCounts[5] = 30;\r\n                monthDayCounts[6] = 31;\r\n                monthDayCounts[7] = 31;\r\n                monthDayCounts[8] = 30;\r\n                monthDayCounts[9] = 31;\r\n                monthDayCounts[10] = 30;\r\n                monthDayCounts[11] = 31;\r\n\r\n                for (i = 1; i < month; i++) {\r\n                        timestamp += DAY_IN_SECONDS * monthDayCounts[i - 1];\r\n                }\r\n\r\n                // Day\r\n                timestamp += DAY_IN_SECONDS * (day - 1);\r\n\r\n                // Hour\r\n                timestamp += HOUR_IN_SECONDS * (hour);\r\n\r\n                // Minute\r\n                timestamp += MINUTE_IN_SECONDS * (minute);\r\n\r\n                // Second\r\n                timestamp += second;\r\n\r\n                return timestamp;\r\n        }\r\n}",
  "sourcePath": "C:\\Users\\Dell\\Desktop\\Olzhas\\Summer2021\\UNICOIN\\contracts\\Datetime.sol",
  "compiler": {
    "name": "solc",
    "version": "0.8.0+commit.c7dfd78e.Emscripten.clang"
  },
  "schemaVersion": "3.4.2",
  "updatedAt": "2021-07-25T08:40:59.748Z",
  "devdoc": {
    "kind": "dev",
    "methods": {},
    "version": 1
  },
  "userdoc": {
    "kind": "user",
    "methods": {},
    "version": 1
  }
}