{
  "contractName": "DateTime",
  "abi": [
    {
      "inputs": [
        {
          "internalType": "uint256",
          "name": "",
          "type": "uint256"
        }
      ],
      "name": "dates",
      "outputs": [
        {
          "internalType": "uint16",
          "name": "year",
          "type": "uint16"
        },
        {
          "internalType": "uint8",
          "name": "month",
          "type": "uint8"
        },
        {
          "internalType": "uint8",
          "name": "day",
          "type": "uint8"
        },
        {
          "internalType": "uint8",
          "name": "hour",
          "type": "uint8"
        },
        {
          "internalType": "uint8",
          "name": "minute",
          "type": "uint8"
        },
        {
          "internalType": "uint8",
          "name": "second",
          "type": "uint8"
        },
        {
          "internalType": "uint8",
          "name": "weekday",
          "type": "uint8"
        }
      ],
      "stateMutability": "view",
      "type": "function"
    },
    {
      "inputs": [],
      "name": "myTime",
      "outputs": [
        {
          "internalType": "uint16",
          "name": "year",
          "type": "uint16"
        },
        {
          "internalType": "uint8",
          "name": "month",
          "type": "uint8"
        },
        {
          "internalType": "uint8",
          "name": "day",
          "type": "uint8"
        },
        {
          "internalType": "uint8",
          "name": "hour",
          "type": "uint8"
        },
        {
          "internalType": "uint8",
          "name": "minute",
          "type": "uint8"
        },
        {
          "internalType": "uint8",
          "name": "second",
          "type": "uint8"
        },
        {
          "internalType": "uint8",
          "name": "weekday",
          "type": "uint8"
        }
      ],
      "stateMutability": "view",
      "type": "function"
    },
    {
      "inputs": [
        {
          "internalType": "uint256",
          "name": "_timeStamp",
          "type": "uint256"
        }
      ],
      "name": "setDate",
      "outputs": [],
      "stateMutability": "nonpayable",
      "type": "function"
    },
    {
      "inputs": [
        {
          "internalType": "uint16",
          "name": "year",
          "type": "uint16"
        }
      ],
      "name": "isLeapYear",
      "outputs": [
        {
          "internalType": "bool",
          "name": "",
          "type": "bool"
        }
      ],
      "stateMutability": "pure",
      "type": "function"
    },
    {
      "inputs": [
        {
          "internalType": "uint256",
          "name": "year",
          "type": "uint256"
        }
      ],
      "name": "leapYearsBefore",
      "outputs": [
        {
          "internalType": "uint256",
          "name": "",
          "type": "uint256"
        }
      ],
      "stateMutability": "pure",
      "type": "function"
    },
    {
      "inputs": [
        {
          "internalType": "uint8",
          "name": "month",
          "type": "uint8"
        },
        {
          "internalType": "uint16",
          "name": "year",
          "type": "uint16"
        }
      ],
      "name": "getDaysInMonth",
      "outputs": [
        {
          "internalType": "uint8",
          "name": "",
          "type": "uint8"
        }
      ],
      "stateMutability": "pure",
      "type": "function"
    },
    {
      "inputs": [
        {
          "internalType": "uint256",
          "name": "timestamp",
          "type": "uint256"
        }
      ],
      "name": "getYear",
      "outputs": [
        {
          "internalType": "uint16",
          "name": "",
          "type": "uint16"
        }
      ],
      "stateMutability": "pure",
      "type": "function"
    },
    {
      "inputs": [
        {
          "internalType": "uint256",
          "name": "timestamp",
          "type": "uint256"
        }
      ],
      "name": "getMonth",
      "outputs": [
        {
          "internalType": "uint8",
          "name": "",
          "type": "uint8"
        }
      ],
      "stateMutability": "nonpayable",
      "type": "function"
    },
    {
      "inputs": [
        {
          "internalType": "uint256",
          "name": "timestamp",
          "type": "uint256"
        }
      ],
      "name": "getDay",
      "outputs": [
        {
          "internalType": "uint8",
          "name": "",
          "type": "uint8"
        }
      ],
      "stateMutability": "nonpayable",
      "type": "function"
    },
    {
      "inputs": [
        {
          "internalType": "uint256",
          "name": "timestamp",
          "type": "uint256"
        }
      ],
      "name": "getHour",
      "outputs": [
        {
          "internalType": "uint8",
          "name": "",
          "type": "uint8"
        }
      ],
      "stateMutability": "pure",
      "type": "function"
    },
    {
      "inputs": [
        {
          "internalType": "uint256",
          "name": "timestamp",
          "type": "uint256"
        }
      ],
      "name": "getMinute",
      "outputs": [
        {
          "internalType": "uint8",
          "name": "",
          "type": "uint8"
        }
      ],
      "stateMutability": "pure",
      "type": "function"
    },
    {
      "inputs": [
        {
          "internalType": "uint256",
          "name": "timestamp",
          "type": "uint256"
        }
      ],
      "name": "getSecond",
      "outputs": [
        {
          "internalType": "uint8",
          "name": "",
          "type": "uint8"
        }
      ],
      "stateMutability": "pure",
      "type": "function"
    },
    {
      "inputs": [
        {
          "internalType": "uint256",
          "name": "timestamp",
          "type": "uint256"
        }
      ],
      "name": "getWeekday",
      "outputs": [
        {
          "internalType": "uint8",
          "name": "",
          "type": "uint8"
        }
      ],
      "stateMutability": "pure",
      "type": "function"
    },
    {
      "inputs": [
        {
          "internalType": "uint16",
          "name": "year",
          "type": "uint16"
        },
        {
          "internalType": "uint8",
          "name": "month",
          "type": "uint8"
        },
        {
          "internalType": "uint8",
          "name": "day",
          "type": "uint8"
        },
        {
          "internalType": "uint8",
          "name": "hour",
          "type": "uint8"
        },
        {
          "internalType": "uint8",
          "name": "minute",
          "type": "uint8"
        }
      ],
      "name": "toTimestamp",
      "outputs": [
        {
          "internalType": "uint256",
          "name": "timestamp",
          "type": "uint256"
        }
      ],
      "stateMutability": "pure",
      "type": "function"
    },
    {
      "inputs": [
        {
          "internalType": "uint16",
          "name": "year",
          "type": "uint16"
        },
        {
          "internalType": "uint8",
          "name": "month",
          "type": "uint8"
        },
        {
          "internalType": "uint8",
          "name": "day",
          "type": "uint8"
        },
        {
          "internalType": "uint8",
          "name": "hour",
          "type": "uint8"
        }
      ],
      "name": "toTimestamp",
      "outputs": [
        {
          "internalType": "uint256",
          "name": "timestamp",
          "type": "uint256"
        }
      ],
      "stateMutability": "pure",
      "type": "function"
    },
    {
      "inputs": [
        {
          "internalType": "uint16",
          "name": "year",
          "type": "uint16"
        },
        {
          "internalType": "uint8",
          "name": "month",
          "type": "uint8"
        },
        {
          "internalType": "uint8",
          "name": "day",
          "type": "uint8"
        }
      ],
      "name": "toTimestamp",
      "outputs": [
        {
          "internalType": "uint256",
          "name": "timestamp",
          "type": "uint256"
        }
      ],
      "stateMutability": "pure",
      "type": "function"
    },
    {
      "inputs": [
        {
          "internalType": "uint16",
          "name": "year",
          "type": "uint16"
        },
        {
          "internalType": "uint8",
          "name": "month",
          "type": "uint8"
        },
        {
          "internalType": "uint8",
          "name": "day",
          "type": "uint8"
        },
        {
          "internalType": "uint8",
          "name": "hour",
          "type": "uint8"
        },
        {
          "internalType": "uint8",
          "name": "minute",
          "type": "uint8"
        },
        {
          "internalType": "uint8",
          "name": "second",
          "type": "uint8"
        }
      ],
      "name": "toTimestamp",
      "outputs": [
        {
          "internalType": "uint256",
          "name": "timestamp",
          "type": "uint256"
        }
      ],
      "stateMutability": "pure",
      "type": "function"
    }
  ],
  "bytecode": "0x608060405234801561001057600080fd5b5061178f806100206000396000f3fe608060405234801561001057600080fd5b506004361061010b5760003560e01c80638c8d98a0116100a2578063a6f0e57711610071578063a6f0e5771461034a578063b19999371461037a578063b238ad0e146103aa578063d04e48f1146103da578063fa93f883146103f65761010b565b80638c8d98a01461028a5780639054bdec146102ba57806392d66313146102ea578063a324ad241461031a5761010b565b8063655d225f116100de578063655d225f146101d657806365c72840146101fa5780637f7918331461022a5780638aa001fc1461025a5761010b565b80633e239e1a146101105780634ac1ad78146101405780635133ae241461017057806362ba9687146101a6575b600080fd5b61012a60048036038101906101259190611299565b610426565b6040516101379190611402565b60405180910390f35b61015a60048036038101906101559190611299565b610453565b6040516101679190611402565b60405180910390f35b61018a60048036038101906101859190611299565b610483565b60405161019d9796959493929190611378565b60405180910390f35b6101c060048036038101906101bb9190611191565b610521565b6040516101cd91906113e7565b60405180910390f35b6101de61053d565b6040516101f19796959493929190611378565b60405180910390f35b610214600480360381019061020f9190611299565b6105c9565b6040516102219190611402565b60405180910390f35b610244600480360381019061023f919061112a565b6105df565b60405161025191906113e7565b60405180910390f35b610274600480360381019061026f9190611299565b6105fa565b6040516102819190611402565b60405180910390f35b6102a4600480360381019061029f91906110d7565b610610565b6040516102b191906113e7565b60405180910390f35b6102d460048036038101906102cf919061120c565b61062b565b6040516102e191906113e7565b60405180910390f35b61030460048036038101906102ff9190611299565b610996565b604051610311919061135d565b60405180910390f35b610334600480360381019061032f9190611299565b610aad565b6040516103419190611402565b60405180910390f35b610364600480360381019061035f91906110aa565b610ac3565b6040516103719190611342565b60405180910390f35b610394600480360381019061038f9190611299565b610b32565b6040516103a191906113e7565b60405180910390f35b6103c460048036038101906103bf91906112c6565b610b86565b6040516103d19190611402565b60405180910390f35b6103f460048036038101906103ef9190611299565b610c52565b005b610410600480360381019061040b9190611299565b610dc3565b60405161041d9190611402565b60405180910390f35b60006018603c80846104389190611473565b6104429190611473565b61044c9190611651565b9050919050565b60006007600462015180846104689190611473565b610472919061141d565b61047c9190611651565b9050919050565b60016020528060005260406000206000915090508060000160009054906101000a900461ffff16908060000160029054906101000a900460ff16908060000160039054906101000a900460ff16908060000160049054906101000a900460ff16908060000160059054906101000a900460ff16908060000160069054906101000a900460ff16908060000160079054906101000a900460ff16905087565b60006105328686868686600061062b565b905095945050505050565b60008060000160009054906101000a900461ffff16908060000160029054906101000a900460ff16908060000160039054906101000a900460ff16908060000160049054906101000a900460ff16908060000160059054906101000a900460ff16908060000160069054906101000a900460ff16908060000160079054906101000a900460ff16905087565b60006105d482610de4565b604001519050919050565b60006105f08585858560008061062b565b9050949350505050565b6000603c826106099190611651565b9050919050565b6000610622848484600080600061062b565b90509392505050565b6000806107b290505b8761ffff168161ffff16101561068f5761064d81610ac3565b15610669576301e2850082610662919061141d565b915061067c565b6301e1338082610679919061141d565b91505b8080610687906115cb565b915050610634565b610697610ff5565b601f816000600c81106106ad576106ac6116e0565b5b602002019060ff16908160ff16815250506106c789610ac3565b156106f857601d816001600c81106106e2576106e16116e0565b5b602002019060ff16908160ff1681525050610720565b601c816001600c811061070e5761070d6116e0565b5b602002019060ff16908160ff16815250505b601f816002600c8110610736576107356116e0565b5b602002019060ff16908160ff1681525050601e816003600c811061075d5761075c6116e0565b5b602002019060ff16908160ff1681525050601f816004600c8110610784576107836116e0565b5b602002019060ff16908160ff1681525050601e816005600c81106107ab576107aa6116e0565b5b602002019060ff16908160ff1681525050601f816006600c81106107d2576107d16116e0565b5b602002019060ff16908160ff1681525050601f816007600c81106107f9576107f86116e0565b5b602002019060ff16908160ff1681525050601e816008600c81106108205761081f6116e0565b5b602002019060ff16908160ff1681525050601f816009600c8110610847576108466116e0565b5b602002019060ff16908160ff1681525050601e81600a600c811061086e5761086d6116e0565b5b602002019060ff16908160ff1681525050601f81600b600c8110610895576108946116e0565b5b602002019060ff16908160ff1681525050600191505b8760ff168261ffff16101561091357806001836108c891906114fe565b61ffff16600c81106108dd576108dc6116e0565b5b602002015160ff16620151806108f391906114a4565b836108fe919061141d565b9250818061090b906115cb565b9250506108ab565b6001876109209190611566565b60ff166201518061093191906114a4565b8361093c919061141d565b92508560ff16610e1061094f91906114a4565b8361095a919061141d565b92508460ff16603c61096c91906114a4565b83610977919061141d565b92508360ff1683610988919061141d565b925050509695505050505050565b600080600090506000806301e13380856109b09190611473565b6107b261ffff166109c1919061141d565b91506109d26107b261ffff16610b32565b6109df8361ffff16610b32565b6109e99190611532565b9050806301e285006109fb91906114a4565b83610a06919061141d565b9250806107b283610a1791906114fe565b61ffff16610a259190611532565b6301e13380610a3491906114a4565b83610a3f919061141d565b92505b84831115610aa257610a5f600183610a5a91906114fe565b610ac3565b15610a7b576301e2850083610a749190611532565b9250610a8e565b6301e1338083610a8b9190611532565b92505b600182610a9b91906114fe565b9150610a42565b819350505050919050565b6000610ab882610de4565b602001519050919050565b600080600483610ad39190611620565b61ffff1614610ae55760009050610b2d565b6000606483610af49190611620565b61ffff1614610b065760019050610b2d565b600061019083610b169190611620565b61ffff1614610b285760009050610b2d565b600190505b919050565b6000600182610b419190611532565b915061019082610b519190611473565b606483610b5e9190611473565b600484610b6b9190611473565b610b759190611532565b610b7f919061141d565b9050919050565b600060018360ff161480610b9d575060038360ff16145b80610bab575060058360ff16145b80610bb9575060078360ff16145b80610bc7575060088360ff16145b80610bd55750600a8360ff16145b80610be35750600c8360ff16145b15610bf157601f9050610c4c565b60048360ff161480610c06575060068360ff16145b80610c14575060098360ff16145b80610c225750600b8360ff16145b15610c3057601e9050610c4c565b610c3982610ac3565b15610c4757601d9050610c4c565b601c90505b92915050565b6040518060e00160405280610c6683610996565b61ffff168152602001610c7883610aad565b60ff168152602001610c89836105c9565b60ff168152602001610c9a83610426565b60ff168152602001610cab83610dc3565b60ff168152602001610cbc836105fa565b60ff168152602001610ccd83610453565b60ff168152506000808201518160000160006101000a81548161ffff021916908361ffff16021790555060208201518160000160026101000a81548160ff021916908360ff16021790555060408201518160000160036101000a81548160ff021916908360ff16021790555060608201518160000160046101000a81548160ff021916908360ff16021790555060808201518160000160056101000a81548160ff021916908360ff16021790555060a08201518160000160066101000a81548160ff021916908360ff16021790555060c08201518160000160076101000a81548160ff021916908360ff16021790555090505050565b6000603c8083610dd39190611473565b610ddd9190611651565b9050919050565b610dec611018565b60008080610df985610996565b846000019061ffff16908161ffff1681525050610e1b6107b261ffff16610b32565b610e2c856000015161ffff16610b32565b610e369190611532565b9150816301e28500610e4891906114a4565b83610e53919061141d565b9250816107b28560000151610e6891906114fe565b61ffff16610e769190611532565b6301e13380610e8591906114a4565b83610e90919061141d565b92506000600191505b600c8260ff1611610f1057610eb2828660000151610b86565b60ff1662015180610ec391906114a4565b9050858482610ed2919061141d565b1115610eef5781856020019060ff16908160ff1681525050610f10565b8084610efb919061141d565b93508180610f08906115f6565b925050610e99565b600191505b610f2785602001518660000151610b86565b60ff168260ff1611610f8457858462015180610f43919061141d565b1115610f605781856040019060ff16908160ff1681525050610f84565b6201518084610f6f919061141d565b93508180610f7c906115f6565b925050610f15565b610f8d86610426565b856060019060ff16908160ff1681525050610fa786610dc3565b856080019060ff16908160ff1681525050610fc1866105fa565b8560a0019060ff16908160ff1681525050610fdb86610453565b8560c0019060ff16908160ff168152505050505050919050565b604051806101800160405280600c90602082028036833780820191505090505090565b6040518060e00160405280600061ffff168152602001600060ff168152602001600060ff168152602001600060ff168152602001600060ff168152602001600060ff168152602001600060ff1681525090565b60008135905061107a81611714565b92915050565b60008135905061108f8161172b565b92915050565b6000813590506110a481611742565b92915050565b6000602082840312156110c0576110bf61170f565b5b60006110ce8482850161106b565b91505092915050565b6000806000606084860312156110f0576110ef61170f565b5b60006110fe8682870161106b565b935050602061110f86828701611095565b925050604061112086828701611095565b9150509250925092565b600080600080608085870312156111445761114361170f565b5b60006111528782880161106b565b945050602061116387828801611095565b935050604061117487828801611095565b925050606061118587828801611095565b91505092959194509250565b600080600080600060a086880312156111ad576111ac61170f565b5b60006111bb8882890161106b565b95505060206111cc88828901611095565b94505060406111dd88828901611095565b93505060606111ee88828901611095565b92505060806111ff88828901611095565b9150509295509295909350565b60008060008060008060c087890312156112295761122861170f565b5b600061123789828a0161106b565b965050602061124889828a01611095565b955050604061125989828a01611095565b945050606061126a89828a01611095565b935050608061127b89828a01611095565b92505060a061128c89828a01611095565b9150509295509295509295565b6000602082840312156112af576112ae61170f565b5b60006112bd84828501611080565b91505092915050565b600080604083850312156112dd576112dc61170f565b5b60006112eb85828601611095565b92505060206112fc8582860161106b565b9150509250929050565b61130f8161159a565b82525050565b61131e816115a6565b82525050565b61132d816115b4565b82525050565b61133c816115be565b82525050565b60006020820190506113576000830184611306565b92915050565b60006020820190506113726000830184611315565b92915050565b600060e08201905061138d600083018a611315565b61139a6020830189611333565b6113a76040830188611333565b6113b46060830187611333565b6113c16080830186611333565b6113ce60a0830185611333565b6113db60c0830184611333565b98975050505050505050565b60006020820190506113fc6000830184611324565b92915050565b60006020820190506114176000830184611333565b92915050565b6000611428826115b4565b9150611433836115b4565b9250827fffffffffffffffffffffffffffffffffffffffffffffffffffffffffffffffff0382111561146857611467611682565b5b828201905092915050565b600061147e826115b4565b9150611489836115b4565b925082611499576114986116b1565b5b828204905092915050565b60006114af826115b4565b91506114ba836115b4565b9250817fffffffffffffffffffffffffffffffffffffffffffffffffffffffffffffffff04831182151516156114f3576114f2611682565b5b828202905092915050565b6000611509826115a6565b9150611514836115a6565b92508282101561152757611526611682565b5b828203905092915050565b600061153d826115b4565b9150611548836115b4565b92508282101561155b5761155a611682565b5b828203905092915050565b6000611571826115be565b915061157c836115be565b92508282101561158f5761158e611682565b5b828203905092915050565b60008115159050919050565b600061ffff82169050919050565b6000819050919050565b600060ff82169050919050565b60006115d6826115a6565b915061ffff8214156115eb576115ea611682565b5b600182019050919050565b6000611601826115be565b915060ff82141561161557611614611682565b5b600182019050919050565b600061162b826115a6565b9150611636836115a6565b925082611646576116456116b1565b5b828206905092915050565b600061165c826115b4565b9150611667836115b4565b925082611677576116766116b1565b5b828206905092915050565b7f4e487b7100000000000000000000000000000000000000000000000000000000600052601160045260246000fd5b7f4e487b7100000000000000000000000000000000000000000000000000000000600052601260045260246000fd5b7f4e487b7100000000000000000000000000000000000000000000000000000000600052603260045260246000fd5b600080fd5b61171d816115a6565b811461172857600080fd5b50565b611734816115b4565b811461173f57600080fd5b50565b61174b816115be565b811461175657600080fd5b5056fea26469706673582212208bb471007523eeb94cb883b68894a3341ef0d0d4ffc0c89a0c4d241b2be5e28364736f6c63430008060033",
  "immutableReferences": {},
  "source": "pragma solidity ^0.8.0;\r\n\r\ncontract DateTime {\r\n        /*\r\n         *  Date and Time utilities for ethereum contracts\r\n         *\r\n         */\r\n        struct _DateTime {\r\n                uint16 year;\r\n                uint8 month;\r\n                uint8 day;\r\n                uint8 hour;\r\n                uint8 minute;\r\n                uint8 second;\r\n                uint8 weekday;\r\n        }\r\n        \r\n        function setDate(uint _timeStamp) public {\r\n                myTime = _DateTime({\r\n                year: getYear(_timeStamp),\r\n                month: getMonth(_timeStamp),\r\n                day: getDay(_timeStamp),\r\n                hour: getHour(_timeStamp),\r\n                minute: getMinute(_timeStamp),\r\n                second: getSecond(_timeStamp),\r\n                weekday: getWeekday(_timeStamp)\r\n        });\r\n        }\r\n        \r\n        _DateTime public myTime;\r\n        \r\n        mapping (uint => _DateTime) public dates;\r\n\r\n        uint constant DAY_IN_SECONDS = 86400;\r\n        uint constant YEAR_IN_SECONDS = 31536000;\r\n        uint constant LEAP_YEAR_IN_SECONDS = 31622400;\r\n\r\n        uint constant HOUR_IN_SECONDS = 3600;\r\n        uint constant MINUTE_IN_SECONDS = 60;\r\n\r\n        uint16 constant ORIGIN_YEAR = 1970;\r\n\r\n        function isLeapYear(uint16 year) public pure returns (bool) {\r\n                if (year % 4 != 0) {\r\n                        return false;\r\n                }\r\n                if (year % 100 != 0) {\r\n                        return true;\r\n                }\r\n                if (year % 400 != 0) {\r\n                        return false;\r\n                }\r\n                return true;\r\n        }\r\n\r\n        function leapYearsBefore(uint year) public pure returns (uint) {\r\n                year -= 1;\r\n                return year / 4 - year / 100 + year / 400;\r\n        }\r\n\r\n        function getDaysInMonth(uint8 month, uint16 year) public pure returns (uint8) {\r\n                if (month == 1 || month == 3 || month == 5 || month == 7 || month == 8 || month == 10 || month == 12) {\r\n                        return 31;\r\n                }\r\n                else if (month == 4 || month == 6 || month == 9 || month == 11) {\r\n                        return 30;\r\n                }\r\n                else if (isLeapYear(year)) {\r\n                        return 29;\r\n                }\r\n                else {\r\n                        return 28;\r\n                }\r\n        }\r\n\r\n        function parseTimestamp(uint timestamp) internal returns (_DateTime memory dt) {\r\n                uint secondsAccountedFor = 0;\r\n                uint buf;\r\n                uint8 i;\r\n\r\n                // Year\r\n                dt.year = getYear(timestamp);\r\n                buf = leapYearsBefore(dt.year) - leapYearsBefore(ORIGIN_YEAR);\r\n\r\n                secondsAccountedFor += LEAP_YEAR_IN_SECONDS * buf;\r\n                secondsAccountedFor += YEAR_IN_SECONDS * (dt.year - ORIGIN_YEAR - buf);\r\n\r\n                // Month\r\n                uint secondsInMonth;\r\n                for (i = 1; i <= 12; i++) {\r\n                        secondsInMonth = DAY_IN_SECONDS * getDaysInMonth(i, dt.year);\r\n                        if (secondsInMonth + secondsAccountedFor > timestamp) {\r\n                                dt.month = i;\r\n                                break;\r\n                        }\r\n                        secondsAccountedFor += secondsInMonth;\r\n                }\r\n\r\n                // Day\r\n                for (i = 1; i <= getDaysInMonth(dt.month, dt.year); i++) {\r\n                        if (DAY_IN_SECONDS + secondsAccountedFor > timestamp) {\r\n                                dt.day = i;\r\n                                break;\r\n                        }\r\n                        secondsAccountedFor += DAY_IN_SECONDS;\r\n                }\r\n\r\n                // Hour\r\n                dt.hour = getHour(timestamp);\r\n\r\n                // Minute\r\n                dt.minute = getMinute(timestamp);\r\n\r\n                // Second\r\n                dt.second = getSecond(timestamp);\r\n\r\n                // Day of week.\r\n                dt.weekday = getWeekday(timestamp);\r\n        }\r\n\r\n        function getYear(uint timestamp) public pure returns (uint16) {\r\n                uint secondsAccountedFor = 0;\r\n                uint16 year;\r\n                uint numLeapYears;\r\n\r\n                // Year\r\n                year = uint16(ORIGIN_YEAR + timestamp / YEAR_IN_SECONDS);\r\n                numLeapYears = leapYearsBefore(year) - leapYearsBefore(ORIGIN_YEAR);\r\n\r\n                secondsAccountedFor += LEAP_YEAR_IN_SECONDS * numLeapYears;\r\n                secondsAccountedFor += YEAR_IN_SECONDS * (year - ORIGIN_YEAR - numLeapYears);\r\n\r\n                while (secondsAccountedFor > timestamp) {\r\n                        if (isLeapYear(uint16(year - 1))) {\r\n                                secondsAccountedFor -= LEAP_YEAR_IN_SECONDS;\r\n                        }\r\n                        else {\r\n                                secondsAccountedFor -= YEAR_IN_SECONDS;\r\n                        }\r\n                        year -= 1;\r\n                }\r\n                return year;\r\n        }\r\n\r\n        function getMonth(uint timestamp) public returns (uint8) {\r\n                return parseTimestamp(timestamp).month;\r\n        }\r\n\r\n        function getDay(uint timestamp) public returns (uint8) {\r\n                return parseTimestamp(timestamp).day;\r\n        }\r\n\r\n        function getHour(uint timestamp) public pure returns (uint8) {\r\n                return uint8((timestamp / 60 / 60) % 24);\r\n        }\r\n\r\n        function getMinute(uint timestamp) public pure returns (uint8) {\r\n                return uint8((timestamp / 60) % 60);\r\n        }\r\n\r\n        function getSecond(uint timestamp) public pure returns (uint8) {\r\n                return uint8(timestamp % 60);\r\n        }\r\n\r\n        function getWeekday(uint timestamp) public pure returns (uint8) {\r\n                return uint8((timestamp / DAY_IN_SECONDS + 4) % 7);\r\n        }\r\n\r\n        function toTimestamp(uint16 year, uint8 month, uint8 day) public pure returns (uint timestamp) {\r\n                return toTimestamp(year, month, day, 0, 0, 0);\r\n        }\r\n\r\n        function toTimestamp(uint16 year, uint8 month, uint8 day, uint8 hour) public pure returns (uint timestamp) {\r\n                return toTimestamp(year, month, day, hour, 0, 0);\r\n        }\r\n\r\n        function toTimestamp(uint16 year, uint8 month, uint8 day, uint8 hour, uint8 minute) public pure returns (uint timestamp) {\r\n                return toTimestamp(year, month, day, hour, minute, 0);\r\n        }\r\n\r\n        function toTimestamp(uint16 year, uint8 month, uint8 day, uint8 hour, uint8 minute, uint8 second) public pure returns (uint timestamp) {\r\n                uint16 i;\r\n\r\n                // Year\r\n                for (i = ORIGIN_YEAR; i < year; i++) {\r\n                        if (isLeapYear(i)) {\r\n                                timestamp += LEAP_YEAR_IN_SECONDS;\r\n                        }\r\n                        else {\r\n                                timestamp += YEAR_IN_SECONDS;\r\n                        }\r\n                }\r\n\r\n                // Month\r\n                uint8[12] memory monthDayCounts;\r\n                monthDayCounts[0] = 31;\r\n                if (isLeapYear(year)) {\r\n                        monthDayCounts[1] = 29;\r\n                }\r\n                else {\r\n                        monthDayCounts[1] = 28;\r\n                }\r\n                monthDayCounts[2] = 31;\r\n                monthDayCounts[3] = 30;\r\n                monthDayCounts[4] = 31;\r\n                monthDayCounts[5] = 30;\r\n                monthDayCounts[6] = 31;\r\n                monthDayCounts[7] = 31;\r\n                monthDayCounts[8] = 30;\r\n                monthDayCounts[9] = 31;\r\n                monthDayCounts[10] = 30;\r\n                monthDayCounts[11] = 31;\r\n\r\n                for (i = 1; i < month; i++) {\r\n                        timestamp += DAY_IN_SECONDS * monthDayCounts[i - 1];\r\n                }\r\n\r\n                // Day\r\n                timestamp += DAY_IN_SECONDS * (day - 1);\r\n\r\n                // Hour\r\n                timestamp += HOUR_IN_SECONDS * (hour);\r\n\r\n                // Minute\r\n                timestamp += MINUTE_IN_SECONDS * (minute);\r\n\r\n                // Second\r\n                timestamp += second;\r\n\r\n                return timestamp;\r\n        }\r\n}",
  "sourcePath": "/mnt/c/Users/Dell/Desktop/Olzhas/Summer2021/UNICOIN/contracts/Datetime.sol",
  "compiler": {
    "name": "solc",
    "version": "0.8.6+commit.11564f7e.Emscripten.clang"
  },
  "schemaVersion": "3.3.4",
  "updatedAt": "2021-07-07T04:43:43.325Z",
  "devdoc": {
    "kind": "dev",
    "methods": {},
    "version": 1
  },
  "userdoc": {
    "kind": "user",
    "methods": {},
    "version": 1
  }
}