{
  "contractName": "MyUser",
  "abi": [
    {
      "inputs": [
        {
          "internalType": "string",
          "name": "_name",
          "type": "string"
        },
        {
          "internalType": "string",
          "name": "_surname",
          "type": "string"
        },
        {
          "internalType": "uint256",
          "name": "_id",
          "type": "uint256"
        },
        {
          "internalType": "address",
          "name": "_eth_address",
          "type": "address"
        }
      ],
      "stateMutability": "nonpayable",
      "type": "constructor"
    },
    {
      "anonymous": false,
      "inputs": [
        {
          "indexed": false,
          "internalType": "string",
          "name": "_name",
          "type": "string"
        },
        {
          "indexed": false,
          "internalType": "string",
          "name": "_surname",
          "type": "string"
        },
        {
          "indexed": false,
          "internalType": "uint256",
          "name": "_id",
          "type": "uint256"
        },
        {
          "indexed": false,
          "internalType": "address",
          "name": "_eth_address",
          "type": "address"
        },
        {
          "indexed": false,
          "internalType": "bool",
          "name": "_isCurator",
          "type": "bool"
        },
        {
          "indexed": false,
          "internalType": "bool",
          "name": "_exists",
          "type": "bool"
        }
      ],
      "name": "UserAdded",
      "type": "event"
    },
    {
      "inputs": [],
      "name": "unicoin",
      "outputs": [
        {
          "internalType": "contract UNICOIN",
          "name": "",
          "type": "address"
        }
      ],
      "stateMutability": "view",
      "type": "function",
      "constant": true
    },
    {
      "inputs": [],
      "name": "balanceOf",
      "outputs": [],
      "stateMutability": "view",
      "type": "function",
      "constant": true
    },
    {
      "inputs": [
        {
          "internalType": "string",
          "name": "_name",
          "type": "string"
        },
        {
          "internalType": "string",
          "name": "_surname",
          "type": "string"
        },
        {
          "internalType": "uint256",
          "name": "_id",
          "type": "uint256"
        },
        {
          "internalType": "address",
          "name": "_eth_address",
          "type": "address"
        }
      ],
      "name": "addCurator",
      "outputs": [],
      "stateMutability": "nonpayable",
      "type": "function"
    },
    {
      "inputs": [
        {
          "internalType": "string",
          "name": "_name",
          "type": "string"
        },
        {
          "internalType": "string",
          "name": "_surname",
          "type": "string"
        },
        {
          "internalType": "uint256",
          "name": "_id",
          "type": "uint256"
        }
      ],
      "name": "addUser",
      "outputs": [],
      "stateMutability": "nonpayable",
      "type": "function"
    }
  ],
  "bytecode": "0x60806040526127106040516200001590620004e2565b620000219190620008c5565b604051809103906000f0801580156200003e573d6000803e3d6000fd5b506000806101000a81548173ffffffffffffffffffffffffffffffffffffffff021916908373ffffffffffffffffffffffffffffffffffffffff160217905550600a6001556000600360006101000a81548160ff021916908315150217905550348015620000ab57600080fd5b50604051620039a7380380620039a78339818101604052810190620000d191906200064c565b620000e584848433620000ef60201b60201c565b5050505062000c26565b8383838360018060001515600260003373ffffffffffffffffffffffffffffffffffffffff1673ffffffffffffffffffffffffffffffffffffffff16815260200190815260200160002060030160159054906101000a900460ff161515146200018f576040517f08c379a000000000000000000000000000000000000000000000000000000000815260040162000186906200090c565b60405180910390fd5b60011515600360009054906101000a900460ff16151514156200024457600260003373ffffffffffffffffffffffffffffffffffffffff1673ffffffffffffffffffffffffffffffffffffffff16815260200190815260200160002060030160149054906101000a900460ff166200023e576040517f08c379a000000000000000000000000000000000000000000000000000000000815260040162000235906200092e565b60405180910390fd5b6200027e565b60001515600360009054906101000a900460ff16151514156200027d576001600360006101000a81548160ff0219169083151502179055505b5b60008690506000869050600086905060008590506000859050600088905060008054906101000a900473ffffffffffffffffffffffffffffffffffffffff1673ffffffffffffffffffffffffffffffffffffffff16636111ca218a6001546040518363ffffffff1660e01b8152600401620002fb9291906200081d565b600060405180830381600087803b1580156200031657600080fd5b505af11580156200032b573d6000803e3d6000fd5b5050505060006040518060c001604052808881526020018781526020018681526020018373ffffffffffffffffffffffffffffffffffffffff1681526020018515158152602001841515815250905080600260008c73ffffffffffffffffffffffffffffffffffffffff1673ffffffffffffffffffffffffffffffffffffffff1681526020019081526020016000206000820151816000019080519060200190620003d8929190620004f0565b506020820151816001019080519060200190620003f7929190620004f0565b506040820151816002015560608201518160030160006101000a81548173ffffffffffffffffffffffffffffffffffffffff021916908373ffffffffffffffffffffffffffffffffffffffff16021790555060808201518160030160146101000a81548160ff02191690831515021790555060a08201518160030160156101000a81548160ff0219169083151502179055509050507f36d9671276f1e709f7ac5ec37c95a3c509c76ab56d4a9f1b88a5f1ad1242103f878787858888604051620004c7969594939291906200084a565b60405180910390a15050505050505050505050505050505050565b611deb8062001bbc83390190565b828054620004fe9062000a5f565b90600052602060002090601f0160209004810192826200052257600085556200056e565b82601f106200053d57805160ff19168380011785556200056e565b828001600101855582156200056e579182015b828111156200056d57825182559160200191906001019062000550565b5b5090506200057d919062000581565b5090565b5b808211156200059c57600081600090555060010162000582565b5090565b6000620005b7620005b18462000979565b62000950565b905082815260208101848484011115620005d657620005d562000b2e565b5b620005e384828562000a29565b509392505050565b600081519050620005fc8162000bf2565b92915050565b600082601f8301126200061a576200061962000b29565b5b81516200062c848260208601620005a0565b91505092915050565b600081519050620006468162000c0c565b92915050565b6000806000806080858703121562000669576200066862000b38565b5b600085015167ffffffffffffffff8111156200068a576200068962000b33565b5b620006988782880162000602565b945050602085015167ffffffffffffffff811115620006bc57620006bb62000b33565b5b620006ca8782880162000602565b9350506040620006dd8782880162000635565b9250506060620006f087828801620005eb565b91505092959194509250565b6200070781620009cb565b82525050565b6200071881620009df565b82525050565b620007298162000a15565b82525050565b60006200073c82620009af565b620007488185620009ba565b93506200075a81856020860162000a29565b620007658162000b3d565b840191505092915050565b60006200077f600483620009ba565b91506200078c8262000b4e565b602082019050919050565b6000620007a6600783620009ba565b9150620007b38262000b77565b602082019050919050565b6000620007cd601983620009ba565b9150620007da8262000ba0565b602082019050919050565b6000620007f4601d83620009ba565b9150620008018262000bc9565b602082019050919050565b620008178162000a0b565b82525050565b6000604082019050620008346000830185620006fc565b6200084360208301846200080c565b9392505050565b600060c08201905081810360008301526200086681896200072f565b905081810360208301526200087c81886200072f565b90506200088d60408301876200080c565b6200089c6060830186620006fc565b620008ab60808301856200070d565b620008ba60a08301846200070d565b979650505050505050565b60006060820190508181036000830152620008e08162000797565b90508181036020830152620008f58162000770565b90506200090660408301846200071e565b92915050565b600060208201905081810360008301526200092781620007be565b9050919050565b600060208201905081810360008301526200094981620007e5565b9050919050565b60006200095c6200096f565b90506200096a828262000a95565b919050565b6000604051905090565b600067ffffffffffffffff82111562000997576200099662000afa565b5b620009a28262000b3d565b9050602081019050919050565b600081519050919050565b600082825260208201905092915050565b6000620009d882620009eb565b9050919050565b60008115159050919050565b600073ffffffffffffffffffffffffffffffffffffffff82169050919050565b6000819050919050565b600062000a228262000a0b565b9050919050565b60005b8381101562000a4957808201518184015260208101905062000a2c565b8381111562000a59576000848401525b50505050565b6000600282049050600182168062000a7857607f821691505b6020821081141562000a8f5762000a8e62000acb565b5b50919050565b62000aa08262000b3d565b810181811067ffffffffffffffff8211171562000ac25762000ac162000afa565b5b80604052505050565b7f4e487b7100000000000000000000000000000000000000000000000000000000600052602260045260246000fd5b7f4e487b7100000000000000000000000000000000000000000000000000000000600052604160045260246000fd5b600080fd5b600080fd5b600080fd5b600080fd5b6000601f19601f8301169050919050565b7f554e496300000000000000000000000000000000000000000000000000000000600082015250565b7f554e49434f494e00000000000000000000000000000000000000000000000000600082015250565b7f54686973207573657220616c7265616479206578697374732100000000000000600082015250565b7f546869732075736572206973206e6f74207468652063757261746f722e000000600082015250565b62000bfd81620009cb565b811462000c0957600080fd5b50565b62000c178162000a0b565b811462000c2357600080fd5b50565b610f868062000c366000396000f3fe608060405234801561001057600080fd5b506004361061004c5760003560e01c80632670bd4b146100515780634dcac3661461006f578063722713f71461008b578063964f593714610095575b600080fd5b6100596100b1565b6040516100669190610c00565b60405180910390f35b61008960048036038101906100849190610a35565b6100d5565b005b6100936104b5565b005b6100af60048036038101906100aa91906109aa565b610561565b005b60008054906101000a900473ffffffffffffffffffffffffffffffffffffffff1681565b8383838360018060001515600260003373ffffffffffffffffffffffffffffffffffffffff1673ffffffffffffffffffffffffffffffffffffffff16815260200190815260200160002060030160159054906101000a900460ff16151514610172576040517f08c379a000000000000000000000000000000000000000000000000000000000815260040161016990610c8a565b60405180910390fd5b60011515600360009054906101000a900460ff161515141561022257600260003373ffffffffffffffffffffffffffffffffffffffff1673ffffffffffffffffffffffffffffffffffffffff16815260200190815260200160002060030160149054906101000a900460ff1661021d576040517f08c379a000000000000000000000000000000000000000000000000000000000815260040161021490610caa565b60405180910390fd5b61025b565b60001515600360009054906101000a900460ff161515141561025a576001600360006101000a81548160ff0219169083151502179055505b5b60008690506000869050600086905060008590506000859050600088905060008054906101000a900473ffffffffffffffffffffffffffffffffffffffff1673ffffffffffffffffffffffffffffffffffffffff16636111ca218a6001546040518363ffffffff1660e01b81526004016102d6929190610bd7565b600060405180830381600087803b1580156102f057600080fd5b505af1158015610304573d6000803e3d6000fd5b5050505060006040518060c001604052808881526020018781526020018681526020018373ffffffffffffffffffffffffffffffffffffffff1681526020018515158152602001841515815250905080600260008c73ffffffffffffffffffffffffffffffffffffffff1673ffffffffffffffffffffffffffffffffffffffff16815260200190815260200160002060008201518160000190805190602001906103af929190610858565b5060208201518160010190805190602001906103cc929190610858565b506040820151816002015560608201518160030160006101000a81548173ffffffffffffffffffffffffffffffffffffffff021916908373ffffffffffffffffffffffffffffffffffffffff16021790555060808201518160030160146101000a81548160ff02191690831515021790555060a08201518160030160156101000a81548160ff0219169083151502179055509050507f36d9671276f1e709f7ac5ec37c95a3c509c76ab56d4a9f1b88a5f1ad1242103f87878785888860405161049a96959493929190610c1b565b60405180910390a15050505050505050505050505050505050565b60008054906101000a900473ffffffffffffffffffffffffffffffffffffffff1673ffffffffffffffffffffffffffffffffffffffff166370a08231336040518263ffffffff1660e01b815260040161050e9190610bbc565b60206040518083038186803b15801561052657600080fd5b505afa15801561053a573d6000803e3d6000fd5b505050506040513d601f19601f8201168201806040525081019061055e9190610ad4565b50565b828282336000600160001515600260003373ffffffffffffffffffffffffffffffffffffffff1673ffffffffffffffffffffffffffffffffffffffff16815260200190815260200160002060030160159054906101000a900460ff161515146105ff576040517f08c379a00000000000000000000000000000000000000000000000000000000081526004016105f690610c8a565b60405180910390fd5b60008690506000869050600086905060008590506000859050600088905060008054906101000a900473ffffffffffffffffffffffffffffffffffffffff1673ffffffffffffffffffffffffffffffffffffffff16636111ca218a6001546040518363ffffffff1660e01b815260040161067a929190610bd7565b600060405180830381600087803b15801561069457600080fd5b505af11580156106a8573d6000803e3d6000fd5b5050505060006040518060c001604052808881526020018781526020018681526020018373ffffffffffffffffffffffffffffffffffffffff1681526020018515158152602001841515815250905080600260008c73ffffffffffffffffffffffffffffffffffffffff1673ffffffffffffffffffffffffffffffffffffffff1681526020019081526020016000206000820151816000019080519060200190610753929190610858565b506020820151816001019080519060200190610770929190610858565b506040820151816002015560608201518160030160006101000a81548173ffffffffffffffffffffffffffffffffffffffff021916908373ffffffffffffffffffffffffffffffffffffffff16021790555060808201518160030160146101000a81548160ff02191690831515021790555060a08201518160030160156101000a81548160ff0219169083151502179055509050507f36d9671276f1e709f7ac5ec37c95a3c509c76ab56d4a9f1b88a5f1ad1242103f87878785888860405161083e96959493929190610c1b565b60405180910390a150505050505050505050505050505050565b82805461086490610dea565b90600052602060002090601f01602090048101928261088657600085556108cd565b82601f1061089f57805160ff19168380011785556108cd565b828001600101855582156108cd579182015b828111156108cc5782518255916020019190600101906108b1565b5b5090506108da91906108de565b5090565b5b808211156108f75760008160009055506001016108df565b5090565b600061090e61090984610cef565b610cca565b90508281526020810184848401111561092a57610929610eb0565b5b610935848285610da8565b509392505050565b60008135905061094c81610f22565b92915050565b600082601f83011261096757610966610eab565b5b81356109778482602086016108fb565b91505092915050565b60008135905061098f81610f39565b92915050565b6000815190506109a481610f39565b92915050565b6000806000606084860312156109c3576109c2610eba565b5b600084013567ffffffffffffffff8111156109e1576109e0610eb5565b5b6109ed86828701610952565b935050602084013567ffffffffffffffff811115610a0e57610a0d610eb5565b5b610a1a86828701610952565b9250506040610a2b86828701610980565b9150509250925092565b60008060008060808587031215610a4f57610a4e610eba565b5b600085013567ffffffffffffffff811115610a6d57610a6c610eb5565b5b610a7987828801610952565b945050602085013567ffffffffffffffff811115610a9a57610a99610eb5565b5b610aa687828801610952565b9350506040610ab787828801610980565b9250506060610ac88782880161093d565b91505092959194509250565b600060208284031215610aea57610ae9610eba565b5b6000610af884828501610995565b91505092915050565b610b0a81610d3c565b82525050565b610b1981610d4e565b82525050565b610b2881610d84565b82525050565b6000610b3982610d20565b610b438185610d2b565b9350610b53818560208601610db7565b610b5c81610ebf565b840191505092915050565b6000610b74601983610d2b565b9150610b7f82610ed0565b602082019050919050565b6000610b97601d83610d2b565b9150610ba282610ef9565b602082019050919050565b610bb681610d7a565b82525050565b6000602082019050610bd16000830184610b01565b92915050565b6000604082019050610bec6000830185610b01565b610bf96020830184610bad565b9392505050565b6000602082019050610c156000830184610b1f565b92915050565b600060c0820190508181036000830152610c358189610b2e565b90508181036020830152610c498188610b2e565b9050610c586040830187610bad565b610c656060830186610b01565b610c726080830185610b10565b610c7f60a0830184610b10565b979650505050505050565b60006020820190508181036000830152610ca381610b67565b9050919050565b60006020820190508181036000830152610cc381610b8a565b9050919050565b6000610cd4610ce5565b9050610ce08282610e1c565b919050565b6000604051905090565b600067ffffffffffffffff821115610d0a57610d09610e7c565b5b610d1382610ebf565b9050602081019050919050565b600081519050919050565b600082825260208201905092915050565b6000610d4782610d5a565b9050919050565b60008115159050919050565b600073ffffffffffffffffffffffffffffffffffffffff82169050919050565b6000819050919050565b6000610d8f82610d96565b9050919050565b6000610da182610d5a565b9050919050565b82818337600083830152505050565b60005b83811015610dd5578082015181840152602081019050610dba565b83811115610de4576000848401525b50505050565b60006002820490506001821680610e0257607f821691505b60208210811415610e1657610e15610e4d565b5b50919050565b610e2582610ebf565b810181811067ffffffffffffffff82111715610e4457610e43610e7c565b5b80604052505050565b7f4e487b7100000000000000000000000000000000000000000000000000000000600052602260045260246000fd5b7f4e487b7100000000000000000000000000000000000000000000000000000000600052604160045260246000fd5b600080fd5b600080fd5b600080fd5b600080fd5b6000601f19601f8301169050919050565b7f54686973207573657220616c7265616479206578697374732100000000000000600082015250565b7f546869732075736572206973206e6f74207468652063757261746f722e000000600082015250565b610f2b81610d3c565b8114610f3657600080fd5b50565b610f4281610d7a565b8114610f4d57600080fd5b5056fea264697066735822122041fd64a403f3c06e1fc8e7a127cad9fd6659200cbfcc1b6dfe1a16961ad5973d64736f6c6343000806003360806040523480156200001157600080fd5b5060405162001deb38038062001deb833981810160405281019062000037919062000232565b8282816003908051906020019062000051929190620000ed565b5080600490805190602001906200006a929190620000ed565b50505060fb600960003373ffffffffffffffffffffffffffffffffffffffff1673ffffffffffffffffffffffffffffffffffffffff168152602001908152602001600020819055508260059080519060200190620000ca929190620000ed565b508160069080519060200190620000e3929190620000ed565b5050505062000474565b828054620000fb906200036b565b90600052602060002090601f0160209004810192826200011f57600085556200016b565b82601f106200013a57805160ff19168380011785556200016b565b828001600101855582156200016b579182015b828111156200016a5782518255916020019190600101906200014d565b5b5090506200017a91906200017e565b5090565b5b80821115620001995760008160009055506001016200017f565b5090565b6000620001b4620001ae84620002f5565b620002cc565b905082815260208101848484011115620001d357620001d26200043a565b5b620001e084828562000335565b509392505050565b600082601f8301126200020057620001ff62000435565b5b8151620002128482602086016200019d565b91505092915050565b6000815190506200022c816200045a565b92915050565b6000806000606084860312156200024e576200024d62000444565b5b600084015167ffffffffffffffff8111156200026f576200026e6200043f565b5b6200027d86828701620001e8565b935050602084015167ffffffffffffffff811115620002a157620002a06200043f565b5b620002af86828701620001e8565b9250506040620002c2868287016200021b565b9150509250925092565b6000620002d8620002eb565b9050620002e68282620003a1565b919050565b6000604051905090565b600067ffffffffffffffff82111562000313576200031262000406565b5b6200031e8262000449565b9050602081019050919050565b6000819050919050565b60005b838110156200035557808201518184015260208101905062000338565b8381111562000365576000848401525b50505050565b600060028204905060018216806200038457607f821691505b602082108114156200039b576200039a620003d7565b5b50919050565b620003ac8262000449565b810181811067ffffffffffffffff82111715620003ce57620003cd62000406565b5b80604052505050565b7f4e487b7100000000000000000000000000000000000000000000000000000000600052602260045260246000fd5b7f4e487b7100000000000000000000000000000000000000000000000000000000600052604160045260246000fd5b600080fd5b600080fd5b600080fd5b600080fd5b6000601f19601f8301169050919050565b62000465816200032b565b81146200047157600080fd5b50565b61196780620004846000396000f3fe608060405234801561001057600080fd5b50600436106100f55760003560e01c80636111ca2111610097578063a457c2d711610066578063a457c2d714610286578063a9059cbb146102b6578063beabacc8146102e6578063dd62ed3e14610316576100f5565b80636111ca211461020057806370a082311461021c57806395d89b411461024c5780639dcbfe681461026a576100f5565b806323b872dd116100d357806323b872dd146101665780632d8e2a7514610196578063313ce567146101b257806339509351146101d0576100f5565b806306fdde03146100fa578063095ea7b31461011857806318160ddd14610148575b600080fd5b610102610346565b60405161010f919061149e565b60405180910390f35b610132600480360381019061012d919061130b565b61034b565b60405161013f9190611483565b60405180910390f35b61015061043d565b60405161015d9190611580565b60405180910390f35b610180600480360381019061017b91906112b8565b610447565b60405161018d9190611483565b60405180910390f35b6101b060048036038101906101ab919061130b565b6106e1565b005b6101ba610701565b6040516101c7919061159b565b60405180910390f35b6101ea60048036038101906101e5919061130b565b610718565b6040516101f79190611483565b60405180910390f35b61021a6004803603810190610215919061130b565b6107c4565b005b6102366004803603810190610231919061124b565b610854565b6040516102439190611580565b60405180910390f35b61025461089d565b604051610261919061149e565b60405180910390f35b610284600480360381019061027f919061130b565b6108a2565b005b6102a0600480360381019061029b919061130b565b6108c4565b6040516102ad9190611483565b60405180910390f35b6102d060048036038101906102cb919061130b565b6109af565b6040516102dd9190611483565b60405180910390f35b61030060048036038101906102fb91906112b8565b6109cd565b60405161030d9190611483565b60405180910390f35b610330600480360381019061032b9190611278565b610bf0565b60405161033d9190611580565b60405180910390f35b606090565b600081600a60003373ffffffffffffffffffffffffffffffffffffffff1673ffffffffffffffffffffffffffffffffffffffff16815260200190815260200160002060008573ffffffffffffffffffffffffffffffffffffffff1673ffffffffffffffffffffffffffffffffffffffff168152602001908152602001600020819055508273ffffffffffffffffffffffffffffffffffffffff163373ffffffffffffffffffffffffffffffffffffffff167f8c5be1e5ebec7d5bd14f71427d1e84f3dd0314c0f7b2291e5b200ac8c7c3b9258460405161042b9190611580565b60405180910390a36001905092915050565b6000600854905090565b60008073ffffffffffffffffffffffffffffffffffffffff168373ffffffffffffffffffffffffffffffffffffffff16141561048257600080fd5b600960008573ffffffffffffffffffffffffffffffffffffffff1673ffffffffffffffffffffffffffffffffffffffff168152602001908152602001600020548211156104ce57600080fd5b600a60008573ffffffffffffffffffffffffffffffffffffffff1673ffffffffffffffffffffffffffffffffffffffff16815260200190815260200160002060003373ffffffffffffffffffffffffffffffffffffffff1673ffffffffffffffffffffffffffffffffffffffff1681526020019081526020016000205482111561055757600080fd5b6105618383610c77565b61056b8383610d07565b6105f1600a60008673ffffffffffffffffffffffffffffffffffffffff1673ffffffffffffffffffffffffffffffffffffffff16815260200190815260200160002060003373ffffffffffffffffffffffffffffffffffffffff1673ffffffffffffffffffffffffffffffffffffffff1681526020019081526020016000205483610d97565b600a60008673ffffffffffffffffffffffffffffffffffffffff1673ffffffffffffffffffffffffffffffffffffffff16815260200190815260200160002060003373ffffffffffffffffffffffffffffffffffffffff1673ffffffffffffffffffffffffffffffffffffffff168152602001908152602001600020819055508273ffffffffffffffffffffffffffffffffffffffff168473ffffffffffffffffffffffffffffffffffffffff167fddf252ad1be2c89b69c2b068fc378daa952ba7f163c4a11628f55a4df523b3ef846040516106ce9190611580565b60405180910390a3600190509392505050565b6106ed60085482610dad565b6008819055506106fd8282610c77565b5050565b6000600760009054906101000a900460ff16905090565b60006107ba610725610dc3565b848460016000610733610dc3565b73ffffffffffffffffffffffffffffffffffffffff1673ffffffffffffffffffffffffffffffffffffffff16815260200190815260200160002060008873ffffffffffffffffffffffffffffffffffffffff1673ffffffffffffffffffffffffffffffffffffffff168152602001908152602001600020546107b591906115d2565b610dcb565b6001905092915050565b61080d600960008473ffffffffffffffffffffffffffffffffffffffff1673ffffffffffffffffffffffffffffffffffffffff1681526020019081526020016000205482610dad565b600960008473ffffffffffffffffffffffffffffffffffffffff1673ffffffffffffffffffffffffffffffffffffffff168152602001908152602001600020819055505050565b6000600960008373ffffffffffffffffffffffffffffffffffffffff1673ffffffffffffffffffffffffffffffffffffffff168152602001908152602001600020549050919050565b606090565b806008546108b09190611628565b6008819055506108c08282610d07565b5050565b600080600160006108d3610dc3565b73ffffffffffffffffffffffffffffffffffffffff1673ffffffffffffffffffffffffffffffffffffffff16815260200190815260200160002060008573ffffffffffffffffffffffffffffffffffffffff1673ffffffffffffffffffffffffffffffffffffffff16815260200190815260200160002054905082811015610990576040517f08c379a000000000000000000000000000000000000000000000000000000000815260040161098790611560565b60405180910390fd5b6109a461099b610dc3565b85858403610dcb565b600191505092915050565b60006109c36109bc610dc3565b8484610f96565b6001905092915050565b60008073ffffffffffffffffffffffffffffffffffffffff168373ffffffffffffffffffffffffffffffffffffffff161415610a0857600080fd5b600960003373ffffffffffffffffffffffffffffffffffffffff1673ffffffffffffffffffffffffffffffffffffffff16815260200190815260200160002054821115610a5457600080fd5b610a5e8383610c77565b610a688383610d07565b610ab1600960003373ffffffffffffffffffffffffffffffffffffffff1673ffffffffffffffffffffffffffffffffffffffff1681526020019081526020016000205483610d97565b600960008673ffffffffffffffffffffffffffffffffffffffff1673ffffffffffffffffffffffffffffffffffffffff16815260200190815260200160002081905550610b3d600960008573ffffffffffffffffffffffffffffffffffffffff1673ffffffffffffffffffffffffffffffffffffffff1681526020019081526020016000205483610dad565b600960008573ffffffffffffffffffffffffffffffffffffffff1673ffffffffffffffffffffffffffffffffffffffff168152602001908152602001600020819055508273ffffffffffffffffffffffffffffffffffffffff163373ffffffffffffffffffffffffffffffffffffffff167fddf252ad1be2c89b69c2b068fc378daa952ba7f163c4a11628f55a4df523b3ef84604051610bdd9190611580565b60405180910390a3600190509392505050565b6000600a60008473ffffffffffffffffffffffffffffffffffffffff1673ffffffffffffffffffffffffffffffffffffffff16815260200190815260200160002060008373ffffffffffffffffffffffffffffffffffffffff1673ffffffffffffffffffffffffffffffffffffffff16815260200190815260200160002054905092915050565b610cc0600960008473ffffffffffffffffffffffffffffffffffffffff1673ffffffffffffffffffffffffffffffffffffffff1681526020019081526020016000205482610dad565b600960008473ffffffffffffffffffffffffffffffffffffffff1673ffffffffffffffffffffffffffffffffffffffff168152602001908152602001600020819055505050565b610d50600960008473ffffffffffffffffffffffffffffffffffffffff1673ffffffffffffffffffffffffffffffffffffffff1681526020019081526020016000205482610d97565b600960008473ffffffffffffffffffffffffffffffffffffffff1673ffffffffffffffffffffffffffffffffffffffff168152602001908152602001600020819055505050565b60008183610da59190611628565b905092915050565b60008183610dbb91906115d2565b905092915050565b600033905090565b600073ffffffffffffffffffffffffffffffffffffffff168373ffffffffffffffffffffffffffffffffffffffff161415610e3b576040517f08c379a0000000000000000000000000000000000000000000000000000000008152600401610e3290611540565b60405180910390fd5b600073ffffffffffffffffffffffffffffffffffffffff168273ffffffffffffffffffffffffffffffffffffffff161415610eab576040517f08c379a0000000000000000000000000000000000000000000000000000000008152600401610ea2906114e0565b60405180910390fd5b80600160008573ffffffffffffffffffffffffffffffffffffffff1673ffffffffffffffffffffffffffffffffffffffff16815260200190815260200160002060008473ffffffffffffffffffffffffffffffffffffffff1673ffffffffffffffffffffffffffffffffffffffff168152602001908152602001600020819055508173ffffffffffffffffffffffffffffffffffffffff168373ffffffffffffffffffffffffffffffffffffffff167f8c5be1e5ebec7d5bd14f71427d1e84f3dd0314c0f7b2291e5b200ac8c7c3b92583604051610f899190611580565b60405180910390a3505050565b600073ffffffffffffffffffffffffffffffffffffffff168373ffffffffffffffffffffffffffffffffffffffff161415611006576040517f08c379a0000000000000000000000000000000000000000000000000000000008152600401610ffd90611520565b60405180910390fd5b600073ffffffffffffffffffffffffffffffffffffffff168273ffffffffffffffffffffffffffffffffffffffff161415611076576040517f08c379a000000000000000000000000000000000000000000000000000000000815260040161106d906114c0565b60405180910390fd5b611081838383611217565b60008060008573ffffffffffffffffffffffffffffffffffffffff1673ffffffffffffffffffffffffffffffffffffffff16815260200190815260200160002054905081811015611107576040517f08c379a00000000000000000000000000000000000000000000000000000000081526004016110fe90611500565b60405180910390fd5b8181036000808673ffffffffffffffffffffffffffffffffffffffff1673ffffffffffffffffffffffffffffffffffffffff16815260200190815260200160002081905550816000808573ffffffffffffffffffffffffffffffffffffffff1673ffffffffffffffffffffffffffffffffffffffff168152602001908152602001600020600082825461119a91906115d2565b925050819055508273ffffffffffffffffffffffffffffffffffffffff168473ffffffffffffffffffffffffffffffffffffffff167fddf252ad1be2c89b69c2b068fc378daa952ba7f163c4a11628f55a4df523b3ef846040516111fe9190611580565b60405180910390a361121184848461121c565b50505050565b505050565b505050565b60008135905061123081611903565b92915050565b6000813590506112458161191a565b92915050565b60006020828403121561126157611260611713565b5b600061126f84828501611221565b91505092915050565b6000806040838503121561128f5761128e611713565b5b600061129d85828601611221565b92505060206112ae85828601611221565b9150509250929050565b6000806000606084860312156112d1576112d0611713565b5b60006112df86828701611221565b93505060206112f086828701611221565b925050604061130186828701611236565b9150509250925092565b6000806040838503121561132257611321611713565b5b600061133085828601611221565b925050602061134185828601611236565b9150509250929050565b6113548161166e565b82525050565b6000611365826115b6565b61136f81856115c1565b935061137f8185602086016116b1565b61138881611718565b840191505092915050565b60006113a06023836115c1565b91506113ab82611729565b604082019050919050565b60006113c36022836115c1565b91506113ce82611778565b604082019050919050565b60006113e66026836115c1565b91506113f1826117c7565b604082019050919050565b60006114096025836115c1565b915061141482611816565b604082019050919050565b600061142c6024836115c1565b915061143782611865565b604082019050919050565b600061144f6025836115c1565b915061145a826118b4565b604082019050919050565b61146e8161169a565b82525050565b61147d816116a4565b82525050565b6000602082019050611498600083018461134b565b92915050565b600060208201905081810360008301526114b8818461135a565b905092915050565b600060208201905081810360008301526114d981611393565b9050919050565b600060208201905081810360008301526114f9816113b6565b9050919050565b60006020820190508181036000830152611519816113d9565b9050919050565b60006020820190508181036000830152611539816113fc565b9050919050565b600060208201905081810360008301526115598161141f565b9050919050565b6000602082019050818103600083015261157981611442565b9050919050565b60006020820190506115956000830184611465565b92915050565b60006020820190506115b06000830184611474565b92915050565b600081519050919050565b600082825260208201905092915050565b60006115dd8261169a565b91506115e88361169a565b9250827fffffffffffffffffffffffffffffffffffffffffffffffffffffffffffffffff0382111561161d5761161c6116e4565b5b828201905092915050565b60006116338261169a565b915061163e8361169a565b925082821015611651576116506116e4565b5b828203905092915050565b60006116678261167a565b9050919050565b60008115159050919050565b600073ffffffffffffffffffffffffffffffffffffffff82169050919050565b6000819050919050565b600060ff82169050919050565b60005b838110156116cf5780820151818401526020810190506116b4565b838111156116de576000848401525b50505050565b7f4e487b7100000000000000000000000000000000000000000000000000000000600052601160045260246000fd5b600080fd5b6000601f19601f8301169050919050565b7f45524332303a207472616e7366657220746f20746865207a65726f206164647260008201527f6573730000000000000000000000000000000000000000000000000000000000602082015250565b7f45524332303a20617070726f766520746f20746865207a65726f20616464726560008201527f7373000000000000000000000000000000000000000000000000000000000000602082015250565b7f45524332303a207472616e7366657220616d6f756e742065786365656473206260008201527f616c616e63650000000000000000000000000000000000000000000000000000602082015250565b7f45524332303a207472616e736665722066726f6d20746865207a65726f20616460008201527f6472657373000000000000000000000000000000000000000000000000000000602082015250565b7f45524332303a20617070726f76652066726f6d20746865207a65726f2061646460008201527f7265737300000000000000000000000000000000000000000000000000000000602082015250565b7f45524332303a2064656372656173656420616c6c6f77616e63652062656c6f7760008201527f207a65726f000000000000000000000000000000000000000000000000000000602082015250565b61190c8161165c565b811461191757600080fd5b50565b6119238161169a565b811461192e57600080fd5b5056fea2646970667358221220d81a80a743803ee11d57eee647becdeab12bc030910238fb9f921bd16a390ac264736f6c63430008060033",
  "immutableReferences": {},
  "source": "pragma solidity ^0.8.0;\r\n\r\n\r\nimport \"./UNICOIN.sol\";\r\n\r\ncontract MyUser {\r\n    \r\n    // is defines a kind of inheritance \r\n    using SafeMath for uint;\r\n    \r\n    struct UserInfo {\r\n        string name;\r\n        string surname;\r\n        uint id;\r\n        address eth_address;\r\n        bool isCurator;\r\n        bool exists;\r\n    }\r\n    \r\n    \r\n    // string memory name, string memory symbol, uint256 totalSupply) ERC20(\"UNICOIN\", \"UNIc\"\r\n    UNICOIN public unicoin = new UNICOIN(\"UNICOIN\", \"UNIc\", 10000);\r\n\r\n    function balanceOf() public view{\r\n        //require (_counters[msg.sender] != Counter(0));\r\n        UNICOIN(unicoin).balanceOf(msg.sender);\r\n    }\r\n    \r\n    uint initialBalance = 10;\r\n    \r\n    //mapping (address => uint256) internal balances;\r\n    mapping (address => UserInfo) internal users;\r\n    \r\n    bool deployed = false; \r\n    event UserAdded(string _name, string _surname, uint _id, \r\n    address _eth_address, bool _isCurator, bool _exists);\r\n    \r\n    modifier addsUser(string memory _name, string memory _surname, uint _id, address _eth_address,\r\n    bool _isCurator, bool _exists){\r\n        require(users[msg.sender].exists == false, \"This user already exists!\");\r\n        _;\r\n        string memory name = _name;\r\n        string memory surname = _surname;\r\n        uint id = _id;\r\n        bool isCurator = _isCurator;\r\n        bool exists = _exists;\r\n        address eth_address = _eth_address;\r\n        UNICOIN(unicoin).enroll(_eth_address, initialBalance);\r\n        UserInfo memory new_user = UserInfo(name, surname, id, eth_address, isCurator, exists);\r\n        users[_eth_address] = new_user;\r\n        emit UserAdded(name, surname, id, eth_address, isCurator, exists);\r\n    }\r\n    \r\n    function addCurator(string memory _name, string memory _surname, uint _id, address _eth_address)\r\n    addsUser(_name, _surname, _id, _eth_address, true, true)\r\n    public{\r\n        if (deployed == true){\r\n          require(users[msg.sender].isCurator, \"This user is not the curator.\");\r\n        }else if (deployed == false){\r\n            deployed = true;\r\n        }\r\n\r\n    }     \r\n    \r\n    function addUser(string memory _name, string memory _surname, uint _id)\r\n    addsUser(_name, _surname, _id, msg.sender, false, true)\r\n    public{\r\n          // require(users[msg.sender].exists, \"This user is not the curator.\");\r\n    }\r\n\r\n    constructor (string memory _name, string memory _surname, uint _id, address _eth_address) {\r\n        addCurator(_name, _surname, _id,\r\n                    msg.sender);\r\n        //UNICOIN(unicoin).increaseBalanceOf(msg.sender, 100);\r\n        \r\n    }\r\n    \r\n}\r\n",
  "sourcePath": "/mnt/c/Users/Dell/Desktop/Olzhas/Summer2021/UNICOIN/contracts/MyUser.sol",
  "compiler": {
    "name": "solc",
    "version": "0.8.6+commit.11564f7e.Emscripten.clang"
  },
  "schemaVersion": "3.3.4",
  "updatedAt": "2021-07-07T04:48:56.145Z",
  "networkType": "ethereum",
  "devdoc": {
    "kind": "dev",
    "methods": {},
    "version": 1
  },
  "userdoc": {
    "kind": "user",
    "methods": {},
    "version": 1
  }
}