{
  "contractName": "UNICOIN",
  "abi": [
    {
      "inputs": [
        {
          "internalType": "string",
          "name": "name",
          "type": "string"
        },
        {
          "internalType": "string",
          "name": "symbol",
          "type": "string"
        },
        {
          "internalType": "uint256",
          "name": "totalSupply",
          "type": "uint256"
        }
      ],
      "stateMutability": "nonpayable",
      "type": "constructor"
    },
    {
      "anonymous": false,
      "inputs": [
        {
          "indexed": true,
          "internalType": "address",
          "name": "owner",
          "type": "address"
        },
        {
          "indexed": true,
          "internalType": "address",
          "name": "spender",
          "type": "address"
        },
        {
          "indexed": false,
          "internalType": "uint256",
          "name": "value",
          "type": "uint256"
        }
      ],
      "name": "Approval",
      "type": "event"
    },
    {
      "anonymous": false,
      "inputs": [
        {
          "indexed": true,
          "internalType": "address",
          "name": "from",
          "type": "address"
        },
        {
          "indexed": true,
          "internalType": "address",
          "name": "to",
          "type": "address"
        },
        {
          "indexed": false,
          "internalType": "uint256",
          "name": "value",
          "type": "uint256"
        }
      ],
      "name": "Transfer",
      "type": "event"
    },
    {
      "inputs": [
        {
          "internalType": "address",
          "name": "spender",
          "type": "address"
        },
        {
          "internalType": "uint256",
          "name": "subtractedValue",
          "type": "uint256"
        }
      ],
      "name": "decreaseAllowance",
      "outputs": [
        {
          "internalType": "bool",
          "name": "",
          "type": "bool"
        }
      ],
      "stateMutability": "nonpayable",
      "type": "function"
    },
    {
      "inputs": [
        {
          "internalType": "address",
          "name": "spender",
          "type": "address"
        },
        {
          "internalType": "uint256",
          "name": "addedValue",
          "type": "uint256"
        }
      ],
      "name": "increaseAllowance",
      "outputs": [
        {
          "internalType": "bool",
          "name": "",
          "type": "bool"
        }
      ],
      "stateMutability": "nonpayable",
      "type": "function"
    },
    {
      "inputs": [],
      "name": "name",
      "outputs": [
        {
          "internalType": "string",
          "name": "_name",
          "type": "string"
        }
      ],
      "stateMutability": "view",
      "type": "function",
      "constant": true
    },
    {
      "inputs": [],
      "name": "symbol",
      "outputs": [
        {
          "internalType": "string",
          "name": "_symbol",
          "type": "string"
        }
      ],
      "stateMutability": "view",
      "type": "function",
      "constant": true
    },
    {
      "inputs": [],
      "name": "decimals",
      "outputs": [
        {
          "internalType": "uint8",
          "name": "",
          "type": "uint8"
        }
      ],
      "stateMutability": "view",
      "type": "function",
      "constant": true
    },
    {
      "inputs": [],
      "name": "totalSupply",
      "outputs": [
        {
          "internalType": "uint256",
          "name": "",
          "type": "uint256"
        }
      ],
      "stateMutability": "view",
      "type": "function",
      "constant": true
    },
    {
      "inputs": [
        {
          "internalType": "address",
          "name": "recipient",
          "type": "address"
        },
        {
          "internalType": "uint256",
          "name": "amount",
          "type": "uint256"
        }
      ],
      "name": "transfer",
      "outputs": [
        {
          "internalType": "bool",
          "name": "",
          "type": "bool"
        }
      ],
      "stateMutability": "nonpayable",
      "type": "function"
    },
    {
      "inputs": [
        {
          "internalType": "address",
          "name": "_from",
          "type": "address"
        },
        {
          "internalType": "address",
          "name": "_to",
          "type": "address"
        },
        {
          "internalType": "uint256",
          "name": "_value",
          "type": "uint256"
        }
      ],
      "name": "transfer",
      "outputs": [
        {
          "internalType": "bool",
          "name": "",
          "type": "bool"
        }
      ],
      "stateMutability": "nonpayable",
      "type": "function"
    },
    {
      "inputs": [
        {
          "internalType": "address",
          "name": "_owner",
          "type": "address"
        }
      ],
      "name": "balanceOf",
      "outputs": [
        {
          "internalType": "uint256",
          "name": "",
          "type": "uint256"
        }
      ],
      "stateMutability": "view",
      "type": "function",
      "constant": true
    },
    {
      "inputs": [
        {
          "internalType": "address",
          "name": "_owner",
          "type": "address"
        },
        {
          "internalType": "uint256",
          "name": "_amount",
          "type": "uint256"
        }
      ],
      "name": "increaseBalanceOf",
      "outputs": [],
      "stateMutability": "nonpayable",
      "type": "function"
    },
    {
      "inputs": [
        {
          "internalType": "address",
          "name": "_owner",
          "type": "address"
        },
        {
          "internalType": "uint256",
          "name": "_amount",
          "type": "uint256"
        }
      ],
      "name": "decreaseBalanceOf",
      "outputs": [],
      "stateMutability": "nonpayable",
      "type": "function"
    },
    {
      "inputs": [
        {
          "internalType": "address",
          "name": "_owner",
          "type": "address"
        },
        {
          "internalType": "uint256",
          "name": "_amount",
          "type": "uint256"
        }
      ],
      "name": "increaseCirculation",
      "outputs": [],
      "stateMutability": "nonpayable",
      "type": "function"
    },
    {
      "inputs": [
        {
          "internalType": "address",
          "name": "_owner",
          "type": "address"
        },
        {
          "internalType": "uint256",
          "name": "_amount",
          "type": "uint256"
        }
      ],
      "name": "decreaseCirculation",
      "outputs": [],
      "stateMutability": "nonpayable",
      "type": "function"
    },
    {
      "inputs": [
        {
          "internalType": "address",
          "name": "_owner",
          "type": "address"
        },
        {
          "internalType": "uint256",
          "name": "_amount",
          "type": "uint256"
        }
      ],
      "name": "enroll",
      "outputs": [],
      "stateMutability": "nonpayable",
      "type": "function"
    },
    {
      "inputs": [
        {
          "internalType": "address",
          "name": "_from",
          "type": "address"
        },
        {
          "internalType": "address",
          "name": "_to",
          "type": "address"
        },
        {
          "internalType": "uint256",
          "name": "_value",
          "type": "uint256"
        }
      ],
      "name": "transferFrom",
      "outputs": [
        {
          "internalType": "bool",
          "name": "",
          "type": "bool"
        }
      ],
      "stateMutability": "nonpayable",
      "type": "function"
    },
    {
      "inputs": [
        {
          "internalType": "address",
          "name": "_spender",
          "type": "address"
        },
        {
          "internalType": "uint256",
          "name": "_value",
          "type": "uint256"
        }
      ],
      "name": "approve",
      "outputs": [
        {
          "internalType": "bool",
          "name": "",
          "type": "bool"
        }
      ],
      "stateMutability": "nonpayable",
      "type": "function"
    },
    {
      "inputs": [
        {
          "internalType": "address",
          "name": "_owner",
          "type": "address"
        },
        {
          "internalType": "address",
          "name": "_spender",
          "type": "address"
        }
      ],
      "name": "allowance",
      "outputs": [
        {
          "internalType": "uint256",
          "name": "",
          "type": "uint256"
        }
      ],
      "stateMutability": "view",
      "type": "function",
      "constant": true
    }
  ],
  "bytecode": "0x60806040523480156200001157600080fd5b5060405162001fad38038062001fad833981810160405281019062000037919062000226565b8282816003908051906020019062000051929190620000ed565b5080600490805190602001906200006a929190620000ed565b50505060fb600960003373ffffffffffffffffffffffffffffffffffffffff1673ffffffffffffffffffffffffffffffffffffffff168152602001908152602001600020819055508260059080519060200190620000ca929190620000ed565b508160069080519060200190620000e3929190620000ed565b5050505062000403565b828054620000fb9062000355565b90600052602060002090601f0160209004810192826200011f57600085556200016b565b82601f106200013a57805160ff19168380011785556200016b565b828001600101855582156200016b579182015b828111156200016a5782518255916020019190600101906200014d565b5b5090506200017a91906200017e565b5090565b5b80821115620001995760008160009055506001016200017f565b5090565b6000620001b4620001ae84620002e2565b620002ae565b905082815260208101848484011115620001cd57600080fd5b620001da8482856200031f565b509392505050565b600082601f830112620001f457600080fd5b8151620002068482602086016200019d565b91505092915050565b6000815190506200022081620003e9565b92915050565b6000806000606084860312156200023c57600080fd5b600084015167ffffffffffffffff8111156200025757600080fd5b6200026586828701620001e2565b935050602084015167ffffffffffffffff8111156200028357600080fd5b6200029186828701620001e2565b9250506040620002a4868287016200020f565b9150509250925092565b6000604051905081810181811067ffffffffffffffff82111715620002d857620002d7620003ba565b5b8060405250919050565b600067ffffffffffffffff8211156200030057620002ff620003ba565b5b601f19601f8301169050602081019050919050565b6000819050919050565b60005b838110156200033f57808201518184015260208101905062000322565b838111156200034f576000848401525b50505050565b600060028204905060018216806200036e57607f821691505b602082108114156200038557620003846200038b565b5b50919050565b7f4e487b7100000000000000000000000000000000000000000000000000000000600052602260045260246000fd5b7f4e487b7100000000000000000000000000000000000000000000000000000000600052604160045260246000fd5b620003f48162000315565b81146200040057600080fd5b50565b611b9a80620004136000396000f3fe608060405234801561001057600080fd5b506004361061010b5760003560e01c806355ad1f62116100a25780639dcbfe68116100715780639dcbfe68146102b8578063a457c2d7146102d4578063a9059cbb14610304578063beabacc814610334578063dd62ed3e146103645761010b565b806355ad1f62146102325780636111ca211461024e57806370a082311461026a57806395d89b411461029a5761010b565b806323b872dd116100de57806323b872dd146101985780632d8e2a75146101c8578063313ce567146101e457806339509351146102025761010b565b806306fdde0314610110578063095ea7b31461012e5780630a06d1e61461015e57806318160ddd1461017a575b600080fd5b610118610394565b60405161012591906118b0565b60405180910390f35b61014860048036038101906101439190611557565b610399565b6040516101559190611895565b60405180910390f35b61017860048036038101906101739190611557565b61048b565b005b61018261051b565b60405161018f9190611992565b60405180910390f35b6101b260048036038101906101ad9190611508565b610525565b6040516101bf9190611895565b60405180910390f35b6101e260048036038101906101dd9190611557565b610885565b005b6101ec610908565b6040516101f991906119ad565b60405180910390f35b61021c60048036038101906102179190611557565b61091f565b6040516102299190611895565b60405180910390f35b61024c60048036038101906102479190611557565b6109cb565b005b61026860048036038101906102639190611557565b610a5b565b005b610284600480360381019061027f91906114a3565b610aa3565b6040516102919190611992565b60405180910390f35b6102a2610aec565b6040516102af91906118b0565b60405180910390f35b6102d260048036038101906102cd9190611557565b610af1565b005b6102ee60048036038101906102e99190611557565b610b76565b6040516102fb9190611895565b60405180910390f35b61031e60048036038101906103199190611557565b610c61565b60405161032b9190611895565b60405180910390f35b61034e60048036038101906103499190611508565b610c7f565b60405161035b9190611895565b60405180910390f35b61037e600480360381019061037991906114cc565b610f68565b60405161038b9190611992565b60405180910390f35b606090565b600081600a60003373ffffffffffffffffffffffffffffffffffffffff1673ffffffffffffffffffffffffffffffffffffffff16815260200190815260200160002060008573ffffffffffffffffffffffffffffffffffffffff1673ffffffffffffffffffffffffffffffffffffffff168152602001908152602001600020819055508273ffffffffffffffffffffffffffffffffffffffff163373ffffffffffffffffffffffffffffffffffffffff167f8c5be1e5ebec7d5bd14f71427d1e84f3dd0314c0f7b2291e5b200ac8c7c3b925846040516104799190611992565b60405180910390a36001905092915050565b6104d4600960008473ffffffffffffffffffffffffffffffffffffffff1673ffffffffffffffffffffffffffffffffffffffff1681526020019081526020016000205482610fef565b600960008473ffffffffffffffffffffffffffffffffffffffff1673ffffffffffffffffffffffffffffffffffffffff168152602001908152602001600020819055505050565b6000600854905090565b60008073ffffffffffffffffffffffffffffffffffffffff168373ffffffffffffffffffffffffffffffffffffffff16141561056057600080fd5b600960008573ffffffffffffffffffffffffffffffffffffffff1673ffffffffffffffffffffffffffffffffffffffff168152602001908152602001600020548211156105ac57600080fd5b600a60008573ffffffffffffffffffffffffffffffffffffffff1673ffffffffffffffffffffffffffffffffffffffff16815260200190815260200160002060003373ffffffffffffffffffffffffffffffffffffffff1673ffffffffffffffffffffffffffffffffffffffff1681526020019081526020016000205482111561063557600080fd5b3073ffffffffffffffffffffffffffffffffffffffff166355ad1f6284846040518363ffffffff1660e01b815260040161067092919061186c565b600060405180830381600087803b15801561068a57600080fd5b505af115801561069e573d6000803e3d6000fd5b505050503073ffffffffffffffffffffffffffffffffffffffff16630a06d1e684846040518363ffffffff1660e01b81526004016106dd92919061186c565b600060405180830381600087803b1580156106f757600080fd5b505af115801561070b573d6000803e3d6000fd5b50505050610795600a60008673ffffffffffffffffffffffffffffffffffffffff1673ffffffffffffffffffffffffffffffffffffffff16815260200190815260200160002060003373ffffffffffffffffffffffffffffffffffffffff1673ffffffffffffffffffffffffffffffffffffffff1681526020019081526020016000205483610fef565b600a60008673ffffffffffffffffffffffffffffffffffffffff1673ffffffffffffffffffffffffffffffffffffffff16815260200190815260200160002060003373ffffffffffffffffffffffffffffffffffffffff1673ffffffffffffffffffffffffffffffffffffffff168152602001908152602001600020819055508273ffffffffffffffffffffffffffffffffffffffff168473ffffffffffffffffffffffffffffffffffffffff167fddf252ad1be2c89b69c2b068fc378daa952ba7f163c4a11628f55a4df523b3ef846040516108729190611992565b60405180910390a3600190509392505050565b61089160085482611005565b6008819055503073ffffffffffffffffffffffffffffffffffffffff166355ad1f6283836040518363ffffffff1660e01b81526004016108d292919061186c565b600060405180830381600087803b1580156108ec57600080fd5b505af1158015610900573d6000803e3d6000fd5b505050505050565b6000600760009054906101000a900460ff16905090565b60006109c161092c61101b565b84846001600061093a61101b565b73ffffffffffffffffffffffffffffffffffffffff1673ffffffffffffffffffffffffffffffffffffffff16815260200190815260200160002060008873ffffffffffffffffffffffffffffffffffffffff1673ffffffffffffffffffffffffffffffffffffffff168152602001908152602001600020546109bc91906119e4565b611023565b6001905092915050565b610a14600960008473ffffffffffffffffffffffffffffffffffffffff1673ffffffffffffffffffffffffffffffffffffffff1681526020019081526020016000205482611005565b600960008473ffffffffffffffffffffffffffffffffffffffff1673ffffffffffffffffffffffffffffffffffffffff168152602001908152602001600020819055505050565b80600960008473ffffffffffffffffffffffffffffffffffffffff1673ffffffffffffffffffffffffffffffffffffffff168152602001908152602001600020819055505050565b6000600960008373ffffffffffffffffffffffffffffffffffffffff1673ffffffffffffffffffffffffffffffffffffffff168152602001908152602001600020549050919050565b606090565b80600854610aff9190611a3a565b6008819055503073ffffffffffffffffffffffffffffffffffffffff16630a06d1e683836040518363ffffffff1660e01b8152600401610b4092919061186c565b600060405180830381600087803b158015610b5a57600080fd5b505af1158015610b6e573d6000803e3d6000fd5b505050505050565b60008060016000610b8561101b565b73ffffffffffffffffffffffffffffffffffffffff1673ffffffffffffffffffffffffffffffffffffffff16815260200190815260200160002060008573ffffffffffffffffffffffffffffffffffffffff1673ffffffffffffffffffffffffffffffffffffffff16815260200190815260200160002054905082811015610c42576040517f08c379a0000000000000000000000000000000000000000000000000000000008152600401610c3990611972565b60405180910390fd5b610c56610c4d61101b565b85858403611023565b600191505092915050565b6000610c75610c6e61101b565b84846111ee565b6001905092915050565b60008073ffffffffffffffffffffffffffffffffffffffff168373ffffffffffffffffffffffffffffffffffffffff161415610cba57600080fd5b600960003373ffffffffffffffffffffffffffffffffffffffff1673ffffffffffffffffffffffffffffffffffffffff16815260200190815260200160002054821115610d0657600080fd5b3073ffffffffffffffffffffffffffffffffffffffff166355ad1f6284846040518363ffffffff1660e01b8152600401610d4192919061186c565b600060405180830381600087803b158015610d5b57600080fd5b505af1158015610d6f573d6000803e3d6000fd5b505050503073ffffffffffffffffffffffffffffffffffffffff16630a06d1e684846040518363ffffffff1660e01b8152600401610dae92919061186c565b600060405180830381600087803b158015610dc857600080fd5b505af1158015610ddc573d6000803e3d6000fd5b50505050610e29600960003373ffffffffffffffffffffffffffffffffffffffff1673ffffffffffffffffffffffffffffffffffffffff1681526020019081526020016000205483610fef565b600960008673ffffffffffffffffffffffffffffffffffffffff1673ffffffffffffffffffffffffffffffffffffffff16815260200190815260200160002081905550610eb5600960008573ffffffffffffffffffffffffffffffffffffffff1673ffffffffffffffffffffffffffffffffffffffff1681526020019081526020016000205483611005565b600960008573ffffffffffffffffffffffffffffffffffffffff1673ffffffffffffffffffffffffffffffffffffffff168152602001908152602001600020819055508273ffffffffffffffffffffffffffffffffffffffff163373ffffffffffffffffffffffffffffffffffffffff167fddf252ad1be2c89b69c2b068fc378daa952ba7f163c4a11628f55a4df523b3ef84604051610f559190611992565b60405180910390a3600190509392505050565b6000600a60008473ffffffffffffffffffffffffffffffffffffffff1673ffffffffffffffffffffffffffffffffffffffff16815260200190815260200160002060008373ffffffffffffffffffffffffffffffffffffffff1673ffffffffffffffffffffffffffffffffffffffff16815260200190815260200160002054905092915050565b60008183610ffd9190611a3a565b905092915050565b6000818361101391906119e4565b905092915050565b600033905090565b600073ffffffffffffffffffffffffffffffffffffffff168373ffffffffffffffffffffffffffffffffffffffff161415611093576040517f08c379a000000000000000000000000000000000000000000000000000000000815260040161108a90611952565b60405180910390fd5b600073ffffffffffffffffffffffffffffffffffffffff168273ffffffffffffffffffffffffffffffffffffffff161415611103576040517f08c379a00000000000000000000000000000000000000000000000000000000081526004016110fa906118f2565b60405180910390fd5b80600160008573ffffffffffffffffffffffffffffffffffffffff1673ffffffffffffffffffffffffffffffffffffffff16815260200190815260200160002060008473ffffffffffffffffffffffffffffffffffffffff1673ffffffffffffffffffffffffffffffffffffffff168152602001908152602001600020819055508173ffffffffffffffffffffffffffffffffffffffff168373ffffffffffffffffffffffffffffffffffffffff167f8c5be1e5ebec7d5bd14f71427d1e84f3dd0314c0f7b2291e5b200ac8c7c3b925836040516111e19190611992565b60405180910390a3505050565b600073ffffffffffffffffffffffffffffffffffffffff168373ffffffffffffffffffffffffffffffffffffffff16141561125e576040517f08c379a000000000000000000000000000000000000000000000000000000000815260040161125590611932565b60405180910390fd5b600073ffffffffffffffffffffffffffffffffffffffff168273ffffffffffffffffffffffffffffffffffffffff1614156112ce576040517f08c379a00000000000000000000000000000000000000000000000000000000081526004016112c5906118d2565b60405180910390fd5b6112d983838361146f565b60008060008573ffffffffffffffffffffffffffffffffffffffff1673ffffffffffffffffffffffffffffffffffffffff1681526020019081526020016000205490508181101561135f576040517f08c379a000000000000000000000000000000000000000000000000000000000815260040161135690611912565b60405180910390fd5b8181036000808673ffffffffffffffffffffffffffffffffffffffff1673ffffffffffffffffffffffffffffffffffffffff16815260200190815260200160002081905550816000808573ffffffffffffffffffffffffffffffffffffffff1673ffffffffffffffffffffffffffffffffffffffff16815260200190815260200160002060008282546113f291906119e4565b925050819055508273ffffffffffffffffffffffffffffffffffffffff168473ffffffffffffffffffffffffffffffffffffffff167fddf252ad1be2c89b69c2b068fc378daa952ba7f163c4a11628f55a4df523b3ef846040516114569190611992565b60405180910390a3611469848484611474565b50505050565b505050565b505050565b60008135905061148881611b36565b92915050565b60008135905061149d81611b4d565b92915050565b6000602082840312156114b557600080fd5b60006114c384828501611479565b91505092915050565b600080604083850312156114df57600080fd5b60006114ed85828601611479565b92505060206114fe85828601611479565b9150509250929050565b60008060006060848603121561151d57600080fd5b600061152b86828701611479565b935050602061153c86828701611479565b925050604061154d8682870161148e565b9150509250925092565b6000806040838503121561156a57600080fd5b600061157885828601611479565b92505060206115898582860161148e565b9150509250929050565b61159c81611a6e565b82525050565b6115ab81611a80565b82525050565b60006115bc826119c8565b6115c681856119d3565b93506115d6818560208601611ac3565b6115df81611b25565b840191505092915050565b60006115f76023836119d3565b91507f45524332303a207472616e7366657220746f20746865207a65726f206164647260008301527f65737300000000000000000000000000000000000000000000000000000000006020830152604082019050919050565b600061165d6022836119d3565b91507f45524332303a20617070726f766520746f20746865207a65726f20616464726560008301527f73730000000000000000000000000000000000000000000000000000000000006020830152604082019050919050565b60006116c36026836119d3565b91507f45524332303a207472616e7366657220616d6f756e742065786365656473206260008301527f616c616e636500000000000000000000000000000000000000000000000000006020830152604082019050919050565b60006117296025836119d3565b91507f45524332303a207472616e736665722066726f6d20746865207a65726f20616460008301527f64726573730000000000000000000000000000000000000000000000000000006020830152604082019050919050565b600061178f6024836119d3565b91507f45524332303a20617070726f76652066726f6d20746865207a65726f2061646460008301527f72657373000000000000000000000000000000000000000000000000000000006020830152604082019050919050565b60006117f56025836119d3565b91507f45524332303a2064656372656173656420616c6c6f77616e63652062656c6f7760008301527f207a65726f0000000000000000000000000000000000000000000000000000006020830152604082019050919050565b61185781611aac565b82525050565b61186681611ab6565b82525050565b60006040820190506118816000830185611593565b61188e602083018461184e565b9392505050565b60006020820190506118aa60008301846115a2565b92915050565b600060208201905081810360008301526118ca81846115b1565b905092915050565b600060208201905081810360008301526118eb816115ea565b9050919050565b6000602082019050818103600083015261190b81611650565b9050919050565b6000602082019050818103600083015261192b816116b6565b9050919050565b6000602082019050818103600083015261194b8161171c565b9050919050565b6000602082019050818103600083015261196b81611782565b9050919050565b6000602082019050818103600083015261198b816117e8565b9050919050565b60006020820190506119a7600083018461184e565b92915050565b60006020820190506119c2600083018461185d565b92915050565b600081519050919050565b600082825260208201905092915050565b60006119ef82611aac565b91506119fa83611aac565b9250827fffffffffffffffffffffffffffffffffffffffffffffffffffffffffffffffff03821115611a2f57611a2e611af6565b5b828201905092915050565b6000611a4582611aac565b9150611a5083611aac565b925082821015611a6357611a62611af6565b5b828203905092915050565b6000611a7982611a8c565b9050919050565b60008115159050919050565b600073ffffffffffffffffffffffffffffffffffffffff82169050919050565b6000819050919050565b600060ff82169050919050565b60005b83811015611ae1578082015181840152602081019050611ac6565b83811115611af0576000848401525b50505050565b7f4e487b7100000000000000000000000000000000000000000000000000000000600052601160045260246000fd5b6000601f19601f8301169050919050565b611b3f81611a6e565b8114611b4a57600080fd5b50565b611b5681611aac565b8114611b6157600080fd5b5056fea2646970667358221220b4d3a656cc76d6785263e083880f16f06893d9d332cdb2e6b9876d49a0cef2d664736f6c63430008000033",
  "immutableReferences": {},
  "source": "pragma solidity ^0.8.0;\r\n\r\n\r\nimport \"@openzeppelin/contracts/token/ERC20/ERC20.sol\";\r\nimport \"@openzeppelin/contracts/utils/math/SafeMath.sol\";\r\n\r\n\r\ncontract UNICOIN is ERC20 {\r\n\r\n    // is defines a kind of inheritance \r\n  using SafeMath for uint;\r\n  // using: includes a library within a contract in solidity \r\n  // SafeMath: defines functions add, sub, mul, div (to prevent overflows)\r\n     \r\n    string internal _name;\r\n    //internal: like \"protected\", i.e. accessible to contract itself and derived contracts \r\n    string internal _symbol;\r\n    uint8 internal _decimals;\r\n    uint256 internal _totalSupply;\r\n\r\n    mapping (address => uint256) internal balances;\r\n    // keys: address ; values: uint256 (a 256-bit integer used to store token balances)\r\n\r\n    mapping (address => mapping (address => uint256)) internal allowed;\r\n    // now you have to specify two addresses: allowed[_from][msg.sender] <- who allows, who is allowed\r\n    // will include all accounts approved to withdraw from\r\n    // a given account together with the withdrawal sum allowed for each\r\n\r\n    constructor(string memory name, string memory symbol, uint256 totalSupply) ERC20(name, symbol) {\r\n        balances[msg.sender] = 251;\r\n        _name = name;\r\n        _symbol = symbol;\r\n    }\r\n\r\n    function name ()\r\n        public\r\n        view override \r\n        returns (string memory _name) {\r\n        return _name;\r\n    }\r\n\r\n    function symbol()\r\n        public\r\n        view override\r\n        returns (string memory _symbol) {\r\n        return _symbol;\r\n    }\r\n\r\n    function decimals()\r\n        public\r\n        view override\r\n        returns (uint8) {\r\n        return _decimals;\r\n    }\r\n\r\n    function totalSupply()\r\n        public\r\n        view override\r\n        returns (uint256) {\r\n        return _totalSupply;\r\n    }\r\n\r\n   function transfer(address _from, address _to, uint256 _value) external returns (bool) {\r\n     require(_to != address(0));\r\n     require(_value <= balances[msg.sender]);\r\n     // the value of the transaction should be smaller than the balance \r\n     // of the transaction originator\r\n     \r\n     this.increaseBalanceOf(_to, _value);\r\n     this.decreaseBalanceOf(_to, _value);\r\n     \r\n     balances[_from] = SafeMath.sub(balances[msg.sender], _value);\r\n     balances[_to] = SafeMath.add(balances[_to], _value);\r\n     // add money to the account you transfer money to \r\n     \r\n     emit Transfer(msg.sender, _to, _value);\r\n     // emit an event \"Transfer\"\r\n     \r\n     return true;\r\n   }\r\n\r\n  function balanceOf(address _owner) public view override returns (uint256) {\r\n    return balances[_owner];\r\n   } // balanceOf will return the current token balance of\r\n   //an account, identified by its owner's address\r\n   \r\n  function increaseBalanceOf(address _owner, uint256 _amount) external{\r\n    //balances[_owner] = balances[_owner] + _amount;\r\n    balances[_owner] = SafeMath.add(balances[_owner], _amount);\r\n  }\r\n  \r\n  function decreaseBalanceOf(address _owner, uint256 _amount) external{\r\n    //balances[_owner] = balances[_owner] - _amount;\r\n    balances[_owner] = SafeMath.sub(balances[_owner], _amount);\r\n  }\r\n  \r\n  function increaseCirculation(address _owner, uint256 _amount) external{\r\n    _totalSupply = SafeMath.add(_totalSupply, _amount);\r\n    this.increaseBalanceOf(_owner, _amount);\r\n  }\r\n  \r\n  function decreaseCirculation(address _owner, uint256 _amount) external{\r\n    _totalSupply = _totalSupply - _amount;\r\n    this.decreaseBalanceOf(_owner, _amount);\r\n  }\r\n  \r\n  function enroll(address _owner, uint256 _amount) external {\r\n    \r\n    //require(isMember(_owner)==false);\r\n    balances[_owner] = _amount;//SafeMath.add(balances[_owner], _amount);\r\n  }\r\n  \r\n   function isMember(address member) internal view returns(bool isIndeed) {\r\n    return (balances[member] != 0);\r\n    }\r\n      \r\n  \r\n  function transferFrom(address _from, address _to, uint256 _value) public override returns (bool) {\r\n    require(_to != address(0));\r\n     require(_value <= balances[_from]);\r\n     require(_value <= allowed[_from][msg.sender]);\r\n    // Verify that the transaction is legitimate\r\n\r\n    this.increaseBalanceOf(_to, _value);\r\n    this.decreaseBalanceOf(_to, _value);\r\n    //balances[_to] = SafeMath.add(balances[_to], _value);\r\n    allowed[_from][msg.sender] = SafeMath.sub(allowed[_from][msg.sender], _value);\r\n    emit Transfer(_from, _to, _value);\r\n    return true;\r\n   }\r\n\r\n   function approve(address _spender, uint256 _value) public override returns (bool) {\r\n     allowed[msg.sender][_spender] = _value;\r\n     emit Approval(msg.sender, _spender, _value);\r\n     return true;\r\n     \r\n     // allows msg.sender to approve a _spender account to spend some _value on his behalf \r\n   }\r\n\r\n  function allowance(address _owner, address _spender) public view override returns (uint256) {\r\n     return allowed[_owner][_spender];\r\n     \r\n     // Returns the current approved number of tokens by an owner\r\n     // to a specific delegate, as set in the approve function\r\n   }\r\n}",
  "sourcePath": "C:/Users/Dell/Desktop/Olzhas/Summer2021/UNICOIN/contracts/UNICOIN.sol",
  "compiler": {
    "name": "solc",
    "version": "0.8.0+commit.c7dfd78e.Emscripten.clang"
  },
  "schemaVersion": "3.4.1",
  "updatedAt": "2021-07-16T05:59:26.798Z",
  "networkType": "ethereum",
  "devdoc": {
    "kind": "dev",
    "methods": {
      "decimals()": {
        "details": "Returns the number of decimals used to get its user representation. For example, if `decimals` equals `2`, a balance of `505` tokens should be displayed to a user as `5,05` (`505 / 10 ** 2`). Tokens usually opt for a value of 18, imitating the relationship between Ether and Wei. This is the value {ERC20} uses, unless this function is overridden; NOTE: This information is only used for _display_ purposes: it in no way affects any of the arithmetic of the contract, including {IERC20-balanceOf} and {IERC20-transfer}."
      },
      "decreaseAllowance(address,uint256)": {
        "details": "Atomically decreases the allowance granted to `spender` by the caller. This is an alternative to {approve} that can be used as a mitigation for problems described in {IERC20-approve}. Emits an {Approval} event indicating the updated allowance. Requirements: - `spender` cannot be the zero address. - `spender` must have allowance for the caller of at least `subtractedValue`."
      },
      "increaseAllowance(address,uint256)": {
        "details": "Atomically increases the allowance granted to `spender` by the caller. This is an alternative to {approve} that can be used as a mitigation for problems described in {IERC20-approve}. Emits an {Approval} event indicating the updated allowance. Requirements: - `spender` cannot be the zero address."
      },
      "name()": {
        "details": "Returns the name of the token."
      },
      "symbol()": {
        "details": "Returns the symbol of the token, usually a shorter version of the name."
      },
      "totalSupply()": {
        "details": "See {IERC20-totalSupply}."
      },
      "transfer(address,uint256)": {
        "details": "See {IERC20-transfer}. Requirements: - `recipient` cannot be the zero address. - the caller must have a balance of at least `amount`."
      }
    },
    "version": 1
  },
  "userdoc": {
    "kind": "user",
    "methods": {},
    "version": 1
  }
}