{
  "contractName": "UNICOIN",
  "abi": [
    {
      "inputs": [
        {
          "internalType": "string",
          "name": "name",
          "type": "string"
        },
        {
          "internalType": "string",
          "name": "symbol",
          "type": "string"
        },
        {
          "internalType": "uint256",
          "name": "totalSupply",
          "type": "uint256"
        }
      ],
      "stateMutability": "nonpayable",
      "type": "constructor"
    },
    {
      "anonymous": false,
      "inputs": [
        {
          "indexed": true,
          "internalType": "address",
          "name": "owner",
          "type": "address"
        },
        {
          "indexed": true,
          "internalType": "address",
          "name": "spender",
          "type": "address"
        },
        {
          "indexed": false,
          "internalType": "uint256",
          "name": "value",
          "type": "uint256"
        }
      ],
      "name": "Approval",
      "type": "event"
    },
    {
      "anonymous": false,
      "inputs": [
        {
          "indexed": true,
          "internalType": "address",
          "name": "from",
          "type": "address"
        },
        {
          "indexed": true,
          "internalType": "address",
          "name": "to",
          "type": "address"
        },
        {
          "indexed": false,
          "internalType": "uint256",
          "name": "value",
          "type": "uint256"
        }
      ],
      "name": "Transfer",
      "type": "event"
    },
    {
      "inputs": [
        {
          "internalType": "address",
          "name": "spender",
          "type": "address"
        },
        {
          "internalType": "uint256",
          "name": "subtractedValue",
          "type": "uint256"
        }
      ],
      "name": "decreaseAllowance",
      "outputs": [
        {
          "internalType": "bool",
          "name": "",
          "type": "bool"
        }
      ],
      "stateMutability": "nonpayable",
      "type": "function"
    },
    {
      "inputs": [
        {
          "internalType": "address",
          "name": "spender",
          "type": "address"
        },
        {
          "internalType": "uint256",
          "name": "addedValue",
          "type": "uint256"
        }
      ],
      "name": "increaseAllowance",
      "outputs": [
        {
          "internalType": "bool",
          "name": "",
          "type": "bool"
        }
      ],
      "stateMutability": "nonpayable",
      "type": "function"
    },
    {
      "inputs": [],
      "name": "name",
      "outputs": [
        {
          "internalType": "string",
          "name": "_name",
          "type": "string"
        }
      ],
      "stateMutability": "view",
      "type": "function"
    },
    {
      "inputs": [],
      "name": "symbol",
      "outputs": [
        {
          "internalType": "string",
          "name": "_symbol",
          "type": "string"
        }
      ],
      "stateMutability": "view",
      "type": "function"
    },
    {
      "inputs": [],
      "name": "decimals",
      "outputs": [
        {
          "internalType": "uint8",
          "name": "",
          "type": "uint8"
        }
      ],
      "stateMutability": "view",
      "type": "function"
    },
    {
      "inputs": [],
      "name": "totalSupply",
      "outputs": [
        {
          "internalType": "uint256",
          "name": "",
          "type": "uint256"
        }
      ],
      "stateMutability": "view",
      "type": "function"
    },
    {
      "inputs": [
        {
          "internalType": "address",
          "name": "_from",
          "type": "address"
        },
        {
          "internalType": "address",
          "name": "_to",
          "type": "address"
        },
        {
          "internalType": "uint256",
          "name": "_value",
          "type": "uint256"
        }
      ],
      "name": "transfer",
      "outputs": [
        {
          "internalType": "bool",
          "name": "",
          "type": "bool"
        }
      ],
      "stateMutability": "nonpayable",
      "type": "function"
    },
    {
      "inputs": [
        {
          "internalType": "address",
          "name": "recipient",
          "type": "address"
        },
        {
          "internalType": "uint256",
          "name": "amount",
          "type": "uint256"
        }
      ],
      "name": "transfer",
      "outputs": [
        {
          "internalType": "bool",
          "name": "",
          "type": "bool"
        }
      ],
      "stateMutability": "nonpayable",
      "type": "function"
    },
    {
      "inputs": [
        {
          "internalType": "address",
          "name": "_owner",
          "type": "address"
        }
      ],
      "name": "balanceOf",
      "outputs": [
        {
          "internalType": "uint256",
          "name": "balance",
          "type": "uint256"
        }
      ],
      "stateMutability": "view",
      "type": "function"
    },
    {
      "inputs": [
        {
          "internalType": "address",
          "name": "_owner",
          "type": "address"
        },
        {
          "internalType": "uint256",
          "name": "_amount",
          "type": "uint256"
        }
      ],
      "name": "increaseCirculation",
      "outputs": [],
      "stateMutability": "nonpayable",
      "type": "function"
    },
    {
      "inputs": [
        {
          "internalType": "address",
          "name": "_owner",
          "type": "address"
        },
        {
          "internalType": "uint256",
          "name": "_amount",
          "type": "uint256"
        }
      ],
      "name": "decreaseCirculation",
      "outputs": [],
      "stateMutability": "nonpayable",
      "type": "function"
    },
    {
      "inputs": [
        {
          "internalType": "address",
          "name": "_owner",
          "type": "address"
        },
        {
          "internalType": "uint256",
          "name": "_amount",
          "type": "uint256"
        }
      ],
      "name": "enroll",
      "outputs": [],
      "stateMutability": "nonpayable",
      "type": "function"
    },
    {
      "inputs": [
        {
          "internalType": "address",
          "name": "_from",
          "type": "address"
        },
        {
          "internalType": "address",
          "name": "_to",
          "type": "address"
        },
        {
          "internalType": "uint256",
          "name": "_value",
          "type": "uint256"
        }
      ],
      "name": "transferFrom",
      "outputs": [
        {
          "internalType": "bool",
          "name": "",
          "type": "bool"
        }
      ],
      "stateMutability": "nonpayable",
      "type": "function"
    },
    {
      "inputs": [
        {
          "internalType": "address",
          "name": "_spender",
          "type": "address"
        },
        {
          "internalType": "uint256",
          "name": "_value",
          "type": "uint256"
        }
      ],
      "name": "approve",
      "outputs": [
        {
          "internalType": "bool",
          "name": "",
          "type": "bool"
        }
      ],
      "stateMutability": "nonpayable",
      "type": "function"
    },
    {
      "inputs": [
        {
          "internalType": "address",
          "name": "_owner",
          "type": "address"
        },
        {
          "internalType": "address",
          "name": "_spender",
          "type": "address"
        }
      ],
      "name": "allowance",
      "outputs": [
        {
          "internalType": "uint256",
          "name": "",
          "type": "uint256"
        }
      ],
      "stateMutability": "view",
      "type": "function"
    }
  ],
  "bytecode": "0x60806040523480156200001157600080fd5b5060405162001deb38038062001deb833981810160405281019062000037919062000232565b8282816003908051906020019062000051929190620000ed565b5080600490805190602001906200006a929190620000ed565b50505060fb600960003373ffffffffffffffffffffffffffffffffffffffff1673ffffffffffffffffffffffffffffffffffffffff168152602001908152602001600020819055508260059080519060200190620000ca929190620000ed565b508160069080519060200190620000e3929190620000ed565b5050505062000474565b828054620000fb906200036b565b90600052602060002090601f0160209004810192826200011f57600085556200016b565b82601f106200013a57805160ff19168380011785556200016b565b828001600101855582156200016b579182015b828111156200016a5782518255916020019190600101906200014d565b5b5090506200017a91906200017e565b5090565b5b80821115620001995760008160009055506001016200017f565b5090565b6000620001b4620001ae84620002f5565b620002cc565b905082815260208101848484011115620001d357620001d26200043a565b5b620001e084828562000335565b509392505050565b600082601f8301126200020057620001ff62000435565b5b8151620002128482602086016200019d565b91505092915050565b6000815190506200022c816200045a565b92915050565b6000806000606084860312156200024e576200024d62000444565b5b600084015167ffffffffffffffff8111156200026f576200026e6200043f565b5b6200027d86828701620001e8565b935050602084015167ffffffffffffffff811115620002a157620002a06200043f565b5b620002af86828701620001e8565b9250506040620002c2868287016200021b565b9150509250925092565b6000620002d8620002eb565b9050620002e68282620003a1565b919050565b6000604051905090565b600067ffffffffffffffff82111562000313576200031262000406565b5b6200031e8262000449565b9050602081019050919050565b6000819050919050565b60005b838110156200035557808201518184015260208101905062000338565b8381111562000365576000848401525b50505050565b600060028204905060018216806200038457607f821691505b602082108114156200039b576200039a620003d7565b5b50919050565b620003ac8262000449565b810181811067ffffffffffffffff82111715620003ce57620003cd62000406565b5b80604052505050565b7f4e487b7100000000000000000000000000000000000000000000000000000000600052602260045260246000fd5b7f4e487b7100000000000000000000000000000000000000000000000000000000600052604160045260246000fd5b600080fd5b600080fd5b600080fd5b600080fd5b6000601f19601f8301169050919050565b62000465816200032b565b81146200047157600080fd5b50565b61196780620004846000396000f3fe608060405234801561001057600080fd5b50600436106100f55760003560e01c80636111ca2111610097578063a457c2d711610066578063a457c2d714610286578063a9059cbb146102b6578063beabacc8146102e6578063dd62ed3e14610316576100f5565b80636111ca211461020057806370a082311461021c57806395d89b411461024c5780639dcbfe681461026a576100f5565b806323b872dd116100d357806323b872dd146101665780632d8e2a7514610196578063313ce567146101b257806339509351146101d0576100f5565b806306fdde03146100fa578063095ea7b31461011857806318160ddd14610148575b600080fd5b610102610346565b60405161010f919061149e565b60405180910390f35b610132600480360381019061012d919061130b565b61034b565b60405161013f9190611483565b60405180910390f35b61015061043d565b60405161015d9190611580565b60405180910390f35b610180600480360381019061017b91906112b8565b610447565b60405161018d9190611483565b60405180910390f35b6101b060048036038101906101ab919061130b565b6106e1565b005b6101ba610701565b6040516101c7919061159b565b60405180910390f35b6101ea60048036038101906101e5919061130b565b610718565b6040516101f79190611483565b60405180910390f35b61021a6004803603810190610215919061130b565b6107c4565b005b6102366004803603810190610231919061124b565b610854565b6040516102439190611580565b60405180910390f35b61025461089d565b604051610261919061149e565b60405180910390f35b610284600480360381019061027f919061130b565b6108a2565b005b6102a0600480360381019061029b919061130b565b6108c4565b6040516102ad9190611483565b60405180910390f35b6102d060048036038101906102cb919061130b565b6109af565b6040516102dd9190611483565b60405180910390f35b61030060048036038101906102fb91906112b8565b6109cd565b60405161030d9190611483565b60405180910390f35b610330600480360381019061032b9190611278565b610bf0565b60405161033d9190611580565b60405180910390f35b606090565b600081600a60003373ffffffffffffffffffffffffffffffffffffffff1673ffffffffffffffffffffffffffffffffffffffff16815260200190815260200160002060008573ffffffffffffffffffffffffffffffffffffffff1673ffffffffffffffffffffffffffffffffffffffff168152602001908152602001600020819055508273ffffffffffffffffffffffffffffffffffffffff163373ffffffffffffffffffffffffffffffffffffffff167f8c5be1e5ebec7d5bd14f71427d1e84f3dd0314c0f7b2291e5b200ac8c7c3b9258460405161042b9190611580565b60405180910390a36001905092915050565b6000600854905090565b60008073ffffffffffffffffffffffffffffffffffffffff168373ffffffffffffffffffffffffffffffffffffffff16141561048257600080fd5b600960008573ffffffffffffffffffffffffffffffffffffffff1673ffffffffffffffffffffffffffffffffffffffff168152602001908152602001600020548211156104ce57600080fd5b600a60008573ffffffffffffffffffffffffffffffffffffffff1673ffffffffffffffffffffffffffffffffffffffff16815260200190815260200160002060003373ffffffffffffffffffffffffffffffffffffffff1673ffffffffffffffffffffffffffffffffffffffff1681526020019081526020016000205482111561055757600080fd5b6105618383610c77565b61056b8383610d07565b6105f1600a60008673ffffffffffffffffffffffffffffffffffffffff1673ffffffffffffffffffffffffffffffffffffffff16815260200190815260200160002060003373ffffffffffffffffffffffffffffffffffffffff1673ffffffffffffffffffffffffffffffffffffffff1681526020019081526020016000205483610d97565b600a60008673ffffffffffffffffffffffffffffffffffffffff1673ffffffffffffffffffffffffffffffffffffffff16815260200190815260200160002060003373ffffffffffffffffffffffffffffffffffffffff1673ffffffffffffffffffffffffffffffffffffffff168152602001908152602001600020819055508273ffffffffffffffffffffffffffffffffffffffff168473ffffffffffffffffffffffffffffffffffffffff167fddf252ad1be2c89b69c2b068fc378daa952ba7f163c4a11628f55a4df523b3ef846040516106ce9190611580565b60405180910390a3600190509392505050565b6106ed60085482610dad565b6008819055506106fd8282610c77565b5050565b6000600760009054906101000a900460ff16905090565b60006107ba610725610dc3565b848460016000610733610dc3565b73ffffffffffffffffffffffffffffffffffffffff1673ffffffffffffffffffffffffffffffffffffffff16815260200190815260200160002060008873ffffffffffffffffffffffffffffffffffffffff1673ffffffffffffffffffffffffffffffffffffffff168152602001908152602001600020546107b591906115d2565b610dcb565b6001905092915050565b61080d600960008473ffffffffffffffffffffffffffffffffffffffff1673ffffffffffffffffffffffffffffffffffffffff1681526020019081526020016000205482610dad565b600960008473ffffffffffffffffffffffffffffffffffffffff1673ffffffffffffffffffffffffffffffffffffffff168152602001908152602001600020819055505050565b6000600960008373ffffffffffffffffffffffffffffffffffffffff1673ffffffffffffffffffffffffffffffffffffffff168152602001908152602001600020549050919050565b606090565b806008546108b09190611628565b6008819055506108c08282610d07565b5050565b600080600160006108d3610dc3565b73ffffffffffffffffffffffffffffffffffffffff1673ffffffffffffffffffffffffffffffffffffffff16815260200190815260200160002060008573ffffffffffffffffffffffffffffffffffffffff1673ffffffffffffffffffffffffffffffffffffffff16815260200190815260200160002054905082811015610990576040517f08c379a000000000000000000000000000000000000000000000000000000000815260040161098790611560565b60405180910390fd5b6109a461099b610dc3565b85858403610dcb565b600191505092915050565b60006109c36109bc610dc3565b8484610f96565b6001905092915050565b60008073ffffffffffffffffffffffffffffffffffffffff168373ffffffffffffffffffffffffffffffffffffffff161415610a0857600080fd5b600960003373ffffffffffffffffffffffffffffffffffffffff1673ffffffffffffffffffffffffffffffffffffffff16815260200190815260200160002054821115610a5457600080fd5b610a5e8383610c77565b610a688383610d07565b610ab1600960003373ffffffffffffffffffffffffffffffffffffffff1673ffffffffffffffffffffffffffffffffffffffff1681526020019081526020016000205483610d97565b600960008673ffffffffffffffffffffffffffffffffffffffff1673ffffffffffffffffffffffffffffffffffffffff16815260200190815260200160002081905550610b3d600960008573ffffffffffffffffffffffffffffffffffffffff1673ffffffffffffffffffffffffffffffffffffffff1681526020019081526020016000205483610dad565b600960008573ffffffffffffffffffffffffffffffffffffffff1673ffffffffffffffffffffffffffffffffffffffff168152602001908152602001600020819055508273ffffffffffffffffffffffffffffffffffffffff163373ffffffffffffffffffffffffffffffffffffffff167fddf252ad1be2c89b69c2b068fc378daa952ba7f163c4a11628f55a4df523b3ef84604051610bdd9190611580565b60405180910390a3600190509392505050565b6000600a60008473ffffffffffffffffffffffffffffffffffffffff1673ffffffffffffffffffffffffffffffffffffffff16815260200190815260200160002060008373ffffffffffffffffffffffffffffffffffffffff1673ffffffffffffffffffffffffffffffffffffffff16815260200190815260200160002054905092915050565b610cc0600960008473ffffffffffffffffffffffffffffffffffffffff1673ffffffffffffffffffffffffffffffffffffffff1681526020019081526020016000205482610dad565b600960008473ffffffffffffffffffffffffffffffffffffffff1673ffffffffffffffffffffffffffffffffffffffff168152602001908152602001600020819055505050565b610d50600960008473ffffffffffffffffffffffffffffffffffffffff1673ffffffffffffffffffffffffffffffffffffffff1681526020019081526020016000205482610d97565b600960008473ffffffffffffffffffffffffffffffffffffffff1673ffffffffffffffffffffffffffffffffffffffff168152602001908152602001600020819055505050565b60008183610da59190611628565b905092915050565b60008183610dbb91906115d2565b905092915050565b600033905090565b600073ffffffffffffffffffffffffffffffffffffffff168373ffffffffffffffffffffffffffffffffffffffff161415610e3b576040517f08c379a0000000000000000000000000000000000000000000000000000000008152600401610e3290611540565b60405180910390fd5b600073ffffffffffffffffffffffffffffffffffffffff168273ffffffffffffffffffffffffffffffffffffffff161415610eab576040517f08c379a0000000000000000000000000000000000000000000000000000000008152600401610ea2906114e0565b60405180910390fd5b80600160008573ffffffffffffffffffffffffffffffffffffffff1673ffffffffffffffffffffffffffffffffffffffff16815260200190815260200160002060008473ffffffffffffffffffffffffffffffffffffffff1673ffffffffffffffffffffffffffffffffffffffff168152602001908152602001600020819055508173ffffffffffffffffffffffffffffffffffffffff168373ffffffffffffffffffffffffffffffffffffffff167f8c5be1e5ebec7d5bd14f71427d1e84f3dd0314c0f7b2291e5b200ac8c7c3b92583604051610f899190611580565b60405180910390a3505050565b600073ffffffffffffffffffffffffffffffffffffffff168373ffffffffffffffffffffffffffffffffffffffff161415611006576040517f08c379a0000000000000000000000000000000000000000000000000000000008152600401610ffd90611520565b60405180910390fd5b600073ffffffffffffffffffffffffffffffffffffffff168273ffffffffffffffffffffffffffffffffffffffff161415611076576040517f08c379a000000000000000000000000000000000000000000000000000000000815260040161106d906114c0565b60405180910390fd5b611081838383611217565b60008060008573ffffffffffffffffffffffffffffffffffffffff1673ffffffffffffffffffffffffffffffffffffffff16815260200190815260200160002054905081811015611107576040517f08c379a00000000000000000000000000000000000000000000000000000000081526004016110fe90611500565b60405180910390fd5b8181036000808673ffffffffffffffffffffffffffffffffffffffff1673ffffffffffffffffffffffffffffffffffffffff16815260200190815260200160002081905550816000808573ffffffffffffffffffffffffffffffffffffffff1673ffffffffffffffffffffffffffffffffffffffff168152602001908152602001600020600082825461119a91906115d2565b925050819055508273ffffffffffffffffffffffffffffffffffffffff168473ffffffffffffffffffffffffffffffffffffffff167fddf252ad1be2c89b69c2b068fc378daa952ba7f163c4a11628f55a4df523b3ef846040516111fe9190611580565b60405180910390a361121184848461121c565b50505050565b505050565b505050565b60008135905061123081611903565b92915050565b6000813590506112458161191a565b92915050565b60006020828403121561126157611260611713565b5b600061126f84828501611221565b91505092915050565b6000806040838503121561128f5761128e611713565b5b600061129d85828601611221565b92505060206112ae85828601611221565b9150509250929050565b6000806000606084860312156112d1576112d0611713565b5b60006112df86828701611221565b93505060206112f086828701611221565b925050604061130186828701611236565b9150509250925092565b6000806040838503121561132257611321611713565b5b600061133085828601611221565b925050602061134185828601611236565b9150509250929050565b6113548161166e565b82525050565b6000611365826115b6565b61136f81856115c1565b935061137f8185602086016116b1565b61138881611718565b840191505092915050565b60006113a06023836115c1565b91506113ab82611729565b604082019050919050565b60006113c36022836115c1565b91506113ce82611778565b604082019050919050565b60006113e66026836115c1565b91506113f1826117c7565b604082019050919050565b60006114096025836115c1565b915061141482611816565b604082019050919050565b600061142c6024836115c1565b915061143782611865565b604082019050919050565b600061144f6025836115c1565b915061145a826118b4565b604082019050919050565b61146e8161169a565b82525050565b61147d816116a4565b82525050565b6000602082019050611498600083018461134b565b92915050565b600060208201905081810360008301526114b8818461135a565b905092915050565b600060208201905081810360008301526114d981611393565b9050919050565b600060208201905081810360008301526114f9816113b6565b9050919050565b60006020820190508181036000830152611519816113d9565b9050919050565b60006020820190508181036000830152611539816113fc565b9050919050565b600060208201905081810360008301526115598161141f565b9050919050565b6000602082019050818103600083015261157981611442565b9050919050565b60006020820190506115956000830184611465565b92915050565b60006020820190506115b06000830184611474565b92915050565b600081519050919050565b600082825260208201905092915050565b60006115dd8261169a565b91506115e88361169a565b9250827fffffffffffffffffffffffffffffffffffffffffffffffffffffffffffffffff0382111561161d5761161c6116e4565b5b828201905092915050565b60006116338261169a565b915061163e8361169a565b925082821015611651576116506116e4565b5b828203905092915050565b60006116678261167a565b9050919050565b60008115159050919050565b600073ffffffffffffffffffffffffffffffffffffffff82169050919050565b6000819050919050565b600060ff82169050919050565b60005b838110156116cf5780820151818401526020810190506116b4565b838111156116de576000848401525b50505050565b7f4e487b7100000000000000000000000000000000000000000000000000000000600052601160045260246000fd5b600080fd5b6000601f19601f8301169050919050565b7f45524332303a207472616e7366657220746f20746865207a65726f206164647260008201527f6573730000000000000000000000000000000000000000000000000000000000602082015250565b7f45524332303a20617070726f766520746f20746865207a65726f20616464726560008201527f7373000000000000000000000000000000000000000000000000000000000000602082015250565b7f45524332303a207472616e7366657220616d6f756e742065786365656473206260008201527f616c616e63650000000000000000000000000000000000000000000000000000602082015250565b7f45524332303a207472616e736665722066726f6d20746865207a65726f20616460008201527f6472657373000000000000000000000000000000000000000000000000000000602082015250565b7f45524332303a20617070726f76652066726f6d20746865207a65726f2061646460008201527f7265737300000000000000000000000000000000000000000000000000000000602082015250565b7f45524332303a2064656372656173656420616c6c6f77616e63652062656c6f7760008201527f207a65726f000000000000000000000000000000000000000000000000000000602082015250565b61190c8161165c565b811461191757600080fd5b50565b6119238161169a565b811461192e57600080fd5b5056fea2646970667358221220d81a80a743803ee11d57eee647becdeab12bc030910238fb9f921bd16a390ac264736f6c63430008060033",
  "immutableReferences": {},
  "source": "pragma solidity ^0.8.0;\r\n\r\n\r\nimport \"@openzeppelin/contracts/token/ERC20/ERC20.sol\";\r\nimport \"@openzeppelin/contracts/utils/math/SafeMath.sol\";\r\n\r\n\r\ncontract UNICOIN is ERC20 {\r\n\r\n    // is defines a kind of inheritance \r\n  using SafeMath for uint;\r\n  // using: includes a library within a contract in solidity \r\n  // SafeMath: defines functions add, sub, mul, div (to prevent overflows)\r\n     \r\n    string internal _name;\r\n    //internal: like \"protected\", i.e. accessible to contract itself and derived contracts \r\n    string internal _symbol;\r\n    uint8 internal _decimals;\r\n    uint256 internal _totalSupply;\r\n\r\n    mapping (address => uint256) internal balances;\r\n    // keys: address ; values: uint256 (a 256-bit integer used to store token balances)\r\n\r\n    mapping (address => mapping (address => uint256)) internal allowed;\r\n    // now you have to specify two addresses: allowed[_from][msg.sender] <- who allows, who is allowed\r\n    // will include all accounts approved to withdraw from\r\n    // a given account together with the withdrawal sum allowed for each\r\n\r\n    constructor(string memory name, string memory symbol, uint256 totalSupply) ERC20(name, symbol) {\r\n        balances[msg.sender] = 251;\r\n        _name = name;\r\n        _symbol = symbol;\r\n    }\r\n\r\n    function name ()\r\n        public\r\n        view override \r\n        returns (string memory _name) {\r\n        return _name;\r\n    }\r\n\r\n    function symbol()\r\n        public\r\n        view override\r\n        returns (string memory _symbol) {\r\n        return _symbol;\r\n    }\r\n\r\n    function decimals()\r\n        public\r\n        view override\r\n        returns (uint8) {\r\n        return _decimals;\r\n    }\r\n\r\n    function totalSupply()\r\n        public\r\n        view override\r\n        returns (uint256) {\r\n        return _totalSupply;\r\n    }\r\n\r\n   function transfer(address _from, address _to, uint256 _value) public returns (bool) {\r\n     require(_to != address(0));\r\n     require(_value <= balances[msg.sender]);\r\n     // the value of the transaction should be smaller than the balance \r\n     // of the transaction originator\r\n     \r\n     increaseBalanceOf(_to, _value);\r\n     decreaseBalanceOf(_to, _value);\r\n     \r\n     balances[_from] = SafeMath.sub(balances[msg.sender], _value);\r\n     balances[_to] = SafeMath.add(balances[_to], _value);\r\n     // add money to the account you transfer money to \r\n     \r\n     emit Transfer(msg.sender, _to, _value);\r\n     // emit an event \"Transfer\"\r\n     \r\n     return true;\r\n   }\r\n\r\n  function balanceOf(address _owner) public view override returns (uint256 balance) {\r\n    return balances[_owner];\r\n   } // balanceOf will return the current token balance of\r\n   //an account, identified by its owner's address\r\n   \r\n  function increaseBalanceOf(address _owner, uint256 _amount) private{\r\n    //balances[_owner] = balances[_owner] + _amount;\r\n    balances[_owner] = SafeMath.add(balances[_owner], _amount);\r\n  }\r\n  \r\n  function decreaseBalanceOf(address _owner, uint256 _amount) private{\r\n    //balances[_owner] = balances[_owner] - _amount;\r\n    balances[_owner] = SafeMath.sub(balances[_owner], _amount);\r\n  }\r\n  \r\n  function increaseCirculation(address _owner, uint256 _amount) public{\r\n    _totalSupply = SafeMath.add(_totalSupply, _amount);\r\n    increaseBalanceOf(_owner, _amount);\r\n  }\r\n  \r\n  function decreaseCirculation(address _owner, uint256 _amount) public{\r\n    _totalSupply = _totalSupply - _amount;\r\n    decreaseBalanceOf(_owner, _amount);\r\n  }\r\n  \r\n  function enroll(address _owner, uint256 _amount) public {\r\n    balances[_owner] = SafeMath.add(balances[_owner], _amount);\r\n  }\r\n      \r\n  \r\n  function transferFrom(address _from, address _to, uint256 _value) public override returns (bool) {\r\n    require(_to != address(0));\r\n     require(_value <= balances[_from]);\r\n     require(_value <= allowed[_from][msg.sender]);\r\n    // Verify that the transaction is legitimate\r\n\r\n    increaseBalanceOf(_to, _value);\r\n    decreaseBalanceOf(_to, _value);\r\n    //balances[_to] = SafeMath.add(balances[_to], _value);\r\n    allowed[_from][msg.sender] = SafeMath.sub(allowed[_from][msg.sender], _value);\r\n    emit Transfer(_from, _to, _value);\r\n    return true;\r\n   }\r\n\r\n   function approve(address _spender, uint256 _value) public override returns (bool) {\r\n     allowed[msg.sender][_spender] = _value;\r\n     emit Approval(msg.sender, _spender, _value);\r\n     return true;\r\n     \r\n     // allows msg.sender to approve a _spender account to spend some _value on his behalf \r\n   }\r\n\r\n  function allowance(address _owner, address _spender) public view override returns (uint256) {\r\n     return allowed[_owner][_spender];\r\n     \r\n     // Returns the current approved number of tokens by an owner\r\n     // to a specific delegate, as set in the approve function\r\n   }\r\n}",
  "sourcePath": "/mnt/c/Users/Dell/Desktop/Olzhas/Summer2021/UNICOIN/contracts/UNICOIN.sol",
  "compiler": {
    "name": "solc",
    "version": "0.8.6+commit.11564f7e.Emscripten.clang"
  },
  "schemaVersion": "3.3.4",
  "updatedAt": "2021-07-07T04:43:43.357Z",
  "devdoc": {
    "kind": "dev",
    "methods": {
      "decimals()": {
        "details": "Returns the number of decimals used to get its user representation. For example, if `decimals` equals `2`, a balance of `505` tokens should be displayed to a user as `5,05` (`505 / 10 ** 2`). Tokens usually opt for a value of 18, imitating the relationship between Ether and Wei. This is the value {ERC20} uses, unless this function is overridden; NOTE: This information is only used for _display_ purposes: it in no way affects any of the arithmetic of the contract, including {IERC20-balanceOf} and {IERC20-transfer}."
      },
      "decreaseAllowance(address,uint256)": {
        "details": "Atomically decreases the allowance granted to `spender` by the caller. This is an alternative to {approve} that can be used as a mitigation for problems described in {IERC20-approve}. Emits an {Approval} event indicating the updated allowance. Requirements: - `spender` cannot be the zero address. - `spender` must have allowance for the caller of at least `subtractedValue`."
      },
      "increaseAllowance(address,uint256)": {
        "details": "Atomically increases the allowance granted to `spender` by the caller. This is an alternative to {approve} that can be used as a mitigation for problems described in {IERC20-approve}. Emits an {Approval} event indicating the updated allowance. Requirements: - `spender` cannot be the zero address."
      },
      "name()": {
        "details": "Returns the name of the token."
      },
      "symbol()": {
        "details": "Returns the symbol of the token, usually a shorter version of the name."
      },
      "totalSupply()": {
        "details": "See {IERC20-totalSupply}."
      },
      "transfer(address,uint256)": {
        "details": "See {IERC20-transfer}. Requirements: - `recipient` cannot be the zero address. - the caller must have a balance of at least `amount`."
      }
    },
    "version": 1
  },
  "userdoc": {
    "kind": "user",
    "methods": {},
    "version": 1
  }
}